{
  "_format": "hh-sol-artifact-1",
  "contractName": "TravelCheckAttraction",
  "sourceName": "contracts/TravelCheckAttraction.sol",
  "abi": [
    {
      "inputs": [
        {
          "internalType": "address",
          "name": "initialOwner",
          "type": "address"
        }
      ],
      "stateMutability": "nonpayable",
      "type": "constructor"
    },
    {
      "inputs": [
        {
          "internalType": "address",
          "name": "owner",
          "type": "address"
        }
      ],
      "name": "OwnableInvalidOwner",
      "type": "error"
    },
    {
      "inputs": [
        {
          "internalType": "address",
          "name": "account",
          "type": "address"
        }
      ],
      "name": "OwnableUnauthorizedAccount",
      "type": "error"
    },
    {
      "inputs": [],
      "name": "ReentrancyGuardReentrantCall",
      "type": "error"
    },
    {
      "anonymous": false,
      "inputs": [
        {
          "indexed": true,
          "internalType": "address",
          "name": "previousOwner",
          "type": "address"
        },
        {
          "indexed": true,
          "internalType": "address",
          "name": "newOwner",
          "type": "address"
        }
      ],
      "name": "OwnershipTransferred",
      "type": "event"
    },
    {
      "anonymous": false,
      "inputs": [
        {
          "indexed": true,
          "internalType": "uint256",
          "name": "taskId",
          "type": "uint256"
        },
        {
          "indexed": false,
          "internalType": "uint256",
          "name": "amount",
          "type": "uint256"
        },
        {
          "indexed": false,
          "internalType": "uint256",
          "name": "additionalSlots",
          "type": "uint256"
        }
      ],
      "name": "RewardAdded",
      "type": "event"
    },
    {
      "anonymous": false,
      "inputs": [
        {
          "indexed": true,
          "internalType": "uint256",
          "name": "taskId",
          "type": "uint256"
        },
        {
          "indexed": true,
          "internalType": "address",
          "name": "user",
          "type": "address"
        }
      ],
      "name": "TaskAccepted",
      "type": "event"
    },
    {
      "anonymous": false,
      "inputs": [
        {
          "indexed": true,
          "internalType": "uint256",
          "name": "taskId",
          "type": "uint256"
        },
        {
          "indexed": false,
          "internalType": "uint256",
          "name": "refundAmount",
          "type": "uint256"
        }
      ],
      "name": "TaskCancelled",
      "type": "event"
    },
    {
      "anonymous": false,
      "inputs": [
        {
          "indexed": true,
          "internalType": "uint256",
          "name": "taskId",
          "type": "uint256"
        },
        {
          "indexed": true,
          "internalType": "address",
          "name": "user",
          "type": "address"
        },
        {
          "indexed": false,
          "internalType": "uint256",
          "name": "reward",
          "type": "uint256"
        },
        {
          "indexed": false,
          "internalType": "bytes32",
          "name": "contentHash",
          "type": "bytes32"
        }
      ],
      "name": "TaskCompleted",
      "type": "event"
    },
    {
      "anonymous": false,
      "inputs": [
        {
          "indexed": true,
          "internalType": "uint256",
          "name": "taskId",
          "type": "uint256"
        },
        {
          "indexed": false,
          "internalType": "string",
          "name": "name",
          "type": "string"
        },
        {
          "indexed": false,
          "internalType": "uint256",
          "name": "rewardPerUser",
          "type": "uint256"
        },
        {
          "indexed": false,
          "internalType": "uint256",
          "name": "totalSlots",
          "type": "uint256"
        },
        {
          "indexed": false,
          "internalType": "int256",
          "name": "latitude",
          "type": "int256"
        },
        {
          "indexed": false,
          "internalType": "int256",
          "name": "longitude",
          "type": "int256"
        }
      ],
      "name": "TaskCreated",
      "type": "event"
    },
    {
      "anonymous": false,
      "inputs": [
        {
          "indexed": true,
          "internalType": "uint256",
          "name": "taskId",
          "type": "uint256"
        },
        {
          "indexed": false,
          "internalType": "enum TravelCheckAttraction.TaskStatus",
          "name": "status",
          "type": "uint8"
        }
      ],
      "name": "TaskStatusChanged",
      "type": "event"
    },
    {
      "inputs": [
        {
          "internalType": "uint256",
          "name": "taskId",
          "type": "uint256"
        }
      ],
      "name": "acceptTask",
      "outputs": [],
      "stateMutability": "nonpayable",
      "type": "function"
    },
    {
      "inputs": [
        {
          "internalType": "uint256",
          "name": "taskId",
          "type": "uint256"
        }
      ],
      "name": "addReward",
      "outputs": [],
      "stateMutability": "payable",
      "type": "function"
    },
    {
      "inputs": [
        {
          "internalType": "uint256",
          "name": "taskId",
          "type": "uint256"
        }
      ],
      "name": "cancelTask",
      "outputs": [],
      "stateMutability": "nonpayable",
      "type": "function"
    },
    {
      "inputs": [
        {
          "internalType": "uint256",
          "name": "taskId",
          "type": "uint256"
        },
        {
          "internalType": "bytes32",
          "name": "contentHash",
          "type": "bytes32"
        },
        {
          "internalType": "int256",
          "name": "latitude",
          "type": "int256"
        },
        {
          "internalType": "int256",
          "name": "longitude",
          "type": "int256"
        }
      ],
      "name": "completeTask",
      "outputs": [],
      "stateMutability": "nonpayable",
      "type": "function"
    },
    {
      "inputs": [
        {
          "internalType": "string",
          "name": "name",
          "type": "string"
        },
        {
          "internalType": "string",
          "name": "description",
          "type": "string"
        },
        {
          "internalType": "int256",
          "name": "latitude",
          "type": "int256"
        },
        {
          "internalType": "int256",
          "name": "longitude",
          "type": "int256"
        },
        {
          "internalType": "uint256",
          "name": "radius",
          "type": "uint256"
        },
        {
          "internalType": "uint256",
          "name": "rewardPerUser",
          "type": "uint256"
        },
        {
          "internalType": "uint256",
          "name": "totalSlots",
          "type": "uint256"
        },
        {
          "internalType": "uint256",
          "name": "startTime",
          "type": "uint256"
        },
        {
          "internalType": "uint256",
          "name": "endTime",
          "type": "uint256"
        }
      ],
      "name": "createTask",
      "outputs": [],
      "stateMutability": "payable",
      "type": "function"
    },
    {
      "inputs": [
        {
          "internalType": "uint256",
          "name": "amount",
          "type": "uint256"
        }
      ],
      "name": "emergencyWithdraw",
      "outputs": [],
      "stateMutability": "nonpayable",
      "type": "function"
    },
    {
      "inputs": [
        {
          "internalType": "uint256",
          "name": "taskId",
          "type": "uint256"
        }
      ],
      "name": "getRemainingSlots",
      "outputs": [
        {
          "internalType": "uint256",
          "name": "",
          "type": "uint256"
        }
      ],
      "stateMutability": "view",
      "type": "function"
    },
    {
      "inputs": [
        {
          "internalType": "uint256",
          "name": "taskId",
          "type": "uint256"
        }
      ],
      "name": "getTask",
      "outputs": [
        {
          "components": [
            {
              "internalType": "uint256",
              "name": "id",
              "type": "uint256"
            },
            {
              "internalType": "string",
              "name": "name",
              "type": "string"
            },
            {
              "internalType": "string",
              "name": "description",
              "type": "string"
            },
            {
              "internalType": "int256",
              "name": "latitude",
              "type": "int256"
            },
            {
              "internalType": "int256",
              "name": "longitude",
              "type": "int256"
            },
            {
              "internalType": "uint256",
              "name": "radius",
              "type": "uint256"
            },
            {
              "internalType": "uint256",
              "name": "rewardPerUser",
              "type": "uint256"
            },
            {
              "internalType": "uint256",
              "name": "totalSlots",
              "type": "uint256"
            },
            {
              "internalType": "uint256",
              "name": "claimedSlots",
              "type": "uint256"
            },
            {
              "internalType": "uint256",
              "name": "startTime",
              "type": "uint256"
            },
            {
              "internalType": "uint256",
              "name": "endTime",
              "type": "uint256"
            },
            {
              "internalType": "enum TravelCheckAttraction.TaskStatus",
              "name": "status",
              "type": "uint8"
            },
            {
              "internalType": "uint256",
              "name": "remainingReward",
              "type": "uint256"
            }
          ],
          "internalType": "struct TravelCheckAttraction.Task",
          "name": "",
          "type": "tuple"
        }
      ],
      "stateMutability": "view",
      "type": "function"
    },
    {
      "inputs": [],
      "name": "getTaskCount",
      "outputs": [
        {
          "internalType": "uint256",
          "name": "",
          "type": "uint256"
        }
      ],
      "stateMutability": "view",
      "type": "function"
    },
    {
      "inputs": [
        {
          "internalType": "address",
          "name": "user",
          "type": "address"
        }
      ],
      "name": "getUserAcceptedTasks",
      "outputs": [
        {
          "internalType": "uint256[]",
          "name": "",
          "type": "uint256[]"
        }
      ],
      "stateMutability": "view",
      "type": "function"
    },
    {
      "inputs": [
        {
          "internalType": "uint256",
          "name": "taskId",
          "type": "uint256"
        },
        {
          "internalType": "address",
          "name": "user",
          "type": "address"
        }
      ],
      "name": "getUserTaskInfo",
      "outputs": [
        {
          "components": [
            {
              "internalType": "bool",
              "name": "accepted",
              "type": "bool"
            },
            {
              "internalType": "bool",
              "name": "completed",
              "type": "bool"
            },
            {
              "internalType": "uint256",
              "name": "acceptedAt",
              "type": "uint256"
            },
            {
              "internalType": "uint256",
              "name": "completedAt",
              "type": "uint256"
            },
            {
              "internalType": "bytes32",
              "name": "contentHash",
              "type": "bytes32"
            }
          ],
          "internalType": "struct TravelCheckAttraction.UserTaskInfo",
          "name": "",
          "type": "tuple"
        }
      ],
      "stateMutability": "view",
      "type": "function"
    },
    {
      "inputs": [
        {
          "internalType": "uint256",
          "name": "taskId",
          "type": "uint256"
        }
      ],
      "name": "isTaskAcceptable",
      "outputs": [
        {
          "internalType": "bool",
          "name": "",
          "type": "bool"
        }
      ],
      "stateMutability": "view",
      "type": "function"
    },
    {
      "inputs": [],
      "name": "nextTaskId",
      "outputs": [
        {
          "internalType": "uint256",
          "name": "",
          "type": "uint256"
        }
      ],
      "stateMutability": "view",
      "type": "function"
    },
    {
      "inputs": [],
      "name": "owner",
      "outputs": [
        {
          "internalType": "address",
          "name": "",
          "type": "address"
        }
      ],
      "stateMutability": "view",
      "type": "function"
    },
    {
      "inputs": [
        {
          "internalType": "uint256",
          "name": "taskId",
          "type": "uint256"
        }
      ],
      "name": "pauseTask",
      "outputs": [],
      "stateMutability": "nonpayable",
      "type": "function"
    },
    {
      "inputs": [],
      "name": "renounceOwnership",
      "outputs": [],
      "stateMutability": "nonpayable",
      "type": "function"
    },
    {
      "inputs": [
        {
          "internalType": "uint256",
          "name": "taskId",
          "type": "uint256"
        }
      ],
      "name": "resumeTask",
      "outputs": [],
      "stateMutability": "nonpayable",
      "type": "function"
    },
    {
      "inputs": [
        {
          "internalType": "uint256",
          "name": "",
          "type": "uint256"
        }
      ],
      "name": "tasks",
      "outputs": [
        {
          "internalType": "uint256",
          "name": "id",
          "type": "uint256"
        },
        {
          "internalType": "string",
          "name": "name",
          "type": "string"
        },
        {
          "internalType": "string",
          "name": "description",
          "type": "string"
        },
        {
          "internalType": "int256",
          "name": "latitude",
          "type": "int256"
        },
        {
          "internalType": "int256",
          "name": "longitude",
          "type": "int256"
        },
        {
          "internalType": "uint256",
          "name": "radius",
          "type": "uint256"
        },
        {
          "internalType": "uint256",
          "name": "rewardPerUser",
          "type": "uint256"
        },
        {
          "internalType": "uint256",
          "name": "totalSlots",
          "type": "uint256"
        },
        {
          "internalType": "uint256",
          "name": "claimedSlots",
          "type": "uint256"
        },
        {
          "internalType": "uint256",
          "name": "startTime",
          "type": "uint256"
        },
        {
          "internalType": "uint256",
          "name": "endTime",
          "type": "uint256"
        },
        {
          "internalType": "enum TravelCheckAttraction.TaskStatus",
          "name": "status",
          "type": "uint8"
        },
        {
          "internalType": "uint256",
          "name": "remainingReward",
          "type": "uint256"
        }
      ],
      "stateMutability": "view",
      "type": "function"
    },
    {
      "inputs": [
        {
          "internalType": "address",
          "name": "newOwner",
          "type": "address"
        }
      ],
      "name": "transferOwnership",
      "outputs": [],
      "stateMutability": "nonpayable",
      "type": "function"
    },
    {
      "inputs": [
        {
          "internalType": "address",
          "name": "",
          "type": "address"
        },
        {
          "internalType": "uint256",
          "name": "",
          "type": "uint256"
        }
      ],
      "name": "userAcceptedTasks",
      "outputs": [
        {
          "internalType": "uint256",
          "name": "",
          "type": "uint256"
        }
      ],
      "stateMutability": "view",
      "type": "function"
    },
    {
      "inputs": [
        {
          "internalType": "uint256",
          "name": "",
          "type": "uint256"
        },
        {
          "internalType": "address",
          "name": "",
          "type": "address"
        }
      ],
      "name": "userTasks",
      "outputs": [
        {
          "internalType": "bool",
          "name": "accepted",
          "type": "bool"
        },
        {
          "internalType": "bool",
          "name": "completed",
          "type": "bool"
        },
        {
          "internalType": "uint256",
          "name": "acceptedAt",
          "type": "uint256"
        },
        {
          "internalType": "uint256",
          "name": "completedAt",
          "type": "uint256"
        },
        {
          "internalType": "bytes32",
          "name": "contentHash",
          "type": "bytes32"
        }
      ],
      "stateMutability": "view",
      "type": "function"
    },
    {
      "stateMutability": "payable",
      "type": "receive"
    }
  ],
  "bytecode": "0x60806040523480156200001157600080fd5b5060405162002166380380620021668339810160408190526200003491620000cb565b806001600160a01b0381166200006457604051631e4fbdf760e01b81526000600482015260240160405180910390fd5b6200006f816200007b565b505060018055620000fd565b600080546001600160a01b038381166001600160a01b0319831681178455604051919092169283917f8be0079c531659141344cd1fd0a4f28419497f9722a3daafe3b4186f6b6457e09190a35050565b600060208284031215620000de57600080fd5b81516001600160a01b0381168114620000f657600080fd5b9392505050565b612059806200010d6000396000f3fe60806040526004361061012e5760003560e01c8063715018a6116100ab578063c17a340e1161006f578063c17a340e146103f0578063cc188ded14610405578063f1cbda0e14610418578063f2fde38b14610448578063f8563d5914610468578063fdc3d8d71461049557600080fd5b8063715018a61461034757806374de4ec41461035c5780637eec20a81461036f5780638d9776721461038f5780638da5cb5b146103c857600080fd5b80633bae2b42116100f25780633bae2b42146102535780635312ea8e146102b957806357aa237a146102d957806364f5c8be146102f95780636eec22121461032757600080fd5b80631bf6912d1461013a5780631d65e77e1461015c5780632011e1d41461019257806326ec851c146101b2578063337761d11461023357600080fd5b3661013557005b600080fd5b34801561014657600080fd5b5061015a6101553660046119c7565b6104ab565b005b34801561016857600080fd5b5061017c6101773660046119c7565b61068a565b6040516101899190611a5e565b60405180910390f35b34801561019e57600080fd5b5061015a6101ad3660046119c7565b610875565b3480156101be57600080fd5b506102096101cd366004611b4c565b60036020818152600093845260408085209091529183529120805460018201546002830154929093015460ff8083169461010090930416929085565b6040805195151586529315156020860152928401919091526060830152608082015260a001610189565b34801561023f57600080fd5b5061015a61024e3660046119c7565b610930565b34801561025f57600080fd5b5061027361026e366004611b4c565b6109c0565b6040516101899190600060a08201905082511515825260208301511515602083015260408301516040830152606083015160608301526080830151608083015292915050565b3480156102c557600080fd5b5061015a6102d43660046119c7565b610a57565b3480156102e557600080fd5b5061015a6102f4366004611b78565b610b34565b34801561030557600080fd5b50610319610314366004611baa565b610e38565b604051908152602001610189565b34801561033357600080fd5b506103196103423660046119c7565b610e69565b34801561035357600080fd5b5061015a610eaa565b61015a61036a3660046119c7565b610ebe565b34801561037b57600080fd5b5061015a61038a3660046119c7565b610ff3565b34801561039b57600080fd5b506103af6103aa3660046119c7565b61117d565b6040516101899d9c9b9a99989796959493929190611bd4565b3480156103d457600080fd5b506000546040516001600160a01b039091168152602001610189565b3480156103fc57600080fd5b50600554610319565b61015a610413366004611ca7565b6112f4565b34801561042457600080fd5b506104386104333660046119c7565b61179e565b6040519015158152602001610189565b34801561045457600080fd5b5061015a610463366004611d52565b611800565b34801561047457600080fd5b50610488610483366004611d52565b61183b565b6040516101899190611d6d565b3480156104a157600080fd5b5061031960055481565b60008181526002602090815260408083206003835281842033855290925282209091600b83015460ff1660038111156104e6576104e6611a26565b1461050c5760405162461bcd60e51b815260040161050390611db1565b60405180910390fd5b81600901544210156105535760405162461bcd60e51b815260206004820152601060248201526f15185cdac81b9bdd081cdd185c9d195960821b6044820152606401610503565b81600a01544211156105945760405162461bcd60e51b815260206004820152600a60248201526915185cdac8195b99195960b21b6044820152606401610503565b805460ff16156105d95760405162461bcd60e51b815260206004820152601060248201526f105b1c9958591e481858d8d95c1d195960821b6044820152606401610503565b81600701548260080154106106255760405162461bcd60e51b81526020600482015260126024820152714e6f20736c6f747320617661696c61626c6560701b6044820152606401610503565b805460ff19166001908117825542828201553360008181526004602090815260408083208054958601815583529082209093018690559151909185917fc8717b61398fb9d7cacf49fe1e296b2f10e9711226b532842b6ffd642cb6a2c69190a3505050565b61069261194e565b60026000838152602001908152602001600020604051806101a0016040529081600082015481526020016001820180546106cb90611dda565b80601f01602080910402602001604051908101604052809291908181526020018280546106f790611dda565b80156107445780601f1061071957610100808354040283529160200191610744565b820191906000526020600020905b81548152906001019060200180831161072757829003601f168201915b5050505050815260200160028201805461075d90611dda565b80601f016020809104026020016040519081016040528092919081815260200182805461078990611dda565b80156107d65780601f106107ab576101008083540402835291602001916107d6565b820191906000526020600020905b8154815290600101906020018083116107b957829003601f168201915b50505091835250506003828101546020830152600483015460408301526005830154606083015260068301546080830152600783015460a0830152600883015460c0830152600983015460e0830152600a830154610100830152600b8301546101209092019160ff169081111561084f5761084f611a26565b600381111561086057610860611a26565b8152602001600c820154815250509050919050565b61087d6118a7565b60008181526002602052604090206001600b82015460ff1660038111156108a6576108a6611a26565b146108e55760405162461bcd60e51b815260206004820152600f60248201526e15185cdac81b9bdd081c185d5cd959608a1b6044820152606401610503565b600b8101805460ff1916905560405182907fd76ef80cfb1ce0c70d0cbc0ab1b9f2f298a78f9fca5c841be963ae9a5d721bb49061092490600090611e14565b60405180910390a25050565b6109386118a7565b600081815260026020526040812090600b82015460ff16600381111561096057610960611a26565b1461097d5760405162461bcd60e51b815260040161050390611db1565b600b8101805460ff1916600190811790915560405183917fd76ef80cfb1ce0c70d0cbc0ab1b9f2f298a78f9fca5c841be963ae9a5d721bb4916109249190611e14565b6040805160a0810182526000808252602082018190529181018290526060810182905260808101919091525060008281526003602081815260408084206001600160a01b0386168552825292839020835160a081018552815460ff80821615158352610100909104161515928101929092526001810154938201939093526002830154606082015291015460808201525b92915050565b610a5f6118a7565b47811115610aa65760405162461bcd60e51b8152602060048201526014602482015273496e73756666696369656e742062616c616e636560601b6044820152606401610503565b604051600090339083908381818185875af1925050503d8060008114610ae8576040519150601f19603f3d011682016040523d82523d6000602084013e610aed565b606091505b5050905080610b305760405162461bcd60e51b815260206004820152600f60248201526e151c985b9cd9995c8819985a5b1959608a1b6044820152606401610503565b5050565b610b3c6118d4565b60008481526002602090815260408083206003835281842033855290925282209091600b83015460ff166003811115610b7757610b77611a26565b14610b945760405162461bcd60e51b815260040161050390611db1565b805460ff16610bd45760405162461bcd60e51b815260206004820152600c60248201526b139bdd081858d8d95c1d195960a21b6044820152606401610503565b8054610100900460ff1615610c1f5760405162461bcd60e51b8152602060048201526011602482015270105b1c9958591e4818dbdb5c1b195d1959607a1b6044820152606401610503565b81600a0154421115610c605760405162461bcd60e51b815260206004820152600a60248201526915185cdac8195b99195960b21b6044820152606401610503565b816006015482600c01541015610cae5760405162461bcd60e51b8152602060048201526013602482015272125b9cdd59999a58da595b9d081c995dd85c99606a1b6044820152606401610503565b805461ff00191661010017815542600282015560038101859055600882018054906000610cda83611e38565b9190505550816006015482600c016000828254610cf79190611e51565b90915550506007820154600883015410610d5757600b8201805460ff1916600290811790915560405187917fd76ef80cfb1ce0c70d0cbc0ab1b9f2f298a78f9fca5c841be963ae9a5d721bb491610d4e9190611e14565b60405180910390a25b600682015460405160009133918381818185875af1925050503d8060008114610d9c576040519150601f19603f3d011682016040523d82523d6000602084013e610da1565b606091505b5050905080610de45760405162461bcd60e51b815260206004820152600f60248201526e151c985b9cd9995c8819985a5b1959608a1b6044820152606401610503565b60068301546040805191825260208201889052339189917f97a0824b8506cfb139577d310829a271db466501d3611753d09a6d3dd043da92910160405180910390a3505050610e3260018055565b50505050565b60046020528160005260406000208181548110610e5457600080fd5b90600052602060002001600091509150505481565b60008181526002602052604081206008810154600782015411610e8f5750600092915050565b80600801548160070154610ea39190611e51565b9392505050565b610eb26118a7565b610ebc60006118fe565b565b610ec66118a7565b60008181526002602052604090206003600b82015460ff166003811115610eef57610eef611a26565b03610f2d5760405162461bcd60e51b815260206004820152600e60248201526d15185cdac818d85b98d95b1b195960921b6044820152606401610503565b60003411610f6d5760405162461bcd60e51b815260206004820152600d60248201526c139bc81d985b1d59481cd95b9d609a1b6044820152606401610503565b3481600c016000828254610f819190611e64565b90915550506006810154600090610f989034611e77565b905080826007016000828254610fae9190611e64565b9091555050604080513481526020810183905284917f9795f222c951ae3e749f872dbe287f78d21fa52353e9175cb20ed3aa2b29b82b910160405180910390a2505050565b610ffb6118a7565b6110036118d4565b600081815260026020526040812090600b82015460ff16600381111561102b5761102b611a26565b148061104f57506001600b82015460ff16600381111561104d5761104d611a26565b145b61108b5760405162461bcd60e51b815260206004820152600d60248201526c10d85b9b9bdd0818d85b98d95b609a1b6044820152606401610503565b600c81018054600b8301805460ff191660031790556000909155801561113557604051600090339083908381818185875af1925050503d80600081146110ed576040519150601f19603f3d011682016040523d82523d6000602084013e6110f2565b606091505b50509050806111335760405162461bcd60e51b815260206004820152600d60248201526c1499599d5b990819985a5b1959609a1b6044820152606401610503565b505b827f58716386e17644e69ff7358e3317a395f4523fcd0fb9cc227ee68d117ebbfbfc8260405161116791815260200190565b60405180910390a2505061117a60018055565b50565b6002602052600090815260409020805460018201805491929161119f90611dda565b80601f01602080910402602001604051908101604052809291908181526020018280546111cb90611dda565b80156112185780601f106111ed57610100808354040283529160200191611218565b820191906000526020600020905b8154815290600101906020018083116111fb57829003601f168201915b50505050509080600201805461122d90611dda565b80601f016020809104026020016040519081016040528092919081815260200182805461125990611dda565b80156112a65780601f1061127b576101008083540402835291602001916112a6565b820191906000526020600020905b81548152906001019060200180831161128957829003601f168201915b50505060038401546004850154600586015460068701546007880154600889015460098a0154600a8b0154600b8c0154600c909c01549a9b979a9699509497509295919490939160ff16908d565b6112fc6118a7565b896113365760405162461bcd60e51b815260206004820152600a602482015269456d707479206e616d6560b01b6044820152606401610503565b600084116113775760405162461bcd60e51b815260206004820152600e60248201526d125b9d985b1a59081c995dd85c9960921b6044820152606401610503565b600083116113b75760405162461bcd60e51b815260206004820152600d60248201526c496e76616c696420736c6f747360981b6044820152606401610503565b8181116113fb5760405162461bcd60e51b8152602060048201526012602482015271496e76616c69642074696d652072616e676560701b6044820152606401610503565b426114088361012c611e64565b10156114565760405162461bcd60e51b815260206004820152601a60248201527f53746172742074696d6520746f6f2066617220696e20706173740000000000006044820152606401610503565b60008511801561146857506127108511155b6114a55760405162461bcd60e51b815260206004820152600e60248201526d496e76616c69642072616469757360901b6044820152606401610503565b60006114b18486611e99565b9050803410156115035760405162461bcd60e51b815260206004820152601b60248201527f496e73756666696369656e7420726577617264206465706f73697400000000006044820152606401610503565b600580546000918261151483611e38565b919050559050604051806101a001604052808281526020018e8e8080601f016020809104026020016040519081016040528093929190818152602001838380828437600092019190915250505090825250604080516020601f8f018190048102820181019092528d815291810191908e908e90819084018382808284376000920182905250938552505050602082018c9052604082018b9052606082018a90526080820189905260a0820188905260c0820181905260e0820187905261010082018690526101209091019081526020908101849052600083815260028252604090208251815590820151600182019061160d9082611f15565b50604082015160028201906116229082611f15565b50606082015181600301556080820151816004015560a0820151816005015560c0820151816006015560e082015181600701556101008201518160080155610120820151816009015561014082015181600a015561016082015181600b0160006101000a81548160ff021916908360038111156116a1576116a1611a26565b021790555061018082015181600c01559050508134111561174d576000336116c98434611e51565b604051600081818185875af1925050503d8060008114611705576040519150601f19603f3d011682016040523d82523d6000602084013e61170a565b606091505b505090508061174b5760405162461bcd60e51b815260206004820152600d60248201526c1499599d5b990819985a5b1959609a1b6044820152606401610503565b505b807f66758ef8640c4aa17a6ec061bbaca9a57e42a5994d33cddef882d4a15738af388e8e89898e8e60405161178796959493929190611fd5565b60405180910390a250505050505050505050505050565b600081815260026020526040812081600b82015460ff1660038111156117c6576117c6611a26565b1480156117d7575080600901544210155b80156117e7575080600a01544211155b8015610ea3575080600701548160080154109392505050565b6118086118a7565b6001600160a01b03811661183257604051631e4fbdf760e01b815260006004820152602401610503565b61117a816118fe565b6001600160a01b03811660009081526004602090815260409182902080548351818402810184019094528084526060939283018282801561189b57602002820191906000526020600020905b815481526020019060010190808311611887575b50505050509050919050565b6000546001600160a01b03163314610ebc5760405163118cdaa760e01b8152336004820152602401610503565b6002600154036118f757604051633ee5aeb560e01b815260040160405180910390fd5b6002600155565b600080546001600160a01b038381166001600160a01b0319831681178455604051919092169283917f8be0079c531659141344cd1fd0a4f28419497f9722a3daafe3b4186f6b6457e09190a35050565b604051806101a001604052806000815260200160608152602001606081526020016000815260200160008152602001600081526020016000815260200160008152602001600081526020016000815260200160008152602001600060038111156119ba576119ba611a26565b8152602001600081525090565b6000602082840312156119d957600080fd5b5035919050565b6000815180845260005b81811015611a06576020818501810151868301820152016119ea565b506000602082860101526020601f19601f83011685010191505092915050565b634e487b7160e01b600052602160045260246000fd5b60048110611a5a57634e487b7160e01b600052602160045260246000fd5b9052565b6020815281516020820152600060208301516101a0806040850152611a876101c08501836119e0565b91506040850151601f19858403016060860152611aa483826119e0565b92505060608501516080850152608085015160a085015260a085015160c085015260c085015160e085015260e0850151610100818187015280870151915050610120818187015280870151915050610140818187015280870151915050610160818187015280870151915050610180611b1f81870183611a3c565b959095015193019290925250919050565b80356001600160a01b0381168114611b4757600080fd5b919050565b60008060408385031215611b5f57600080fd5b82359150611b6f60208401611b30565b90509250929050565b60008060008060808587031215611b8e57600080fd5b5050823594602084013594506040840135936060013592509050565b60008060408385031215611bbd57600080fd5b611bc683611b30565b946020939093013593505050565b8d81526101a060208201526000611bef6101a083018f6119e0565b8281036040840152611c01818f6119e0565b9150508b60608301528a60808301528960a08301528860c08301528760e0830152866101008301528561012083015284610140830152611c45610160830185611a3c565b826101808301529e9d5050505050505050505050505050565b60008083601f840112611c7057600080fd5b50813567ffffffffffffffff811115611c8857600080fd5b602083019150836020828501011115611ca057600080fd5b9250929050565b60008060008060008060008060008060006101208c8e031215611cc957600080fd5b67ffffffffffffffff808d351115611ce057600080fd5b611ced8e8e358f01611c5e565b909c509a5060208d0135811015611d0357600080fd5b50611d148d60208e01358e01611c5e565b9b9e9a9d509b60408101359a60608201359a506080820135995060a0820135985060c0820135975060e0820135965061010090910135945092505050565b600060208284031215611d6457600080fd5b610ea382611b30565b6020808252825182820181905260009190848201906040850190845b81811015611da557835183529284019291840191600101611d89565b50909695505050505050565b6020808252600f908201526e5461736b206e6f742061637469766560881b604082015260600190565b600181811c90821680611dee57607f821691505b602082108103611e0e57634e487b7160e01b600052602260045260246000fd5b50919050565b60208101610a518284611a3c565b634e487b7160e01b600052601160045260246000fd5b600060018201611e4a57611e4a611e22565b5060010190565b81810381811115610a5157610a51611e22565b80820180821115610a5157610a51611e22565b600082611e9457634e487b7160e01b600052601260045260246000fd5b500490565b8082028115828204841417610a5157610a51611e22565b634e487b7160e01b600052604160045260246000fd5b601f821115611f1057600081815260208120601f850160051c81016020861015611eed5750805b601f850160051c820191505b81811015611f0c57828155600101611ef9565b5050505b505050565b815167ffffffffffffffff811115611f2f57611f2f611eb0565b611f4381611f3d8454611dda565b84611ec6565b602080601f831160018114611f785760008415611f605750858301515b600019600386901b1c1916600185901b178555611f0c565b600085815260208120601f198616915b82811015611fa757888601518255948401946001909101908401611f88565b5085821015611fc55787850151600019600388901b60f8161c191681555b5050505050600190811b01905550565b60a081528560a0820152858760c0830137600060c08783010152600060c0601f19601f890116830101905085602083015284604083015283606083015282608083015297965050505050505056fea2646970667358221220fef0491ab2ee2f437ca80e487c599d15e8bf09a6f6545d00466fdaeafa0e982064736f6c63430008140033",
  "linkReferences": {},
  "deployedLinkReferences": {}
}