{
  "_format": "hh-sol-artifact-1",
  "contractName": "TravelCheckStaking",
  "sourceName": "contracts/TravelCheckStaking.sol",
  "abi": [
    {
      "inputs": [
        {
          "internalType": "address",
          "name": "initialOwner",
          "type": "address"
        }
      ],
      "stateMutability": "payable",
      "type": "constructor"
    },
    {
      "inputs": [
        {
          "internalType": "address",
          "name": "owner",
          "type": "address"
        }
      ],
      "name": "OwnableInvalidOwner",
      "type": "error"
    },
    {
      "inputs": [
        {
          "internalType": "address",
          "name": "account",
          "type": "address"
        }
      ],
      "name": "OwnableUnauthorizedAccount",
      "type": "error"
    },
    {
      "inputs": [],
      "name": "ReentrancyGuardReentrantCall",
      "type": "error"
    },
    {
      "anonymous": false,
      "inputs": [
        {
          "indexed": true,
          "internalType": "uint256",
          "name": "stakeId",
          "type": "uint256"
        },
        {
          "indexed": false,
          "internalType": "uint256",
          "name": "checkedDays",
          "type": "uint256"
        },
        {
          "indexed": false,
          "internalType": "bytes32",
          "name": "contentHash",
          "type": "bytes32"
        },
        {
          "indexed": false,
          "internalType": "int256",
          "name": "latitude",
          "type": "int256"
        },
        {
          "indexed": false,
          "internalType": "int256",
          "name": "longitude",
          "type": "int256"
        }
      ],
      "name": "CheckedIn",
      "type": "event"
    },
    {
      "anonymous": false,
      "inputs": [
        {
          "indexed": true,
          "internalType": "uint256",
          "name": "stakeId",
          "type": "uint256"
        },
        {
          "indexed": false,
          "internalType": "uint256",
          "name": "interest",
          "type": "uint256"
        }
      ],
      "name": "InterestCalculated",
      "type": "event"
    },
    {
      "anonymous": false,
      "inputs": [
        {
          "indexed": true,
          "internalType": "address",
          "name": "previousOwner",
          "type": "address"
        },
        {
          "indexed": true,
          "internalType": "address",
          "name": "newOwner",
          "type": "address"
        }
      ],
      "name": "OwnershipTransferred",
      "type": "event"
    },
    {
      "anonymous": false,
      "inputs": [
        {
          "indexed": true,
          "internalType": "uint256",
          "name": "stakeId",
          "type": "uint256"
        },
        {
          "indexed": true,
          "internalType": "uint256",
          "name": "checkinIndex",
          "type": "uint256"
        },
        {
          "indexed": true,
          "internalType": "address",
          "name": "user",
          "type": "address"
        },
        {
          "indexed": false,
          "internalType": "uint256",
          "name": "amount",
          "type": "uint256"
        }
      ],
      "name": "RedPacketClaimed",
      "type": "event"
    },
    {
      "anonymous": false,
      "inputs": [
        {
          "indexed": true,
          "internalType": "uint256",
          "name": "index",
          "type": "uint256"
        },
        {
          "indexed": false,
          "internalType": "uint256",
          "name": "progressBps",
          "type": "uint256"
        },
        {
          "indexed": false,
          "internalType": "uint256",
          "name": "maxRateBps",
          "type": "uint256"
        }
      ],
      "name": "RedPacketTierUpdated",
      "type": "event"
    },
    {
      "anonymous": false,
      "inputs": [
        {
          "indexed": true,
          "internalType": "uint256",
          "name": "stakeId",
          "type": "uint256"
        },
        {
          "indexed": true,
          "internalType": "address",
          "name": "user",
          "type": "address"
        },
        {
          "indexed": false,
          "internalType": "enum TravelCheckStaking.StakeType",
          "name": "stakeType",
          "type": "uint8"
        },
        {
          "indexed": false,
          "internalType": "uint256",
          "name": "amount",
          "type": "uint256"
        },
        {
          "indexed": false,
          "internalType": "uint256",
          "name": "milestone",
          "type": "uint256"
        },
        {
          "indexed": false,
          "internalType": "enum TravelCheckStaking.StakeMode",
          "name": "mode",
          "type": "uint8"
        }
      ],
      "name": "StakeCreated",
      "type": "event"
    },
    {
      "anonymous": false,
      "inputs": [
        {
          "indexed": true,
          "internalType": "uint256",
          "name": "stakeId",
          "type": "uint256"
        },
        {
          "indexed": false,
          "internalType": "uint256",
          "name": "totalAmount",
          "type": "uint256"
        }
      ],
      "name": "StakeWithdrawn",
      "type": "event"
    },
    {
      "inputs": [],
      "name": "BASIS_POINTS",
      "outputs": [
        {
          "internalType": "uint256",
          "name": "",
          "type": "uint256"
        }
      ],
      "stateMutability": "view",
      "type": "function"
    },
    {
      "inputs": [],
      "name": "MAX_STAKE_AMOUNT",
      "outputs": [
        {
          "internalType": "uint256",
          "name": "",
          "type": "uint256"
        }
      ],
      "stateMutability": "view",
      "type": "function"
    },
    {
      "inputs": [],
      "name": "MIN_RED_PACKET_RATE",
      "outputs": [
        {
          "internalType": "uint256",
          "name": "",
          "type": "uint256"
        }
      ],
      "stateMutability": "view",
      "type": "function"
    },
    {
      "inputs": [],
      "name": "MIN_STAKE_AMOUNT",
      "outputs": [
        {
          "internalType": "uint256",
          "name": "",
          "type": "uint256"
        }
      ],
      "stateMutability": "view",
      "type": "function"
    },
    {
      "inputs": [],
      "name": "RED_PACKET_EXPIRY",
      "outputs": [
        {
          "internalType": "uint256",
          "name": "",
          "type": "uint256"
        }
      ],
      "stateMutability": "view",
      "type": "function"
    },
    {
      "inputs": [
        {
          "internalType": "uint256",
          "name": "progressBps",
          "type": "uint256"
        },
        {
          "internalType": "uint256",
          "name": "maxRateBps",
          "type": "uint256"
        }
      ],
      "name": "addRedPacketTier",
      "outputs": [],
      "stateMutability": "nonpayable",
      "type": "function"
    },
    {
      "inputs": [
        {
          "internalType": "uint256",
          "name": "",
          "type": "uint256"
        }
      ],
      "name": "anytimeRates",
      "outputs": [
        {
          "internalType": "uint256",
          "name": "",
          "type": "uint256"
        }
      ],
      "stateMutability": "view",
      "type": "function"
    },
    {
      "inputs": [
        {
          "internalType": "uint256",
          "name": "stakeId",
          "type": "uint256"
        }
      ],
      "name": "calculateInterest",
      "outputs": [
        {
          "internalType": "uint256",
          "name": "",
          "type": "uint256"
        }
      ],
      "stateMutability": "view",
      "type": "function"
    },
    {
      "inputs": [
        {
          "internalType": "uint256",
          "name": "stakeId",
          "type": "uint256"
        },
        {
          "internalType": "bytes32",
          "name": "contentHash",
          "type": "bytes32"
        },
        {
          "internalType": "int256",
          "name": "latitude",
          "type": "int256"
        },
        {
          "internalType": "int256",
          "name": "longitude",
          "type": "int256"
        }
      ],
      "name": "checkIn",
      "outputs": [],
      "stateMutability": "nonpayable",
      "type": "function"
    },
    {
      "inputs": [
        {
          "internalType": "uint256",
          "name": "",
          "type": "uint256"
        },
        {
          "internalType": "uint256",
          "name": "",
          "type": "uint256"
        }
      ],
      "name": "checkinRecords",
      "outputs": [
        {
          "internalType": "uint256",
          "name": "timestamp",
          "type": "uint256"
        },
        {
          "internalType": "bytes32",
          "name": "contentHash",
          "type": "bytes32"
        },
        {
          "internalType": "int256",
          "name": "latitude",
          "type": "int256"
        },
        {
          "internalType": "int256",
          "name": "longitude",
          "type": "int256"
        }
      ],
      "stateMutability": "view",
      "type": "function"
    },
    {
      "inputs": [
        {
          "internalType": "uint256",
          "name": "stakeId",
          "type": "uint256"
        },
        {
          "internalType": "uint256",
          "name": "checkinIndex",
          "type": "uint256"
        }
      ],
      "name": "claimRedPacket",
      "outputs": [],
      "stateMutability": "nonpayable",
      "type": "function"
    },
    {
      "inputs": [
        {
          "internalType": "enum TravelCheckStaking.StakeType",
          "name": "stakeType",
          "type": "uint8"
        },
        {
          "internalType": "uint256",
          "name": "milestone",
          "type": "uint256"
        },
        {
          "internalType": "enum TravelCheckStaking.StakeMode",
          "name": "mode",
          "type": "uint8"
        }
      ],
      "name": "createStake",
      "outputs": [
        {
          "internalType": "uint256",
          "name": "",
          "type": "uint256"
        }
      ],
      "stateMutability": "payable",
      "type": "function"
    },
    {
      "inputs": [
        {
          "internalType": "uint256",
          "name": "amount",
          "type": "uint256"
        }
      ],
      "name": "emergencyWithdraw",
      "outputs": [],
      "stateMutability": "nonpayable",
      "type": "function"
    },
    {
      "inputs": [
        {
          "internalType": "uint256",
          "name": "stakeId",
          "type": "uint256"
        }
      ],
      "name": "getCheckinCount",
      "outputs": [
        {
          "internalType": "uint256",
          "name": "",
          "type": "uint256"
        }
      ],
      "stateMutability": "view",
      "type": "function"
    },
    {
      "inputs": [
        {
          "internalType": "uint256",
          "name": "stakeId",
          "type": "uint256"
        },
        {
          "internalType": "uint256",
          "name": "index",
          "type": "uint256"
        }
      ],
      "name": "getCheckinRecord",
      "outputs": [
        {
          "components": [
            {
              "internalType": "uint256",
              "name": "timestamp",
              "type": "uint256"
            },
            {
              "internalType": "bytes32",
              "name": "contentHash",
              "type": "bytes32"
            },
            {
              "internalType": "int256",
              "name": "latitude",
              "type": "int256"
            },
            {
              "internalType": "int256",
              "name": "longitude",
              "type": "int256"
            }
          ],
          "internalType": "struct TravelCheckStaking.CheckinRecord",
          "name": "",
          "type": "tuple"
        }
      ],
      "stateMutability": "view",
      "type": "function"
    },
    {
      "inputs": [
        {
          "internalType": "uint256",
          "name": "stakeId",
          "type": "uint256"
        }
      ],
      "name": "getCheckinRecords",
      "outputs": [
        {
          "components": [
            {
              "internalType": "uint256",
              "name": "timestamp",
              "type": "uint256"
            },
            {
              "internalType": "bytes32",
              "name": "contentHash",
              "type": "bytes32"
            },
            {
              "internalType": "int256",
              "name": "latitude",
              "type": "int256"
            },
            {
              "internalType": "int256",
              "name": "longitude",
              "type": "int256"
            }
          ],
          "internalType": "struct TravelCheckStaking.CheckinRecord[]",
          "name": "",
          "type": "tuple[]"
        }
      ],
      "stateMutability": "view",
      "type": "function"
    },
    {
      "inputs": [
        {
          "internalType": "uint256",
          "name": "stakeId",
          "type": "uint256"
        }
      ],
      "name": "getMaxRedPacketAmount",
      "outputs": [
        {
          "internalType": "uint256",
          "name": "",
          "type": "uint256"
        }
      ],
      "stateMutability": "view",
      "type": "function"
    },
    {
      "inputs": [
        {
          "internalType": "uint256",
          "name": "index",
          "type": "uint256"
        }
      ],
      "name": "getRedPacketTier",
      "outputs": [
        {
          "components": [
            {
              "internalType": "uint256",
              "name": "progressBps",
              "type": "uint256"
            },
            {
              "internalType": "uint256",
              "name": "maxRateBps",
              "type": "uint256"
            }
          ],
          "internalType": "struct TravelCheckStaking.RedPacketTier",
          "name": "",
          "type": "tuple"
        }
      ],
      "stateMutability": "view",
      "type": "function"
    },
    {
      "inputs": [],
      "name": "getRedPacketTierCount",
      "outputs": [
        {
          "internalType": "uint256",
          "name": "",
          "type": "uint256"
        }
      ],
      "stateMutability": "view",
      "type": "function"
    },
    {
      "inputs": [
        {
          "internalType": "uint256",
          "name": "stakeId",
          "type": "uint256"
        }
      ],
      "name": "getStake",
      "outputs": [
        {
          "components": [
            {
              "internalType": "address",
              "name": "user",
              "type": "address"
            },
            {
              "internalType": "enum TravelCheckStaking.StakeType",
              "name": "stakeType",
              "type": "uint8"
            },
            {
              "internalType": "uint256",
              "name": "amount",
              "type": "uint256"
            },
            {
              "internalType": "uint256",
              "name": "milestone",
              "type": "uint256"
            },
            {
              "internalType": "enum TravelCheckStaking.StakeMode",
              "name": "mode",
              "type": "uint8"
            },
            {
              "internalType": "uint256",
              "name": "checkedDays",
              "type": "uint256"
            },
            {
              "internalType": "bool",
              "name": "isPerfect",
              "type": "bool"
            },
            {
              "internalType": "uint256",
              "name": "accumulatedInterest",
              "type": "uint256"
            },
            {
              "internalType": "enum TravelCheckStaking.StakeStatus",
              "name": "status",
              "type": "uint8"
            },
            {
              "internalType": "uint256",
              "name": "startTime",
              "type": "uint256"
            },
            {
              "internalType": "uint256",
              "name": "endTime",
              "type": "uint256"
            },
            {
              "internalType": "uint256",
              "name": "completedAt",
              "type": "uint256"
            },
            {
              "internalType": "uint256",
              "name": "withdrawnAt",
              "type": "uint256"
            }
          ],
          "internalType": "struct TravelCheckStaking.Stake",
          "name": "",
          "type": "tuple"
        }
      ],
      "stateMutability": "view",
      "type": "function"
    },
    {
      "inputs": [
        {
          "internalType": "address",
          "name": "user",
          "type": "address"
        }
      ],
      "name": "getUserStakes",
      "outputs": [
        {
          "internalType": "uint256[]",
          "name": "",
          "type": "uint256[]"
        }
      ],
      "stateMutability": "view",
      "type": "function"
    },
    {
      "inputs": [
        {
          "internalType": "uint256",
          "name": "stakeId",
          "type": "uint256"
        },
        {
          "internalType": "uint256",
          "name": "checkinIndex",
          "type": "uint256"
        }
      ],
      "name": "isRedPacketClaimed",
      "outputs": [
        {
          "internalType": "bool",
          "name": "",
          "type": "bool"
        }
      ],
      "stateMutability": "view",
      "type": "function"
    },
    {
      "inputs": [
        {
          "internalType": "uint256",
          "name": "stakeId",
          "type": "uint256"
        }
      ],
      "name": "markImperfect",
      "outputs": [],
      "stateMutability": "nonpayable",
      "type": "function"
    },
    {
      "inputs": [],
      "name": "nextStakeId",
      "outputs": [
        {
          "internalType": "uint256",
          "name": "",
          "type": "uint256"
        }
      ],
      "stateMutability": "view",
      "type": "function"
    },
    {
      "inputs": [],
      "name": "owner",
      "outputs": [
        {
          "internalType": "address",
          "name": "",
          "type": "address"
        }
      ],
      "stateMutability": "view",
      "type": "function"
    },
    {
      "inputs": [
        {
          "internalType": "uint256",
          "name": "",
          "type": "uint256"
        }
      ],
      "name": "redPacketClaimed",
      "outputs": [
        {
          "internalType": "uint256",
          "name": "",
          "type": "uint256"
        }
      ],
      "stateMutability": "view",
      "type": "function"
    },
    {
      "inputs": [
        {
          "internalType": "uint256",
          "name": "",
          "type": "uint256"
        },
        {
          "internalType": "uint256",
          "name": "",
          "type": "uint256"
        }
      ],
      "name": "redPacketClaimedByCheckin",
      "outputs": [
        {
          "internalType": "bool",
          "name": "",
          "type": "bool"
        }
      ],
      "stateMutability": "view",
      "type": "function"
    },
    {
      "inputs": [
        {
          "internalType": "uint256",
          "name": "",
          "type": "uint256"
        }
      ],
      "name": "redPacketTiers",
      "outputs": [
        {
          "internalType": "uint256",
          "name": "progressBps",
          "type": "uint256"
        },
        {
          "internalType": "uint256",
          "name": "maxRateBps",
          "type": "uint256"
        }
      ],
      "stateMutability": "view",
      "type": "function"
    },
    {
      "inputs": [],
      "name": "renounceOwnership",
      "outputs": [],
      "stateMutability": "nonpayable",
      "type": "function"
    },
    {
      "inputs": [
        {
          "internalType": "uint256",
          "name": "",
          "type": "uint256"
        }
      ],
      "name": "sealedRates",
      "outputs": [
        {
          "internalType": "uint256",
          "name": "",
          "type": "uint256"
        }
      ],
      "stateMutability": "view",
      "type": "function"
    },
    {
      "inputs": [
        {
          "internalType": "uint256",
          "name": "",
          "type": "uint256"
        }
      ],
      "name": "stakes",
      "outputs": [
        {
          "internalType": "address",
          "name": "user",
          "type": "address"
        },
        {
          "internalType": "enum TravelCheckStaking.StakeType",
          "name": "stakeType",
          "type": "uint8"
        },
        {
          "internalType": "uint256",
          "name": "amount",
          "type": "uint256"
        },
        {
          "internalType": "uint256",
          "name": "milestone",
          "type": "uint256"
        },
        {
          "internalType": "enum TravelCheckStaking.StakeMode",
          "name": "mode",
          "type": "uint8"
        },
        {
          "internalType": "uint256",
          "name": "checkedDays",
          "type": "uint256"
        },
        {
          "internalType": "bool",
          "name": "isPerfect",
          "type": "bool"
        },
        {
          "internalType": "uint256",
          "name": "accumulatedInterest",
          "type": "uint256"
        },
        {
          "internalType": "enum TravelCheckStaking.StakeStatus",
          "name": "status",
          "type": "uint8"
        },
        {
          "internalType": "uint256",
          "name": "startTime",
          "type": "uint256"
        },
        {
          "internalType": "uint256",
          "name": "endTime",
          "type": "uint256"
        },
        {
          "internalType": "uint256",
          "name": "completedAt",
          "type": "uint256"
        },
        {
          "internalType": "uint256",
          "name": "withdrawnAt",
          "type": "uint256"
        }
      ],
      "stateMutability": "view",
      "type": "function"
    },
    {
      "inputs": [
        {
          "internalType": "address",
          "name": "newOwner",
          "type": "address"
        }
      ],
      "name": "transferOwnership",
      "outputs": [],
      "stateMutability": "nonpayable",
      "type": "function"
    },
    {
      "inputs": [
        {
          "internalType": "uint256",
          "name": "index",
          "type": "uint256"
        },
        {
          "internalType": "uint256",
          "name": "progressBps",
          "type": "uint256"
        },
        {
          "internalType": "uint256",
          "name": "maxRateBps",
          "type": "uint256"
        }
      ],
      "name": "updateRedPacketTier",
      "outputs": [],
      "stateMutability": "nonpayable",
      "type": "function"
    },
    {
      "inputs": [
        {
          "internalType": "address",
          "name": "",
          "type": "address"
        },
        {
          "internalType": "uint256",
          "name": "",
          "type": "uint256"
        }
      ],
      "name": "userStakes",
      "outputs": [
        {
          "internalType": "uint256",
          "name": "",
          "type": "uint256"
        }
      ],
      "stateMutability": "view",
      "type": "function"
    },
    {
      "inputs": [
        {
          "internalType": "uint256",
          "name": "stakeId",
          "type": "uint256"
        }
      ],
      "name": "withdraw",
      "outputs": [],
      "stateMutability": "nonpayable",
      "type": "function"
    },
    {
      "stateMutability": "payable",
      "type": "receive"
    }
  ],
  "bytecode": "0x60806040526040516200273038038062002730833981016040819052620000269162000328565b806001600160a01b0381166200005657604051631e4fbdf760e01b81526000600482015260240160405180910390fd5b6200006181620002d8565b505060018080556101f47fd3604db978f6137b0d18816b77b2ce810487a3af08a922e0b184963be5f3adfc8190556103207f50d9dffd10eb4437a15e8bb1c50afee98ea231805f136fb9a057e7aaeec448ae556105787f6ea47ca2f9e3a67b0e336c514aa9f125109f49309b7162caec32e7d27e5c838c556107d07f6d00efa09a7071d855bc5fb7d93921fbf02f2c4e3992802f2a9b08050cf48ea88190556003602090815260fa7f9dcb9783ba5cd0b54745f65f4f918525e461e91888c334e5342cb380ac558d53556101907f0ffe031ee7f67944a037276fd51f48fcc2fe05a729c43144606bc8777da8014f556102bc7f6117fee2f1274e1b392d2c3fe842478040a980d896757f38cbfe2ceebfa9f55f556103e87f3ba015d6b845e102ce2f76836007be82508e3543856f2a3c2ff4b56eb46d920e8190556040805180820182529384526064848401908152600a805480890182556000828152965160029182027fc65a7bb8d6351c1cf70c95a316cc6a92839c986682d98bc35f958f4883f9d2a88181019290925593517fc65a7bb8d6351c1cf70c95a316cc6a92839c986682d98bc35f958f4883f9d2a99485015584518086018652611388815260c88189019081528454808d018655858b52915191840280840192909255519085015584518086018652611f40815261012c8189019081528454808d018655858b529151918402808401929092555190850155845180860186526126ac8152808801998a528354808c018555848a52905190830280830191909155985198840198909855835180850190945261271084529483019384528054978801815590945251949091029283019390935591519101556200035a565b600080546001600160a01b038381166001600160a01b0319831681178455604051919092169283917f8be0079c531659141344cd1fd0a4f28419497f9722a3daafe3b4186f6b6457e09190a35050565b6000602082840312156200033b57600080fd5b81516001600160a01b03811681146200035357600080fd5b9392505050565b6123c6806200036a6000396000f3fe6080604052600436106102085760003560e01c806394e09b5211610118578063d5a44f86116100a0578063e70137011161006f578063e70137011461070f578063f2fde38b1461072f578063f5f1fc341461074f578063f6003de51461077c578063f84e91791461079c57600080fd5b8063d5a44f86146105fa578063d867bbd7146106a4578063db01134d146106b9578063e1f1c4a7146106f957600080fd5b8063b5d5b5fa116100e7578063b5d5b5fa14610540578063bb6d4e9914610560578063cbe4e2ae1461058d578063ce325bf8146105ba578063d04f7ee5146105e757600080fd5b806394e09b52146104b057806398282d34146104eb578063a57475e01461050b578063b2ed2e9c1461052b57600080fd5b806356b190961161019b57806375506c961161016a57806375506c96146103ea578063842e2981146104005780638692a5fe1461042d5780638da5cb5b1461046857806391789b651461049057600080fd5b806356b1909614610353578063584b94b6146103735780635fdfa36e146103a0578063715018a6146103d557600080fd5b80632e1a7d4d116101d75780632e1a7d4d146102ab5780632f92f1f2146102cb578063351ed36a146102e85780635312ea8e1461033357600080fd5b806311048c531461021457806327363c691461023657806327ed71881461026c5780632c7f07cf1461029457600080fd5b3661020f57005b600080fd5b34801561022057600080fd5b5061023461022f366004611e7e565b6107c9565b005b34801561024257600080fd5b50610256610251366004611e7e565b61091e565b6040516102639190611ea0565b60405180910390f35b34801561027857600080fd5b50610286655af3107a400081565b604051908152602001610263565b3480156102a057600080fd5b506102866201518081565b3480156102b757600080fd5b506102346102c6366004611ecb565b6109e3565b3480156102d757600080fd5b50610286683635c9adc5dea0000081565b3480156102f457600080fd5b50610323610303366004611e7e565b600960209081526000928352604080842090915290825290205460ff1681565b6040519015158152602001610263565b34801561033f57600080fd5b5061023461034e366004611ecb565b610c3b565b34801561035f57600080fd5b5061023461036e366004611e7e565b610d01565b34801561037f57600080fd5b5061028661038e366004611ecb565b60036020526000908152604090205481565b3480156103ac57600080fd5b506103c06103bb366004611ecb565b610f7b565b60408051928352602083019190915201610263565b3480156103e157600080fd5b50610234610fa9565b3480156103f657600080fd5b5061028660065481565b34801561040c57600080fd5b5061042061041b366004611f00565b610fbd565b6040516102639190611f1b565b34801561043957600080fd5b5061044d610448366004611ecb565b611029565b60408051825181526020928301519281019290925201610263565b34801561047457600080fd5b506000546040516001600160a01b039091168152602001610263565b34801561049c57600080fd5b506102346104ab366004611f5f565b6110a5565b3480156104bc57600080fd5b506103236104cb366004611e7e565b600091825260096020908152604080842092845291905290205460ff1690565b3480156104f757600080fd5b50610286610506366004611ecb565b6111e9565b34801561051757600080fd5b50610286610526366004611ecb565b6112cf565b34801561053757600080fd5b50610286600a81565b34801561054c57600080fd5b5061028661055b366004611f8b565b6114db565b34801561056c57600080fd5b5061028661057b366004611ecb565b60026020526000908152604090205481565b34801561059957600080fd5b506102866105a8366004611ecb565b60086020526000908152604090205481565b3480156105c657600080fd5b506105da6105d5366004611ecb565b61150c565b6040516102639190611ff8565b6102866105f53660046120c1565b6116a0565b34801561060657600080fd5b5061068b610615366004611ecb565b600460208190526000918252604090912080546001820154600283015460038401549484015460058501546006860154600787015460088801546009890154600a8a0154600b909a01546001600160a01b038a169b600160a01b909a0460ff9081169b999a98999881169896811696941693908d565b6040516102639d9c9b9a99989796959493929190612103565b3480156106b057600080fd5b50600a54610286565b3480156106c557600080fd5b506106d96106d4366004611e7e565b6119ee565b604080519485526020850193909352918301526060820152608001610263565b34801561070557600080fd5b5061028661271081565b34801561071b57600080fd5b5061023461072a366004611ecb565b611a34565b34801561073b57600080fd5b5061023461074a366004611f00565b611a57565b34801561075b57600080fd5b5061028661076a366004611ecb565b60009081526007602052604090205490565b34801561078857600080fd5b5061023461079736600461218e565b611a92565b3480156107a857600080fd5b506107bc6107b7366004611ecb565b611cab565b60405161026391906121c0565b6107d1611d45565b61271082111561081b5760405162461bcd60e51b815260206004820152601060248201526f496e76616c69642070726f677265737360801b60448201526064015b60405180910390fd5b61271081111561085c5760405162461bcd60e51b815260206004820152600c60248201526b496e76616c6964207261746560a01b6044820152606401610812565b6040805180820190915282815260208101828152600a805460018082018355600083905293517fc65a7bb8d6351c1cf70c95a316cc6a92839c986682d98bc35f958f4883f9d2a860029092029182015591517fc65a7bb8d6351c1cf70c95a316cc6a92839c986682d98bc35f958f4883f9d2a990920191909155546108e19190612239565b60408051848152602081018490527fc8b38e5a91e0eae669f65341a0d90b4f3f64741c5f1e8b2b29cf1034cd6276c7910160405180910390a25050565b61094c6040518060800160405280600081526020016000801916815260200160008152602001600081525090565b60008381526007602052604090205482106109795760405162461bcd60e51b81526004016108129061224c565b600083815260076020526040902080548390811061099957610999612273565b906000526020600020906004020160405180608001604052908160008201548152602001600182015481526020016002820154815260200160038201548152505090505b92915050565b6109eb611d72565b600081815260046020526040902080546001600160a01b03163314610a225760405162461bcd60e51b815260040161081290612289565b6002600782015460ff166002811115610a3d57610a3d611fb5565b03610a7e5760405162461bcd60e51b815260206004820152601160248201527020b63932b0b23c903bb4ba34323930bbb760791b6044820152606401610812565b6000600382015460ff166001811115610a9957610a99611fb5565b03610afc576001600782015460ff166002811115610ab957610ab9611fb5565b14610afc5760405162461bcd60e51b815260206004820152601360248201527214dd185ad9481b9bdd0818dbdb5c1b195d1959606a1b6044820152606401610812565b6000610b07836112cf565b90506000818360010154610b1b91906122b2565b60078401805460ff1916600217905542600b85015560068401839055905047811115610b895760405162461bcd60e51b815260206004820152601c60248201527f496e737566666963656e7420636f6e74726163742062616c616e6365000000006044820152606401610812565b604051600090339083908381818185875af1925050503d8060008114610bcb576040519150601f19603f3d011682016040523d82523d6000602084013e610bd0565b606091505b5050905080610bf15760405162461bcd60e51b8152600401610812906122c5565b847f3db0ca701d7c1106534c6003e5d65dae65a9cb891ad5bbb9be39c091df79d87e83604051610c2391815260200190565b60405180910390a250505050610c3860018055565b50565b610c43611d45565b80471015610c8a5760405162461bcd60e51b8152602060048201526014602482015273496e73756666696369656e742062616c616e636560601b6044820152606401610812565b600080546040516001600160a01b039091169083908381818185875af1925050503d8060008114610cd7576040519150601f19603f3d011682016040523d82523d6000602084013e610cdc565b606091505b5050905080610cfd5760405162461bcd60e51b8152600401610812906122c5565b5050565b610d09611d72565b600082815260046020526040902080546001600160a01b03163314610d405760405162461bcd60e51b815260040161081290612289565b6000838152600760205260409020548210610d955760405162461bcd60e51b8152602060048201526015602482015274092dcecc2d8d2c840c6d0cac6d6d2dc40d2dcc8caf605b1b6044820152606401610812565b600083815260096020908152604080832085845290915290205460ff1615610dff5760405162461bcd60e51b815260206004820152601a60248201527f526564207061636b657420616c726561647920636c61696d65640000000000006044820152606401610812565b60008381526009602090815260408083208584529091528120805460ff19166001179055610e2c846111e9565b90506000610e3b858584611d9c565b905080600003610e4d57505050610f72565b60008581526008602052604081208054839290610e6b9084906122b2565b909155505047811115610ec05760405162461bcd60e51b815260206004820152601d60248201527f496e73756666696369656e7420636f6e74726163742062616c616e63650000006044820152606401610812565b604051600090339083908381818185875af1925050503d8060008114610f02576040519150601f19603f3d011682016040523d82523d6000602084013e610f07565b606091505b5050905080610f285760405162461bcd60e51b8152600401610812906122c5565b336001600160a01b031685877f68a00648cc81f867c48aa3c3819695d082ad256be23ac6b9e23dcbddc21d9b3a85604051610f6591815260200190565b60405180910390a4505050505b610cfd60018055565b600a8181548110610f8b57600080fd5b60009182526020909120600290910201805460019091015490915082565b610fb1611d45565b610fbb6000611e2e565b565b6001600160a01b03811660009081526005602090815260409182902080548351818402810184019094528084526060939283018282801561101d57602002820191906000526020600020905b815481526020019060010190808311611009575b50505050509050919050565b6040805180820190915260008082526020820152600a54821061105e5760405162461bcd60e51b81526004016108129061224c565b600a828154811061107157611071612273565b9060005260206000209060020201604051806040016040529081600082015481526020016001820154815250509050919050565b6110ad611d45565b600a5483106110ce5760405162461bcd60e51b81526004016108129061224c565b6127108211156111135760405162461bcd60e51b815260206004820152601060248201526f496e76616c69642070726f677265737360801b6044820152606401610812565b6127108111156111545760405162461bcd60e51b815260206004820152600c60248201526b496e76616c6964207261746560a01b6044820152606401610812565b604051806040016040528083815260200182815250600a848154811061117c5761117c612273565b90600052602060002090600202016000820151816000015560208201518160010155905050827fc8b38e5a91e0eae669f65341a0d90b4f3f64741c5f1e8b2b29cf1034cd6276c783836040516111dc929190918252602082015260400190565b60405180910390a2505050565b60008181526004602052604081206001810154820361120b5750600092915050565b60008160020154612710836004015461122491906122ee565b61122e919061231b565b9050600a60005b600a548110156112a857600a818154811061125257611252612273565b906000526020600020906002020160000154831161129657600a818154811061127d5761127d612273565b90600052602060002090600202016001015491506112a8565b806112a08161232f565b915050611235565b506127108184600101546112bc91906122ee565b6112c6919061231b565b95945050505050565b600081815260046020908152604080832081516101a0810190925280546001600160a01b03811683528493830190600160a01b900460ff16600181111561131857611318611fb5565b600181111561132957611329611fb5565b8152600182810154602083015260028301546040830152600383015460609092019160ff169081111561135e5761135e611fb5565b600181111561136f5761136f611fb5565b815260048201546020820152600582015460ff908116151560408301526006830154606083015260078301546080909201911660028111156113b3576113b3611fb5565b60028111156113c4576113c4611fb5565b81526008820154602082015260098201546040820152600a8201546060820152600b9091015460809091015290506000808260800151600181111561140b5761140b611fb5565b1461142957606082015160009081526003602052604090205461143e565b60608201516000908152600260205260409020545b9050600082606001516127108460a0015161145991906122ee565b611463919061231b565b90506000611473612710806122ee565b8284866040015161148491906122ee565b61148e91906122ee565b611498919061231b565b90508360c001511580156114c157506000846080015160018111156114bf576114bf611fb5565b145b156112c6576114d160028261231b565b9695505050505050565b600560205281600052604060002081815481106114f757600080fd5b90600052602060002001600091509150505481565b611578604080516101a081018252600080825260208201819052918101829052606081018290526080810182905260a0810182905260c0810182905260e08101829052906101008201908152602001600081526020016000815260200160008152602001600081525090565b60008281526004602090815260409182902082516101a0810190935280546001600160a01b03811684529091830190600160a01b900460ff1660018111156115c2576115c2611fb5565b60018111156115d3576115d3611fb5565b8152600182810154602083015260028301546040830152600383015460609092019160ff169081111561160857611608611fb5565b600181111561161957611619611fb5565b815260048201546020820152600582015460ff9081161515604083015260068301546060830152600783015460809092019116600281111561165d5761165d611fb5565b600281111561166e5761166e611fb5565b81526008820154602082015260098201546040820152600a8201546060820152600b9091015460809091015292915050565b60006116aa611d72565b34655af3107a40008110156116f25760405162461bcd60e51b815260206004820152600e60248201526d416d6f756e7420746f6f206c6f7760901b6044820152606401610812565b683635c9adc5dea0000081111561173d5760405162461bcd60e51b815260206004820152600f60248201526e082dadeeadce840e8dede40d0d2ced608b1b6044820152606401610812565b83600a148061174c5750836014145b80611757575083601e145b806117625750836032145b6117a25760405162461bcd60e51b8152602060048201526011602482015270496e76616c6964206d696c6573746f6e6560781b6044820152606401610812565b60068054600091826117b38361232f565b919050559050604051806101a00160405280336001600160a01b031681526020018760018111156117e6576117e6611fb5565b815260200183815260200186815260200185600181111561180957611809611fb5565b8152600060208201819052600160408301526060820181905260808201524260a082015260c00161183d87620151806122ee565b61184790426122b2565b815260006020808301829052604092830182905284825260048152919020825181546001600160a01b039091166001600160a01b031982168117835592840151919283916001600160a81b03191617600160a01b8360018111156118ad576118ad611fb5565b0217905550604082015181600101556060820151816002015560808201518160030160006101000a81548160ff021916908360018111156118f0576118f0611fb5565b021790555060a0820151600482015560c082015160058201805491151560ff1992831617905560e083015160068301556101008301516007830180549192909116600183600281111561194557611945611fb5565b021790555061012082015160088201556101408201516009820155610160820151600a82015561018090910151600b90910155336000818152600560209081526040808320805460018101825590845291909220018390555182907f5c37d87e2c15979bf7deed864258000565917a14d1f7f534bf4b646317f66786906119d3908a9087908b908b90612348565b60405180910390a39150506119e760018055565b9392505050565b60076020528160005260406000208181548110611a0a57600080fd5b60009182526020909120600490910201805460018201546002830154600390930154919450925084565b611a3c611d45565b6000908152600460205260409020600501805460ff19169055565b611a5f611d45565b6001600160a01b038116611a8957604051631e4fbdf760e01b815260006004820152602401610812565b610c3881611e2e565b600084815260046020526040902080546001600160a01b03163314611ac95760405162461bcd60e51b815260040161081290612289565b6000600782015460ff166002811115611ae457611ae4611fb5565b14611b245760405162461bcd60e51b815260206004820152601060248201526f5374616b65206e6f742061637469766560801b6044820152606401610812565b8060020154816004015410611b6f5760405162461bcd60e51b8152602060048201526011602482015270105b1c9958591e4818dbdb5c1b195d1959607a1b6044820152606401610812565b600481018054906000611b818361232f565b90915550506000858152600760209081526040808320815160808101835242815280840189815292810188815260608201888152835460018181018655948852958720925160049096029092019485559251918401919091559051600283015551600390910155611bf1866112cf565b6006830181905560405181815290915086907ffdae3b63504b472b74888d630fc4c667939a8a5652498ee9a83dc115f01a71b39060200160405180910390a28160020154826004015410611c555760078201805460ff1916600117905542600a8301555b6004820154604080519182526020820187905281018590526060810184905286907f9e051fc45d753de63fed3ffb74ee238db827aa97557eb333c721eb5d50ac9ef99060800160405180910390a2505050505050565b606060076000838152602001908152602001600020805480602002602001604051908101604052809291908181526020016000905b82821015611d3a578382906000526020600020906004020160405180608001604052908160008201548152602001600182015481526020016002820154815260200160038201548152505081526020019060010190611ce0565b505050509050919050565b6000546001600160a01b03163314610fbb5760405163118cdaa760e01b8152336004820152602401610812565b600260015403611d9557604051633ee5aeb560e01b815260040160405180910390fd5b6002600155565b600081600003611dae575060006119e7565b6040805142602080830191909152448284015260608083018890526080830187905233901b6bffffffffffffffffffffffff191660a08301528251808303609401815260b490920190925280519101206000611e0b605b8361237c565b611e1690600a6122b2565b90506064611e2482866122ee565b6114d1919061231b565b600080546001600160a01b038381166001600160a01b0319831681178455604051919092169283917f8be0079c531659141344cd1fd0a4f28419497f9722a3daafe3b4186f6b6457e09190a35050565b60008060408385031215611e9157600080fd5b50508035926020909101359150565b81518152602080830151908201526040808301519082015260608083015190820152608081016109dd565b600060208284031215611edd57600080fd5b5035919050565b80356001600160a01b0381168114611efb57600080fd5b919050565b600060208284031215611f1257600080fd5b6119e782611ee4565b6020808252825182820181905260009190848201906040850190845b81811015611f5357835183529284019291840191600101611f37565b50909695505050505050565b600080600060608486031215611f7457600080fd5b505081359360208301359350604090920135919050565b60008060408385031215611f9e57600080fd5b611fa783611ee4565b946020939093013593505050565b634e487b7160e01b600052602160045260246000fd5b60028110610c3857610c38611fb5565b611fe481611fcb565b9052565b60038110611fe457611fe4611fb5565b81516001600160a01b031681526101a08101602083015161201c6020840182611fdb565b50604083015160408301526060830151606083015260808301516120436080840182611fdb565b5060a083015160a083015260c083015161206160c084018215159052565b5060e083015160e08301526101008084015161207f82850182611fe8565b505061012083810151908301526101408084015190830152610160808401519083015261018092830151929091019190915290565b60028110610c3857600080fd5b6000806000606084860312156120d657600080fd5b83356120e1816120b4565b92506020840135915060408401356120f8816120b4565b809150509250925092565b6001600160a01b038e1681526101a0810161211d8e611fcb565b8d60208301528c60408301528b60608301526121388b611fcb565b8a60808301528960a083015288151560c08301528760e0830152612160610100830188611fe8565b856101208301528461014083015283610160830152826101808301529e9d5050505050505050505050505050565b600080600080608085870312156121a457600080fd5b5050823594602084013594506040840135936060013592509050565b6020808252825182820181905260009190848201906040850190845b81811015611f5357612210838551805182526020810151602083015260408101516040830152606081015160608301525050565b92840192608092909201916001016121dc565b634e487b7160e01b600052601160045260246000fd5b818103818111156109dd576109dd612223565b6020808252600d908201526c092dcecc2d8d2c840d2dcc8caf609b1b604082015260600190565b634e487b7160e01b600052603260045260246000fd5b6020808252600f908201526e2737ba1039ba30b5b29037bbb732b960891b604082015260600190565b808201808211156109dd576109dd612223565b6020808252600f908201526e151c985b9cd9995c8819985a5b1959608a1b604082015260600190565b80820281158282048414176109dd576109dd612223565b634e487b7160e01b600052601260045260246000fd5b60008261232a5761232a612305565b500490565b60006001820161234157612341612223565b5060010190565b6080810161235586611fcb565b85825284602083015283604083015261236d83611fcb565b82606083015295945050505050565b60008261238b5761238b612305565b50069056fea264697066735822122004b6c27fefbcfe42a5b04516696b561676b29df77f131da62e6fa4369838a57e64736f6c63430008140033",
  "linkReferences": {},
  "deployedLinkReferences": {}
}