{
  "_format": "hh-sol-artifact-1",
  "contractName": "TravelCheckStaking",
  "sourceName": "contracts/TravelCheckStaking.sol",
  "abi": [
    {
      "inputs": [
        {
          "internalType": "address",
          "name": "initialOwner",
          "type": "address"
        },
        {
          "internalType": "address",
          "name": "_signer",
          "type": "address"
        }
      ],
      "stateMutability": "nonpayable",
      "type": "constructor"
    },
    {
      "inputs": [
        {
          "internalType": "address",
          "name": "owner",
          "type": "address"
        }
      ],
      "name": "OwnableInvalidOwner",
      "type": "error"
    },
    {
      "inputs": [
        {
          "internalType": "address",
          "name": "account",
          "type": "address"
        }
      ],
      "name": "OwnableUnauthorizedAccount",
      "type": "error"
    },
    {
      "inputs": [],
      "name": "ReentrancyGuardReentrantCall",
      "type": "error"
    },
    {
      "anonymous": false,
      "inputs": [
        {
          "indexed": true,
          "internalType": "uint256",
          "name": "stakeId",
          "type": "uint256"
        },
        {
          "indexed": false,
          "internalType": "uint256",
          "name": "checkedDays",
          "type": "uint256"
        },
        {
          "indexed": false,
          "internalType": "bytes32",
          "name": "contentHash",
          "type": "bytes32"
        },
        {
          "indexed": false,
          "internalType": "int256",
          "name": "latitude",
          "type": "int256"
        },
        {
          "indexed": false,
          "internalType": "int256",
          "name": "longitude",
          "type": "int256"
        }
      ],
      "name": "CheckedIn",
      "type": "event"
    },
    {
      "anonymous": false,
      "inputs": [
        {
          "indexed": true,
          "internalType": "uint256",
          "name": "stakeId",
          "type": "uint256"
        },
        {
          "indexed": false,
          "internalType": "uint256",
          "name": "interest",
          "type": "uint256"
        }
      ],
      "name": "InterestCalculated",
      "type": "event"
    },
    {
      "anonymous": false,
      "inputs": [
        {
          "indexed": true,
          "internalType": "address",
          "name": "previousOwner",
          "type": "address"
        },
        {
          "indexed": true,
          "internalType": "address",
          "name": "newOwner",
          "type": "address"
        }
      ],
      "name": "OwnershipTransferred",
      "type": "event"
    },
    {
      "anonymous": false,
      "inputs": [
        {
          "indexed": true,
          "internalType": "uint256",
          "name": "stakeId",
          "type": "uint256"
        },
        {
          "indexed": true,
          "internalType": "uint256",
          "name": "checkinIndex",
          "type": "uint256"
        },
        {
          "indexed": true,
          "internalType": "address",
          "name": "user",
          "type": "address"
        },
        {
          "indexed": false,
          "internalType": "uint256",
          "name": "amount",
          "type": "uint256"
        }
      ],
      "name": "RedPacketClaimed",
      "type": "event"
    },
    {
      "anonymous": false,
      "inputs": [
        {
          "indexed": true,
          "internalType": "uint256",
          "name": "index",
          "type": "uint256"
        },
        {
          "indexed": false,
          "internalType": "uint256",
          "name": "progressBps",
          "type": "uint256"
        },
        {
          "indexed": false,
          "internalType": "uint256",
          "name": "maxRateBps",
          "type": "uint256"
        }
      ],
      "name": "RedPacketTierUpdated",
      "type": "event"
    },
    {
      "anonymous": false,
      "inputs": [
        {
          "indexed": true,
          "internalType": "address",
          "name": "newSigner",
          "type": "address"
        }
      ],
      "name": "SignerUpdated",
      "type": "event"
    },
    {
      "anonymous": false,
      "inputs": [
        {
          "indexed": true,
          "internalType": "uint256",
          "name": "stakeId",
          "type": "uint256"
        },
        {
          "indexed": true,
          "internalType": "address",
          "name": "user",
          "type": "address"
        },
        {
          "indexed": false,
          "internalType": "enum TravelCheckStaking.StakeType",
          "name": "stakeType",
          "type": "uint8"
        },
        {
          "indexed": false,
          "internalType": "uint256",
          "name": "amount",
          "type": "uint256"
        },
        {
          "indexed": false,
          "internalType": "uint256",
          "name": "milestone",
          "type": "uint256"
        },
        {
          "indexed": false,
          "internalType": "enum TravelCheckStaking.StakeMode",
          "name": "mode",
          "type": "uint8"
        }
      ],
      "name": "StakeCreated",
      "type": "event"
    },
    {
      "anonymous": false,
      "inputs": [
        {
          "indexed": true,
          "internalType": "uint256",
          "name": "stakeId",
          "type": "uint256"
        },
        {
          "indexed": false,
          "internalType": "uint256",
          "name": "totalAmount",
          "type": "uint256"
        }
      ],
      "name": "StakeWithdrawn",
      "type": "event"
    },
    {
      "inputs": [],
      "name": "BASIS_POINTS",
      "outputs": [
        {
          "internalType": "uint256",
          "name": "",
          "type": "uint256"
        }
      ],
      "stateMutability": "view",
      "type": "function"
    },
    {
      "inputs": [],
      "name": "MAX_STAKE_AMOUNT",
      "outputs": [
        {
          "internalType": "uint256",
          "name": "",
          "type": "uint256"
        }
      ],
      "stateMutability": "view",
      "type": "function"
    },
    {
      "inputs": [],
      "name": "MIN_RED_PACKET_RATE",
      "outputs": [
        {
          "internalType": "uint256",
          "name": "",
          "type": "uint256"
        }
      ],
      "stateMutability": "view",
      "type": "function"
    },
    {
      "inputs": [],
      "name": "MIN_STAKE_AMOUNT",
      "outputs": [
        {
          "internalType": "uint256",
          "name": "",
          "type": "uint256"
        }
      ],
      "stateMutability": "view",
      "type": "function"
    },
    {
      "inputs": [],
      "name": "RED_PACKET_EXPIRY",
      "outputs": [
        {
          "internalType": "uint256",
          "name": "",
          "type": "uint256"
        }
      ],
      "stateMutability": "view",
      "type": "function"
    },
    {
      "inputs": [
        {
          "internalType": "uint256",
          "name": "progressBps",
          "type": "uint256"
        },
        {
          "internalType": "uint256",
          "name": "maxRateBps",
          "type": "uint256"
        }
      ],
      "name": "addRedPacketTier",
      "outputs": [],
      "stateMutability": "nonpayable",
      "type": "function"
    },
    {
      "inputs": [
        {
          "internalType": "uint256",
          "name": "",
          "type": "uint256"
        }
      ],
      "name": "anytimeRates",
      "outputs": [
        {
          "internalType": "uint256",
          "name": "",
          "type": "uint256"
        }
      ],
      "stateMutability": "view",
      "type": "function"
    },
    {
      "inputs": [
        {
          "internalType": "uint256",
          "name": "stakeId",
          "type": "uint256"
        }
      ],
      "name": "calculateInterest",
      "outputs": [
        {
          "internalType": "uint256",
          "name": "",
          "type": "uint256"
        }
      ],
      "stateMutability": "view",
      "type": "function"
    },
    {
      "inputs": [
        {
          "internalType": "uint256",
          "name": "stakeId",
          "type": "uint256"
        },
        {
          "internalType": "bytes32",
          "name": "contentHash",
          "type": "bytes32"
        },
        {
          "internalType": "int256",
          "name": "latitude",
          "type": "int256"
        },
        {
          "internalType": "int256",
          "name": "longitude",
          "type": "int256"
        }
      ],
      "name": "checkIn",
      "outputs": [],
      "stateMutability": "nonpayable",
      "type": "function"
    },
    {
      "inputs": [
        {
          "internalType": "uint256",
          "name": "",
          "type": "uint256"
        },
        {
          "internalType": "uint256",
          "name": "",
          "type": "uint256"
        }
      ],
      "name": "checkinRecords",
      "outputs": [
        {
          "internalType": "uint256",
          "name": "timestamp",
          "type": "uint256"
        },
        {
          "internalType": "bytes32",
          "name": "contentHash",
          "type": "bytes32"
        },
        {
          "internalType": "int256",
          "name": "latitude",
          "type": "int256"
        },
        {
          "internalType": "int256",
          "name": "longitude",
          "type": "int256"
        }
      ],
      "stateMutability": "view",
      "type": "function"
    },
    {
      "inputs": [
        {
          "internalType": "uint256",
          "name": "stakeId",
          "type": "uint256"
        },
        {
          "internalType": "uint256",
          "name": "checkinIndex",
          "type": "uint256"
        },
        {
          "internalType": "uint256",
          "name": "amount",
          "type": "uint256"
        },
        {
          "internalType": "uint256",
          "name": "expiry",
          "type": "uint256"
        },
        {
          "internalType": "bytes",
          "name": "signature",
          "type": "bytes"
        }
      ],
      "name": "claimRedPacket",
      "outputs": [],
      "stateMutability": "nonpayable",
      "type": "function"
    },
    {
      "inputs": [
        {
          "internalType": "enum TravelCheckStaking.StakeType",
          "name": "stakeType",
          "type": "uint8"
        },
        {
          "internalType": "uint256",
          "name": "milestone",
          "type": "uint256"
        },
        {
          "internalType": "enum TravelCheckStaking.StakeMode",
          "name": "mode",
          "type": "uint8"
        }
      ],
      "name": "createStake",
      "outputs": [
        {
          "internalType": "uint256",
          "name": "",
          "type": "uint256"
        }
      ],
      "stateMutability": "payable",
      "type": "function"
    },
    {
      "inputs": [
        {
          "internalType": "uint256",
          "name": "amount",
          "type": "uint256"
        }
      ],
      "name": "emergencyWithdraw",
      "outputs": [],
      "stateMutability": "nonpayable",
      "type": "function"
    },
    {
      "inputs": [
        {
          "internalType": "uint256",
          "name": "stakeId",
          "type": "uint256"
        }
      ],
      "name": "getCheckinCount",
      "outputs": [
        {
          "internalType": "uint256",
          "name": "",
          "type": "uint256"
        }
      ],
      "stateMutability": "view",
      "type": "function"
    },
    {
      "inputs": [
        {
          "internalType": "uint256",
          "name": "stakeId",
          "type": "uint256"
        },
        {
          "internalType": "uint256",
          "name": "index",
          "type": "uint256"
        }
      ],
      "name": "getCheckinRecord",
      "outputs": [
        {
          "components": [
            {
              "internalType": "uint256",
              "name": "timestamp",
              "type": "uint256"
            },
            {
              "internalType": "bytes32",
              "name": "contentHash",
              "type": "bytes32"
            },
            {
              "internalType": "int256",
              "name": "latitude",
              "type": "int256"
            },
            {
              "internalType": "int256",
              "name": "longitude",
              "type": "int256"
            }
          ],
          "internalType": "struct TravelCheckStaking.CheckinRecord",
          "name": "",
          "type": "tuple"
        }
      ],
      "stateMutability": "view",
      "type": "function"
    },
    {
      "inputs": [
        {
          "internalType": "uint256",
          "name": "stakeId",
          "type": "uint256"
        }
      ],
      "name": "getCheckinRecords",
      "outputs": [
        {
          "components": [
            {
              "internalType": "uint256",
              "name": "timestamp",
              "type": "uint256"
            },
            {
              "internalType": "bytes32",
              "name": "contentHash",
              "type": "bytes32"
            },
            {
              "internalType": "int256",
              "name": "latitude",
              "type": "int256"
            },
            {
              "internalType": "int256",
              "name": "longitude",
              "type": "int256"
            }
          ],
          "internalType": "struct TravelCheckStaking.CheckinRecord[]",
          "name": "",
          "type": "tuple[]"
        }
      ],
      "stateMutability": "view",
      "type": "function"
    },
    {
      "inputs": [
        {
          "internalType": "uint256",
          "name": "stakeId",
          "type": "uint256"
        }
      ],
      "name": "getMaxRedPacketAmount",
      "outputs": [
        {
          "internalType": "uint256",
          "name": "",
          "type": "uint256"
        }
      ],
      "stateMutability": "view",
      "type": "function"
    },
    {
      "inputs": [
        {
          "internalType": "uint256",
          "name": "index",
          "type": "uint256"
        }
      ],
      "name": "getRedPacketTier",
      "outputs": [
        {
          "components": [
            {
              "internalType": "uint256",
              "name": "progressBps",
              "type": "uint256"
            },
            {
              "internalType": "uint256",
              "name": "maxRateBps",
              "type": "uint256"
            }
          ],
          "internalType": "struct TravelCheckStaking.RedPacketTier",
          "name": "",
          "type": "tuple"
        }
      ],
      "stateMutability": "view",
      "type": "function"
    },
    {
      "inputs": [],
      "name": "getRedPacketTierCount",
      "outputs": [
        {
          "internalType": "uint256",
          "name": "",
          "type": "uint256"
        }
      ],
      "stateMutability": "view",
      "type": "function"
    },
    {
      "inputs": [
        {
          "internalType": "uint256",
          "name": "stakeId",
          "type": "uint256"
        }
      ],
      "name": "getStake",
      "outputs": [
        {
          "components": [
            {
              "internalType": "address",
              "name": "user",
              "type": "address"
            },
            {
              "internalType": "enum TravelCheckStaking.StakeType",
              "name": "stakeType",
              "type": "uint8"
            },
            {
              "internalType": "uint256",
              "name": "amount",
              "type": "uint256"
            },
            {
              "internalType": "uint256",
              "name": "milestone",
              "type": "uint256"
            },
            {
              "internalType": "enum TravelCheckStaking.StakeMode",
              "name": "mode",
              "type": "uint8"
            },
            {
              "internalType": "uint256",
              "name": "checkedDays",
              "type": "uint256"
            },
            {
              "internalType": "bool",
              "name": "isPerfect",
              "type": "bool"
            },
            {
              "internalType": "uint256",
              "name": "accumulatedInterest",
              "type": "uint256"
            },
            {
              "internalType": "enum TravelCheckStaking.StakeStatus",
              "name": "status",
              "type": "uint8"
            },
            {
              "internalType": "uint256",
              "name": "startTime",
              "type": "uint256"
            },
            {
              "internalType": "uint256",
              "name": "endTime",
              "type": "uint256"
            },
            {
              "internalType": "uint256",
              "name": "completedAt",
              "type": "uint256"
            },
            {
              "internalType": "uint256",
              "name": "withdrawnAt",
              "type": "uint256"
            }
          ],
          "internalType": "struct TravelCheckStaking.Stake",
          "name": "",
          "type": "tuple"
        }
      ],
      "stateMutability": "view",
      "type": "function"
    },
    {
      "inputs": [
        {
          "internalType": "address",
          "name": "user",
          "type": "address"
        }
      ],
      "name": "getUserStakes",
      "outputs": [
        {
          "internalType": "uint256[]",
          "name": "",
          "type": "uint256[]"
        }
      ],
      "stateMutability": "view",
      "type": "function"
    },
    {
      "inputs": [
        {
          "internalType": "uint256",
          "name": "stakeId",
          "type": "uint256"
        }
      ],
      "name": "markImperfect",
      "outputs": [],
      "stateMutability": "nonpayable",
      "type": "function"
    },
    {
      "inputs": [],
      "name": "nextStakeId",
      "outputs": [
        {
          "internalType": "uint256",
          "name": "",
          "type": "uint256"
        }
      ],
      "stateMutability": "view",
      "type": "function"
    },
    {
      "inputs": [],
      "name": "owner",
      "outputs": [
        {
          "internalType": "address",
          "name": "",
          "type": "address"
        }
      ],
      "stateMutability": "view",
      "type": "function"
    },
    {
      "inputs": [
        {
          "internalType": "uint256",
          "name": "",
          "type": "uint256"
        }
      ],
      "name": "redPacketClaimed",
      "outputs": [
        {
          "internalType": "uint256",
          "name": "",
          "type": "uint256"
        }
      ],
      "stateMutability": "view",
      "type": "function"
    },
    {
      "inputs": [
        {
          "internalType": "uint256",
          "name": "",
          "type": "uint256"
        }
      ],
      "name": "redPacketTiers",
      "outputs": [
        {
          "internalType": "uint256",
          "name": "progressBps",
          "type": "uint256"
        },
        {
          "internalType": "uint256",
          "name": "maxRateBps",
          "type": "uint256"
        }
      ],
      "stateMutability": "view",
      "type": "function"
    },
    {
      "inputs": [],
      "name": "renounceOwnership",
      "outputs": [],
      "stateMutability": "nonpayable",
      "type": "function"
    },
    {
      "inputs": [
        {
          "internalType": "uint256",
          "name": "",
          "type": "uint256"
        }
      ],
      "name": "sealedRates",
      "outputs": [
        {
          "internalType": "uint256",
          "name": "",
          "type": "uint256"
        }
      ],
      "stateMutability": "view",
      "type": "function"
    },
    {
      "inputs": [
        {
          "internalType": "address",
          "name": "_signer",
          "type": "address"
        }
      ],
      "name": "setSigner",
      "outputs": [],
      "stateMutability": "nonpayable",
      "type": "function"
    },
    {
      "inputs": [],
      "name": "signer",
      "outputs": [
        {
          "internalType": "address",
          "name": "",
          "type": "address"
        }
      ],
      "stateMutability": "view",
      "type": "function"
    },
    {
      "inputs": [
        {
          "internalType": "uint256",
          "name": "",
          "type": "uint256"
        }
      ],
      "name": "stakes",
      "outputs": [
        {
          "internalType": "address",
          "name": "user",
          "type": "address"
        },
        {
          "internalType": "enum TravelCheckStaking.StakeType",
          "name": "stakeType",
          "type": "uint8"
        },
        {
          "internalType": "uint256",
          "name": "amount",
          "type": "uint256"
        },
        {
          "internalType": "uint256",
          "name": "milestone",
          "type": "uint256"
        },
        {
          "internalType": "enum TravelCheckStaking.StakeMode",
          "name": "mode",
          "type": "uint8"
        },
        {
          "internalType": "uint256",
          "name": "checkedDays",
          "type": "uint256"
        },
        {
          "internalType": "bool",
          "name": "isPerfect",
          "type": "bool"
        },
        {
          "internalType": "uint256",
          "name": "accumulatedInterest",
          "type": "uint256"
        },
        {
          "internalType": "enum TravelCheckStaking.StakeStatus",
          "name": "status",
          "type": "uint8"
        },
        {
          "internalType": "uint256",
          "name": "startTime",
          "type": "uint256"
        },
        {
          "internalType": "uint256",
          "name": "endTime",
          "type": "uint256"
        },
        {
          "internalType": "uint256",
          "name": "completedAt",
          "type": "uint256"
        },
        {
          "internalType": "uint256",
          "name": "withdrawnAt",
          "type": "uint256"
        }
      ],
      "stateMutability": "view",
      "type": "function"
    },
    {
      "inputs": [
        {
          "internalType": "address",
          "name": "newOwner",
          "type": "address"
        }
      ],
      "name": "transferOwnership",
      "outputs": [],
      "stateMutability": "nonpayable",
      "type": "function"
    },
    {
      "inputs": [
        {
          "internalType": "uint256",
          "name": "index",
          "type": "uint256"
        },
        {
          "internalType": "uint256",
          "name": "progressBps",
          "type": "uint256"
        },
        {
          "internalType": "uint256",
          "name": "maxRateBps",
          "type": "uint256"
        }
      ],
      "name": "updateRedPacketTier",
      "outputs": [],
      "stateMutability": "nonpayable",
      "type": "function"
    },
    {
      "inputs": [
        {
          "internalType": "bytes32",
          "name": "",
          "type": "bytes32"
        }
      ],
      "name": "usedSignatures",
      "outputs": [
        {
          "internalType": "bool",
          "name": "",
          "type": "bool"
        }
      ],
      "stateMutability": "view",
      "type": "function"
    },
    {
      "inputs": [
        {
          "internalType": "address",
          "name": "",
          "type": "address"
        },
        {
          "internalType": "uint256",
          "name": "",
          "type": "uint256"
        }
      ],
      "name": "userStakes",
      "outputs": [
        {
          "internalType": "uint256",
          "name": "",
          "type": "uint256"
        }
      ],
      "stateMutability": "view",
      "type": "function"
    },
    {
      "inputs": [
        {
          "internalType": "uint256",
          "name": "stakeId",
          "type": "uint256"
        }
      ],
      "name": "withdraw",
      "outputs": [],
      "stateMutability": "nonpayable",
      "type": "function"
    },
    {
      "stateMutability": "payable",
      "type": "receive"
    }
  ],
  "bytecode": "0x60806040523480156200001157600080fd5b5060405162002ba138038062002ba18339810160408190526200003491620003cc565b816001600160a01b0381166200006557604051631e4fbdf760e01b8152600060048201526024015b60405180910390fd5b62000070816200035f565b50600180556001600160a01b038116620000cd5760405162461bcd60e51b815260206004820152601660248201527f496e76616c6964207369676e657220616464726573730000000000000000000060448201526064016200005c565b600880546001600160a01b0319166001600160a01b0392909216919091179055506101f47fd3604db978f6137b0d18816b77b2ce810487a3af08a922e0b184963be5f3adfc8190556103207f50d9dffd10eb4437a15e8bb1c50afee98ea231805f136fb9a057e7aaeec448ae556105787f6ea47ca2f9e3a67b0e336c514aa9f125109f49309b7162caec32e7d27e5c838c556107d07f6d00efa09a7071d855bc5fb7d93921fbf02f2c4e3992802f2a9b08050cf48ea88190556003602090815260fa7f9dcb9783ba5cd0b54745f65f4f918525e461e91888c334e5342cb380ac558d53556101907f0ffe031ee7f67944a037276fd51f48fcc2fe05a729c43144606bc8777da8014f556102bc7f6117fee2f1274e1b392d2c3fe842478040a980d896757f38cbfe2ceebfa9f55f556103e87f3ba015d6b845e102ce2f76836007be82508e3543856f2a3c2ff4b56eb46d920e8190556040805180820182529384526064848401908152600b805460018181018355600083815297517f0175b7a638427703f0dbe7bb9bbf987a2551717b34e79f33b5b1008d1fa01db960029384028181019290925594517f0175b7a638427703f0dbe7bb9bbf987a2551717b34e79f33b5b1008d1fa01dba9182015585518087018752611388815260c8818a0190815285548085018755868c52915191850280880192909255519082015585518087018752611f40815261012c818a0190815285548085018755868c529151918502808801929092555190820155855180870187526126ac81528089019a8b5284548084018655858b5290519084028087019190915599519981019990995584518086019095526127108552958401948552815495860182559552905192909302928301919091555191015562000404565b600080546001600160a01b038381166001600160a01b0319831681178455604051919092169283917f8be0079c531659141344cd1fd0a4f28419497f9722a3daafe3b4186f6b6457e09190a35050565b80516001600160a01b0381168114620003c757600080fd5b919050565b60008060408385031215620003e057600080fd5b620003eb83620003af565b9150620003fb60208401620003af565b90509250929050565b61278d80620004146000396000f3fe6080604052600436106102135760003560e01c806398282d3411610118578063d867bbd7116100a0578063f2fde38b1161006f578063f2fde38b146106fe578063f5f1fc341461071e578063f6003de51461074b578063f84e91791461076b578063f978fd611461079857600080fd5b8063d867bbd714610673578063db01134d14610688578063e1f1c4a7146106c8578063e7013701146106de57600080fd5b8063bb6d4e99116100e7578063bb6d4e991461052f578063cbe4e2ae1461055c578063ce325bf814610589578063d04f7ee5146105b6578063d5a44f86146105c957600080fd5b806398282d34146104ba578063a57475e0146104da578063b2ed2e9c146104fa578063b5d5b5fa1461050f57600080fd5b80635fdfa36e1161019b578063842e29811161016a578063842e2981146103f45780638692a5fe146104215780638da5cb5b1461045c578063906d60b41461047a57806391789b651461049a57600080fd5b80635fdfa36e146103745780636c19e783146103a9578063715018a6146103c957806375506c96146103de57600080fd5b80632c7f07cf116101e25780632c7f07cf146102d35780632e1a7d4d146102ea5780632f92f1f21461030a5780635312ea8e14610327578063584b94b61461034757600080fd5b806311048c531461021f578063238ac9331461024157806327363c691461027e57806327ed7188146102ab57600080fd5b3661021a57005b600080fd5b34801561022b57600080fd5b5061023f61023a3660046121b0565b6107d8565b005b34801561024d57600080fd5b50600854610261906001600160a01b031681565b6040516001600160a01b0390911681526020015b60405180910390f35b34801561028a57600080fd5b5061029e6102993660046121b0565b61092d565b60405161027591906121d2565b3480156102b757600080fd5b506102c5655af3107a400081565b604051908152602001610275565b3480156102df57600080fd5b506102c56201518081565b3480156102f657600080fd5b5061023f6103053660046121fd565b6109f2565b34801561031657600080fd5b506102c5683635c9adc5dea0000081565b34801561033357600080fd5b5061023f6103423660046121fd565b610c4a565b34801561035357600080fd5b506102c56103623660046121fd565b60036020526000908152604090205481565b34801561038057600080fd5b5061039461038f3660046121fd565b610d10565b60408051928352602083019190915201610275565b3480156103b557600080fd5b5061023f6103c4366004612232565b610d3e565b3480156103d557600080fd5b5061023f610dd7565b3480156103ea57600080fd5b506102c560065481565b34801561040057600080fd5b5061041461040f366004612232565b610deb565b604051610275919061224d565b34801561042d57600080fd5b5061044161043c3660046121fd565b610e57565b60408051825181526020928301519281019290925201610275565b34801561046857600080fd5b506000546001600160a01b0316610261565b34801561048657600080fd5b5061023f610495366004612291565b610ed3565b3480156104a657600080fd5b5061023f6104b5366004612329565b611324565b3480156104c657600080fd5b506102c56104d53660046121fd565b611468565b3480156104e657600080fd5b506102c56104f53660046121fd565b61154e565b34801561050657600080fd5b506102c5600a81565b34801561051b57600080fd5b506102c561052a366004612355565b61175a565b34801561053b57600080fd5b506102c561054a3660046121fd565b60026020526000908152604090205481565b34801561056857600080fd5b506102c56105773660046121fd565b600a6020526000908152604090205481565b34801561059557600080fd5b506105a96105a43660046121fd565b61178b565b60405161027591906123c2565b6102c56105c436600461248b565b61191f565b3480156105d557600080fd5b5061065a6105e43660046121fd565b600460208190526000918252604090912080546001820154600283015460038401549484015460058501546006860154600787015460088801546009890154600a8a0154600b909a01546001600160a01b038a169b600160a01b909a0460ff9081169b999a98999881169896811696941693908d565b6040516102759d9c9b9a999897969594939291906124cd565b34801561067f57600080fd5b50600b546102c5565b34801561069457600080fd5b506106a86106a33660046121b0565b611c6d565b604080519485526020850193909352918301526060820152608001610275565b3480156106d457600080fd5b506102c561271081565b3480156106ea57600080fd5b5061023f6106f93660046121fd565b611cb3565b34801561070a57600080fd5b5061023f610719366004612232565b611cd6565b34801561072a57600080fd5b506102c56107393660046121fd565b60009081526007602052604090205490565b34801561075757600080fd5b5061023f610766366004612558565b611d11565b34801561077757600080fd5b5061078b6107863660046121fd565b611f2a565b604051610275919061258a565b3480156107a457600080fd5b506107c86107b33660046121fd565b60096020526000908152604090205460ff1681565b6040519015158152602001610275565b6107e0611fc4565b61271082111561082a5760405162461bcd60e51b815260206004820152601060248201526f496e76616c69642070726f677265737360801b60448201526064015b60405180910390fd5b61271081111561086b5760405162461bcd60e51b815260206004820152600c60248201526b496e76616c6964207261746560a01b6044820152606401610821565b6040805180820190915282815260208101828152600b805460018082018355600083905293517f0175b7a638427703f0dbe7bb9bbf987a2551717b34e79f33b5b1008d1fa01db960029092029182015591517f0175b7a638427703f0dbe7bb9bbf987a2551717b34e79f33b5b1008d1fa01dba90920191909155546108f09190612603565b60408051848152602081018490527fc8b38e5a91e0eae669f65341a0d90b4f3f64741c5f1e8b2b29cf1034cd6276c7910160405180910390a25050565b61095b6040518060800160405280600081526020016000801916815260200160008152602001600081525090565b60008381526007602052604090205482106109885760405162461bcd60e51b815260040161082190612616565b60008381526007602052604090208054839081106109a8576109a861263d565b906000526020600020906004020160405180608001604052908160008201548152602001600182015481526020016002820154815260200160038201548152505090505b92915050565b6109fa611ff1565b600081815260046020526040902080546001600160a01b03163314610a315760405162461bcd60e51b815260040161082190612653565b6002600782015460ff166002811115610a4c57610a4c61237f565b03610a8d5760405162461bcd60e51b815260206004820152601160248201527020b63932b0b23c903bb4ba34323930bbb760791b6044820152606401610821565b6000600382015460ff166001811115610aa857610aa861237f565b03610b0b576001600782015460ff166002811115610ac857610ac861237f565b14610b0b5760405162461bcd60e51b815260206004820152601360248201527214dd185ad9481b9bdd0818dbdb5c1b195d1959606a1b6044820152606401610821565b6000610b168361154e565b90506000818360010154610b2a919061267c565b60078401805460ff1916600217905542600b85015560068401839055905047811115610b985760405162461bcd60e51b815260206004820152601c60248201527f496e737566666963656e7420636f6e74726163742062616c616e6365000000006044820152606401610821565b604051600090339083908381818185875af1925050503d8060008114610bda576040519150601f19603f3d011682016040523d82523d6000602084013e610bdf565b606091505b5050905080610c005760405162461bcd60e51b81526004016108219061268f565b847f3db0ca701d7c1106534c6003e5d65dae65a9cb891ad5bbb9be39c091df79d87e83604051610c3291815260200190565b60405180910390a250505050610c4760018055565b50565b610c52611fc4565b80471015610c995760405162461bcd60e51b8152602060048201526014602482015273496e73756666696369656e742062616c616e636560601b6044820152606401610821565b600080546040516001600160a01b039091169083908381818185875af1925050503d8060008114610ce6576040519150601f19603f3d011682016040523d82523d6000602084013e610ceb565b606091505b5050905080610d0c5760405162461bcd60e51b81526004016108219061268f565b5050565b600b8181548110610d2057600080fd5b60009182526020909120600290910201805460019091015490915082565b610d46611fc4565b6001600160a01b038116610d8d5760405162461bcd60e51b815260206004820152600e60248201526d24b73b30b634b21039b4b3b732b960911b6044820152606401610821565b600880546001600160a01b0319166001600160a01b0383169081179091556040517f5553331329228fbd4123164423717a4a7539f6dfa1c3279a923b98fd681a6c7390600090a250565b610ddf611fc4565b610de9600061201b565b565b6001600160a01b038116600090815260056020908152604091829020805483518184028101840190945280845260609392830182828015610e4b57602002820191906000526020600020905b815481526020019060010190808311610e37575b50505050509050919050565b6040805180820190915260008082526020820152600b548210610e8c5760405162461bcd60e51b815260040161082190612616565b600b8281548110610e9f57610e9f61263d565b9060005260206000209060020201604051806040016040529081600082015481526020016001820154815250509050919050565b610edb611ff1565b600086815260046020526040902080546001600160a01b03163314610f125760405162461bcd60e51b815260040161082190612653565b83421115610f565760405162461bcd60e51b815260206004820152601160248201527014da59db985d1d5c9948195e1c1a5c9959607a1b6044820152606401610821565b60008511610f975760405162461bcd60e51b815260206004820152600e60248201526d125b9d985b1a5908185b5bdd5b9d60921b6044820152606401610821565b6000878152600760205260409020548610610fec5760405162461bcd60e51b8152602060048201526015602482015274092dcecc2d8d2c840c6d0cac6d6d2dc40d2dcc8caf605b1b6044820152606401610821565b604080516020810189905290810187905260608082018790526080820186905233901b6bffffffffffffffffffffffff191660a082015260009060b40160408051601f1981840301815291815281516020928301206000818152600990935291205490915060ff161561109a5760405162461bcd60e51b815260206004820152601660248201527514da59db985d1d5c9948185b1c9958591e481d5cd95960521b6044820152606401610821565b6000818152600960209081526040808320805460ff19166001179055516110ef918491017f19457468657265756d205369676e6564204d6573736167653a0a3332000000008152601c810191909152603c0190565b60408051601f198184030181528282528051602091820120600854601f890183900483028501830190935287845293506001600160a01b039091169161115291849190899089908190840183828082843760009201919091525061206b92505050565b6001600160a01b03161461119c5760405162461bcd60e51b8152602060048201526011602482015270496e76616c6964207369676e617475726560781b6044820152606401610821565b60006111a78a611468565b9050808811156111ee5760405162461bcd60e51b8152602060048201526012602482015271082dadeeadce840caf0c6cacac8e640dac2f60731b6044820152606401610821565b60008a8152600a6020526040812080548a929061120c90849061267c565b9091555050478811156112615760405162461bcd60e51b815260206004820152601d60248201527f496e73756666696369656e7420636f6e74726163742062616c616e63650000006044820152606401610821565b60405160009033908a908381818185875af1925050503d80600081146112a3576040519150601f19603f3d011682016040523d82523d6000602084013e6112a8565b606091505b50509050806112c95760405162461bcd60e51b81526004016108219061268f565b336001600160a01b03168a8c7f68a00648cc81f867c48aa3c3819695d082ad256be23ac6b9e23dcbddc21d9b3a8c60405161130691815260200190565b60405180910390a4505050505061131c60018055565b505050505050565b61132c611fc4565b600b54831061134d5760405162461bcd60e51b815260040161082190612616565b6127108211156113925760405162461bcd60e51b815260206004820152601060248201526f496e76616c69642070726f677265737360801b6044820152606401610821565b6127108111156113d35760405162461bcd60e51b815260206004820152600c60248201526b496e76616c6964207261746560a01b6044820152606401610821565b604051806040016040528083815260200182815250600b84815481106113fb576113fb61263d565b90600052602060002090600202016000820151816000015560208201518160010155905050827fc8b38e5a91e0eae669f65341a0d90b4f3f64741c5f1e8b2b29cf1034cd6276c7838360405161145b929190918252602082015260400190565b60405180910390a2505050565b60008181526004602052604081206001810154820361148a5750600092915050565b6000816002015461271083600401546114a391906126b8565b6114ad91906126cf565b9050600a60005b600b5481101561152757600b81815481106114d1576114d161263d565b906000526020600020906002020160000154831161151557600b81815481106114fc576114fc61263d565b9060005260206000209060020201600101549150611527565b8061151f816126f1565b9150506114b4565b5061271081846001015461153b91906126b8565b61154591906126cf565b95945050505050565b600081815260046020908152604080832081516101a0810190925280546001600160a01b03811683528493830190600160a01b900460ff1660018111156115975761159761237f565b60018111156115a8576115a861237f565b8152600182810154602083015260028301546040830152600383015460609092019160ff16908111156115dd576115dd61237f565b60018111156115ee576115ee61237f565b815260048201546020820152600582015460ff908116151560408301526006830154606083015260078301546080909201911660028111156116325761163261237f565b60028111156116435761164361237f565b81526008820154602082015260098201546040820152600a8201546060820152600b9091015460809091015290506000808260800151600181111561168a5761168a61237f565b146116a85760608201516000908152600360205260409020546116bd565b60608201516000908152600260205260409020545b9050600082606001516127108460a001516116d891906126b8565b6116e291906126cf565b905060006116f2612710806126b8565b8284866040015161170391906126b8565b61170d91906126b8565b61171791906126cf565b90508360c00151158015611740575060008460800151600181111561173e5761173e61237f565b145b15611545576117506002826126cf565b9695505050505050565b6005602052816000526040600020818154811061177657600080fd5b90600052602060002001600091509150505481565b6117f7604080516101a081018252600080825260208201819052918101829052606081018290526080810182905260a0810182905260c0810182905260e08101829052906101008201908152602001600081526020016000815260200160008152602001600081525090565b60008281526004602090815260409182902082516101a0810190935280546001600160a01b03811684529091830190600160a01b900460ff1660018111156118415761184161237f565b60018111156118525761185261237f565b8152600182810154602083015260028301546040830152600383015460609092019160ff16908111156118875761188761237f565b60018111156118985761189861237f565b815260048201546020820152600582015460ff908116151560408301526006830154606083015260078301546080909201911660028111156118dc576118dc61237f565b60028111156118ed576118ed61237f565b81526008820154602082015260098201546040820152600a8201546060820152600b9091015460809091015292915050565b6000611929611ff1565b34655af3107a40008110156119715760405162461bcd60e51b815260206004820152600e60248201526d416d6f756e7420746f6f206c6f7760901b6044820152606401610821565b683635c9adc5dea000008111156119bc5760405162461bcd60e51b815260206004820152600f60248201526e082dadeeadce840e8dede40d0d2ced608b1b6044820152606401610821565b83600a14806119cb5750836014145b806119d6575083601e145b806119e15750836032145b611a215760405162461bcd60e51b8152602060048201526011602482015270496e76616c6964206d696c6573746f6e6560781b6044820152606401610821565b6006805460009182611a32836126f1565b919050559050604051806101a00160405280336001600160a01b03168152602001876001811115611a6557611a6561237f565b8152602001838152602001868152602001856001811115611a8857611a8861237f565b8152600060208201819052600160408301526060820181905260808201524260a082015260c001611abc87620151806126b8565b611ac6904261267c565b815260006020808301829052604092830182905284825260048152919020825181546001600160a01b039091166001600160a01b031982168117835592840151919283916001600160a81b03191617600160a01b836001811115611b2c57611b2c61237f565b0217905550604082015181600101556060820151816002015560808201518160030160006101000a81548160ff02191690836001811115611b6f57611b6f61237f565b021790555060a0820151600482015560c082015160058201805491151560ff1992831617905560e0830151600683015561010083015160078301805491929091166001836002811115611bc457611bc461237f565b021790555061012082015160088201556101408201516009820155610160820151600a82015561018090910151600b90910155336000818152600560209081526040808320805460018101825590845291909220018390555182907f5c37d87e2c15979bf7deed864258000565917a14d1f7f534bf4b646317f6678690611c52908a9087908b908b9061270a565b60405180910390a3915050611c6660018055565b9392505050565b60076020528160005260406000208181548110611c8957600080fd5b60009182526020909120600490910201805460018201546002830154600390930154919450925084565b611cbb611fc4565b6000908152600460205260409020600501805460ff19169055565b611cde611fc4565b6001600160a01b038116611d0857604051631e4fbdf760e01b815260006004820152602401610821565b610c478161201b565b600084815260046020526040902080546001600160a01b03163314611d485760405162461bcd60e51b815260040161082190612653565b6000600782015460ff166002811115611d6357611d6361237f565b14611da35760405162461bcd60e51b815260206004820152601060248201526f5374616b65206e6f742061637469766560801b6044820152606401610821565b8060020154816004015410611dee5760405162461bcd60e51b8152602060048201526011602482015270105b1c9958591e4818dbdb5c1b195d1959607a1b6044820152606401610821565b600481018054906000611e00836126f1565b90915550506000858152600760209081526040808320815160808101835242815280840189815292810188815260608201888152835460018181018655948852958720925160049096029092019485559251918401919091559051600283015551600390910155611e708661154e565b6006830181905560405181815290915086907ffdae3b63504b472b74888d630fc4c667939a8a5652498ee9a83dc115f01a71b39060200160405180910390a28160020154826004015410611ed45760078201805460ff1916600117905542600a8301555b6004820154604080519182526020820187905281018590526060810184905286907f9e051fc45d753de63fed3ffb74ee238db827aa97557eb333c721eb5d50ac9ef99060800160405180910390a2505050505050565b606060076000838152602001908152602001600020805480602002602001604051908101604052809291908181526020016000905b82821015611fb9578382906000526020600020906004020160405180608001604052908160008201548152602001600182015481526020016002820154815260200160038201548152505081526020019060010190611f5f565b505050509050919050565b6000546001600160a01b03163314610de95760405163118cdaa760e01b8152336004820152602401610821565b60026001540361201457604051633ee5aeb560e01b815260040160405180910390fd5b6002600155565b600080546001600160a01b038381166001600160a01b0319831681178455604051919092169283917f8be0079c531659141344cd1fd0a4f28419497f9722a3daafe3b4186f6b6457e09190a35050565b600081516041146120be5760405162461bcd60e51b815260206004820152601860248201527f496e76616c6964207369676e6174757265206c656e67746800000000000000006044820152606401610821565b60208201516040830151606084015160001a601b8110156120e7576120e4601b8261273e565b90505b8060ff16601b14806120fc57508060ff16601c145b6121485760405162461bcd60e51b815260206004820152601960248201527f496e76616c6964207369676e617475726520762076616c7565000000000000006044820152606401610821565b60408051600081526020810180835288905260ff831691810191909152606081018490526080810183905260019060a0016020604051602081039080840390855afa15801561219b573d6000803e3d6000fd5b5050604051601f190151979650505050505050565b600080604083850312156121c357600080fd5b50508035926020909101359150565b81518152602080830151908201526040808301519082015260608083015190820152608081016109ec565b60006020828403121561220f57600080fd5b5035919050565b80356001600160a01b038116811461222d57600080fd5b919050565b60006020828403121561224457600080fd5b611c6682612216565b6020808252825182820181905260009190848201906040850190845b8181101561228557835183529284019291840191600101612269565b50909695505050505050565b60008060008060008060a087890312156122aa57600080fd5b86359550602087013594506040870135935060608701359250608087013567ffffffffffffffff808211156122de57600080fd5b818901915089601f8301126122f257600080fd5b81358181111561230157600080fd5b8a602082850101111561231357600080fd5b6020830194508093505050509295509295509295565b60008060006060848603121561233e57600080fd5b505081359360208301359350604090920135919050565b6000806040838503121561236857600080fd5b61237183612216565b946020939093013593505050565b634e487b7160e01b600052602160045260246000fd5b60028110610c4757610c4761237f565b6123ae81612395565b9052565b600381106123ae576123ae61237f565b81516001600160a01b031681526101a0810160208301516123e660208401826123a5565b506040830151604083015260608301516060830152608083015161240d60808401826123a5565b5060a083015160a083015260c083015161242b60c084018215159052565b5060e083015160e083015261010080840151612449828501826123b2565b505061012083810151908301526101408084015190830152610160808401519083015261018092830151929091019190915290565b60028110610c4757600080fd5b6000806000606084860312156124a057600080fd5b83356124ab8161247e565b92506020840135915060408401356124c28161247e565b809150509250925092565b6001600160a01b038e1681526101a081016124e78e612395565b8d60208301528c60408301528b60608301526125028b612395565b8a60808301528960a083015288151560c08301528760e083015261252a6101008301886123b2565b856101208301528461014083015283610160830152826101808301529e9d5050505050505050505050505050565b6000806000806080858703121561256e57600080fd5b5050823594602084013594506040840135936060013592509050565b6020808252825182820181905260009190848201906040850190845b81811015612285576125da838551805182526020810151602083015260408101516040830152606081015160608301525050565b92840192608092909201916001016125a6565b634e487b7160e01b600052601160045260246000fd5b818103818111156109ec576109ec6125ed565b6020808252600d908201526c092dcecc2d8d2c840d2dcc8caf609b1b604082015260600190565b634e487b7160e01b600052603260045260246000fd5b6020808252600f908201526e2737ba1039ba30b5b29037bbb732b960891b604082015260600190565b808201808211156109ec576109ec6125ed565b6020808252600f908201526e151c985b9cd9995c8819985a5b1959608a1b604082015260600190565b80820281158282048414176109ec576109ec6125ed565b6000826126ec57634e487b7160e01b600052601260045260246000fd5b500490565b600060018201612703576127036125ed565b5060010190565b6080810161271786612395565b85825284602083015283604083015261272f83612395565b82606083015295945050505050565b60ff81811683821601908111156109ec576109ec6125ed56fea2646970667358221220fca342026ff105a6f21db9a050f375bb125abd940e121226bfbde1793a70b40064736f6c63430008140033",
  "linkReferences": {},
  "deployedLinkReferences": {}
}