{
  "_format": "hh-sol-artifact-1",
  "contractName": "TravelCheckStaking",
  "sourceName": "contracts/TravelCheckStaking.sol",
  "abi": [
    {
      "inputs": [
        {
          "internalType": "address",
          "name": "initialOwner",
          "type": "address"
        }
      ],
      "stateMutability": "nonpayable",
      "type": "constructor"
    },
    {
      "inputs": [
        {
          "internalType": "address",
          "name": "owner",
          "type": "address"
        }
      ],
      "name": "OwnableInvalidOwner",
      "type": "error"
    },
    {
      "inputs": [
        {
          "internalType": "address",
          "name": "account",
          "type": "address"
        }
      ],
      "name": "OwnableUnauthorizedAccount",
      "type": "error"
    },
    {
      "inputs": [],
      "name": "ReentrancyGuardReentrantCall",
      "type": "error"
    },
    {
      "anonymous": false,
      "inputs": [
        {
          "indexed": true,
          "internalType": "uint256",
          "name": "stakeId",
          "type": "uint256"
        },
        {
          "indexed": false,
          "internalType": "uint256",
          "name": "checkedDays",
          "type": "uint256"
        },
        {
          "indexed": false,
          "internalType": "bytes32",
          "name": "contentHash",
          "type": "bytes32"
        },
        {
          "indexed": false,
          "internalType": "int256",
          "name": "latitude",
          "type": "int256"
        },
        {
          "indexed": false,
          "internalType": "int256",
          "name": "longitude",
          "type": "int256"
        }
      ],
      "name": "CheckedIn",
      "type": "event"
    },
    {
      "anonymous": false,
      "inputs": [
        {
          "indexed": true,
          "internalType": "uint256",
          "name": "stakeId",
          "type": "uint256"
        },
        {
          "indexed": false,
          "internalType": "uint256",
          "name": "interest",
          "type": "uint256"
        }
      ],
      "name": "InterestCalculated",
      "type": "event"
    },
    {
      "anonymous": false,
      "inputs": [
        {
          "indexed": true,
          "internalType": "address",
          "name": "previousOwner",
          "type": "address"
        },
        {
          "indexed": true,
          "internalType": "address",
          "name": "newOwner",
          "type": "address"
        }
      ],
      "name": "OwnershipTransferred",
      "type": "event"
    },
    {
      "anonymous": false,
      "inputs": [
        {
          "indexed": true,
          "internalType": "uint256",
          "name": "stakeId",
          "type": "uint256"
        },
        {
          "indexed": true,
          "internalType": "uint256",
          "name": "checkinIndex",
          "type": "uint256"
        },
        {
          "indexed": true,
          "internalType": "address",
          "name": "user",
          "type": "address"
        },
        {
          "indexed": false,
          "internalType": "uint256",
          "name": "amount",
          "type": "uint256"
        }
      ],
      "name": "RedPacketClaimed",
      "type": "event"
    },
    {
      "anonymous": false,
      "inputs": [
        {
          "indexed": true,
          "internalType": "uint256",
          "name": "index",
          "type": "uint256"
        },
        {
          "indexed": false,
          "internalType": "uint256",
          "name": "progressBps",
          "type": "uint256"
        },
        {
          "indexed": false,
          "internalType": "uint256",
          "name": "maxRateBps",
          "type": "uint256"
        }
      ],
      "name": "RedPacketTierUpdated",
      "type": "event"
    },
    {
      "anonymous": false,
      "inputs": [
        {
          "indexed": true,
          "internalType": "uint256",
          "name": "stakeId",
          "type": "uint256"
        },
        {
          "indexed": true,
          "internalType": "address",
          "name": "user",
          "type": "address"
        },
        {
          "indexed": false,
          "internalType": "enum TravelCheckStaking.StakeType",
          "name": "stakeType",
          "type": "uint8"
        },
        {
          "indexed": false,
          "internalType": "uint256",
          "name": "amount",
          "type": "uint256"
        },
        {
          "indexed": false,
          "internalType": "uint256",
          "name": "milestone",
          "type": "uint256"
        },
        {
          "indexed": false,
          "internalType": "enum TravelCheckStaking.StakeMode",
          "name": "mode",
          "type": "uint8"
        }
      ],
      "name": "StakeCreated",
      "type": "event"
    },
    {
      "anonymous": false,
      "inputs": [
        {
          "indexed": true,
          "internalType": "uint256",
          "name": "stakeId",
          "type": "uint256"
        },
        {
          "indexed": false,
          "internalType": "uint256",
          "name": "totalAmount",
          "type": "uint256"
        }
      ],
      "name": "StakeWithdrawn",
      "type": "event"
    },
    {
      "inputs": [],
      "name": "BASIS_POINTS",
      "outputs": [
        {
          "internalType": "uint256",
          "name": "",
          "type": "uint256"
        }
      ],
      "stateMutability": "view",
      "type": "function"
    },
    {
      "inputs": [],
      "name": "MAX_STAKE_AMOUNT",
      "outputs": [
        {
          "internalType": "uint256",
          "name": "",
          "type": "uint256"
        }
      ],
      "stateMutability": "view",
      "type": "function"
    },
    {
      "inputs": [],
      "name": "MIN_RED_PACKET_RATE",
      "outputs": [
        {
          "internalType": "uint256",
          "name": "",
          "type": "uint256"
        }
      ],
      "stateMutability": "view",
      "type": "function"
    },
    {
      "inputs": [],
      "name": "MIN_STAKE_AMOUNT",
      "outputs": [
        {
          "internalType": "uint256",
          "name": "",
          "type": "uint256"
        }
      ],
      "stateMutability": "view",
      "type": "function"
    },
    {
      "inputs": [],
      "name": "RED_PACKET_EXPIRY",
      "outputs": [
        {
          "internalType": "uint256",
          "name": "",
          "type": "uint256"
        }
      ],
      "stateMutability": "view",
      "type": "function"
    },
    {
      "inputs": [
        {
          "internalType": "uint256",
          "name": "progressBps",
          "type": "uint256"
        },
        {
          "internalType": "uint256",
          "name": "maxRateBps",
          "type": "uint256"
        }
      ],
      "name": "addRedPacketTier",
      "outputs": [],
      "stateMutability": "nonpayable",
      "type": "function"
    },
    {
      "inputs": [
        {
          "internalType": "uint256",
          "name": "",
          "type": "uint256"
        }
      ],
      "name": "anytimeRates",
      "outputs": [
        {
          "internalType": "uint256",
          "name": "",
          "type": "uint256"
        }
      ],
      "stateMutability": "view",
      "type": "function"
    },
    {
      "inputs": [
        {
          "internalType": "uint256",
          "name": "stakeId",
          "type": "uint256"
        }
      ],
      "name": "calculateInterest",
      "outputs": [
        {
          "internalType": "uint256",
          "name": "",
          "type": "uint256"
        }
      ],
      "stateMutability": "view",
      "type": "function"
    },
    {
      "inputs": [
        {
          "internalType": "uint256",
          "name": "stakeId",
          "type": "uint256"
        },
        {
          "internalType": "bytes32",
          "name": "contentHash",
          "type": "bytes32"
        },
        {
          "internalType": "int256",
          "name": "latitude",
          "type": "int256"
        },
        {
          "internalType": "int256",
          "name": "longitude",
          "type": "int256"
        }
      ],
      "name": "checkIn",
      "outputs": [],
      "stateMutability": "nonpayable",
      "type": "function"
    },
    {
      "inputs": [
        {
          "internalType": "uint256",
          "name": "",
          "type": "uint256"
        },
        {
          "internalType": "uint256",
          "name": "",
          "type": "uint256"
        }
      ],
      "name": "checkinRecords",
      "outputs": [
        {
          "internalType": "uint256",
          "name": "timestamp",
          "type": "uint256"
        },
        {
          "internalType": "bytes32",
          "name": "contentHash",
          "type": "bytes32"
        },
        {
          "internalType": "int256",
          "name": "latitude",
          "type": "int256"
        },
        {
          "internalType": "int256",
          "name": "longitude",
          "type": "int256"
        }
      ],
      "stateMutability": "view",
      "type": "function"
    },
    {
      "inputs": [
        {
          "internalType": "uint256",
          "name": "stakeId",
          "type": "uint256"
        },
        {
          "internalType": "uint256",
          "name": "checkinIndex",
          "type": "uint256"
        }
      ],
      "name": "claimRedPacket",
      "outputs": [],
      "stateMutability": "nonpayable",
      "type": "function"
    },
    {
      "inputs": [
        {
          "internalType": "enum TravelCheckStaking.StakeType",
          "name": "stakeType",
          "type": "uint8"
        },
        {
          "internalType": "uint256",
          "name": "milestone",
          "type": "uint256"
        },
        {
          "internalType": "enum TravelCheckStaking.StakeMode",
          "name": "mode",
          "type": "uint8"
        }
      ],
      "name": "createStake",
      "outputs": [
        {
          "internalType": "uint256",
          "name": "",
          "type": "uint256"
        }
      ],
      "stateMutability": "payable",
      "type": "function"
    },
    {
      "inputs": [
        {
          "internalType": "uint256",
          "name": "amount",
          "type": "uint256"
        }
      ],
      "name": "emergencyWithdraw",
      "outputs": [],
      "stateMutability": "nonpayable",
      "type": "function"
    },
    {
      "inputs": [
        {
          "internalType": "uint256",
          "name": "stakeId",
          "type": "uint256"
        }
      ],
      "name": "getCheckinCount",
      "outputs": [
        {
          "internalType": "uint256",
          "name": "",
          "type": "uint256"
        }
      ],
      "stateMutability": "view",
      "type": "function"
    },
    {
      "inputs": [
        {
          "internalType": "uint256",
          "name": "stakeId",
          "type": "uint256"
        },
        {
          "internalType": "uint256",
          "name": "index",
          "type": "uint256"
        }
      ],
      "name": "getCheckinRecord",
      "outputs": [
        {
          "components": [
            {
              "internalType": "uint256",
              "name": "timestamp",
              "type": "uint256"
            },
            {
              "internalType": "bytes32",
              "name": "contentHash",
              "type": "bytes32"
            },
            {
              "internalType": "int256",
              "name": "latitude",
              "type": "int256"
            },
            {
              "internalType": "int256",
              "name": "longitude",
              "type": "int256"
            }
          ],
          "internalType": "struct TravelCheckStaking.CheckinRecord",
          "name": "",
          "type": "tuple"
        }
      ],
      "stateMutability": "view",
      "type": "function"
    },
    {
      "inputs": [
        {
          "internalType": "uint256",
          "name": "stakeId",
          "type": "uint256"
        }
      ],
      "name": "getCheckinRecords",
      "outputs": [
        {
          "components": [
            {
              "internalType": "uint256",
              "name": "timestamp",
              "type": "uint256"
            },
            {
              "internalType": "bytes32",
              "name": "contentHash",
              "type": "bytes32"
            },
            {
              "internalType": "int256",
              "name": "latitude",
              "type": "int256"
            },
            {
              "internalType": "int256",
              "name": "longitude",
              "type": "int256"
            }
          ],
          "internalType": "struct TravelCheckStaking.CheckinRecord[]",
          "name": "",
          "type": "tuple[]"
        }
      ],
      "stateMutability": "view",
      "type": "function"
    },
    {
      "inputs": [
        {
          "internalType": "uint256",
          "name": "stakeId",
          "type": "uint256"
        }
      ],
      "name": "getMaxRedPacketAmount",
      "outputs": [
        {
          "internalType": "uint256",
          "name": "",
          "type": "uint256"
        }
      ],
      "stateMutability": "view",
      "type": "function"
    },
    {
      "inputs": [
        {
          "internalType": "uint256",
          "name": "index",
          "type": "uint256"
        }
      ],
      "name": "getRedPacketTier",
      "outputs": [
        {
          "components": [
            {
              "internalType": "uint256",
              "name": "progressBps",
              "type": "uint256"
            },
            {
              "internalType": "uint256",
              "name": "maxRateBps",
              "type": "uint256"
            }
          ],
          "internalType": "struct TravelCheckStaking.RedPacketTier",
          "name": "",
          "type": "tuple"
        }
      ],
      "stateMutability": "view",
      "type": "function"
    },
    {
      "inputs": [],
      "name": "getRedPacketTierCount",
      "outputs": [
        {
          "internalType": "uint256",
          "name": "",
          "type": "uint256"
        }
      ],
      "stateMutability": "view",
      "type": "function"
    },
    {
      "inputs": [
        {
          "internalType": "uint256",
          "name": "stakeId",
          "type": "uint256"
        }
      ],
      "name": "getStake",
      "outputs": [
        {
          "components": [
            {
              "internalType": "address",
              "name": "user",
              "type": "address"
            },
            {
              "internalType": "enum TravelCheckStaking.StakeType",
              "name": "stakeType",
              "type": "uint8"
            },
            {
              "internalType": "uint256",
              "name": "amount",
              "type": "uint256"
            },
            {
              "internalType": "uint256",
              "name": "milestone",
              "type": "uint256"
            },
            {
              "internalType": "enum TravelCheckStaking.StakeMode",
              "name": "mode",
              "type": "uint8"
            },
            {
              "internalType": "uint256",
              "name": "checkedDays",
              "type": "uint256"
            },
            {
              "internalType": "bool",
              "name": "isPerfect",
              "type": "bool"
            },
            {
              "internalType": "uint256",
              "name": "accumulatedInterest",
              "type": "uint256"
            },
            {
              "internalType": "enum TravelCheckStaking.StakeStatus",
              "name": "status",
              "type": "uint8"
            },
            {
              "internalType": "uint256",
              "name": "startTime",
              "type": "uint256"
            },
            {
              "internalType": "uint256",
              "name": "endTime",
              "type": "uint256"
            },
            {
              "internalType": "uint256",
              "name": "completedAt",
              "type": "uint256"
            },
            {
              "internalType": "uint256",
              "name": "withdrawnAt",
              "type": "uint256"
            }
          ],
          "internalType": "struct TravelCheckStaking.Stake",
          "name": "",
          "type": "tuple"
        }
      ],
      "stateMutability": "view",
      "type": "function"
    },
    {
      "inputs": [
        {
          "internalType": "address",
          "name": "user",
          "type": "address"
        }
      ],
      "name": "getUserStakes",
      "outputs": [
        {
          "internalType": "uint256[]",
          "name": "",
          "type": "uint256[]"
        }
      ],
      "stateMutability": "view",
      "type": "function"
    },
    {
      "inputs": [
        {
          "internalType": "uint256",
          "name": "stakeId",
          "type": "uint256"
        },
        {
          "internalType": "uint256",
          "name": "checkinIndex",
          "type": "uint256"
        }
      ],
      "name": "isRedPacketClaimed",
      "outputs": [
        {
          "internalType": "bool",
          "name": "",
          "type": "bool"
        }
      ],
      "stateMutability": "view",
      "type": "function"
    },
    {
      "inputs": [
        {
          "internalType": "uint256",
          "name": "stakeId",
          "type": "uint256"
        }
      ],
      "name": "markImperfect",
      "outputs": [],
      "stateMutability": "nonpayable",
      "type": "function"
    },
    {
      "inputs": [],
      "name": "nextStakeId",
      "outputs": [
        {
          "internalType": "uint256",
          "name": "",
          "type": "uint256"
        }
      ],
      "stateMutability": "view",
      "type": "function"
    },
    {
      "inputs": [],
      "name": "owner",
      "outputs": [
        {
          "internalType": "address",
          "name": "",
          "type": "address"
        }
      ],
      "stateMutability": "view",
      "type": "function"
    },
    {
      "inputs": [
        {
          "internalType": "uint256",
          "name": "",
          "type": "uint256"
        }
      ],
      "name": "redPacketClaimed",
      "outputs": [
        {
          "internalType": "uint256",
          "name": "",
          "type": "uint256"
        }
      ],
      "stateMutability": "view",
      "type": "function"
    },
    {
      "inputs": [
        {
          "internalType": "uint256",
          "name": "",
          "type": "uint256"
        },
        {
          "internalType": "uint256",
          "name": "",
          "type": "uint256"
        }
      ],
      "name": "redPacketClaimedForCheckin",
      "outputs": [
        {
          "internalType": "bool",
          "name": "",
          "type": "bool"
        }
      ],
      "stateMutability": "view",
      "type": "function"
    },
    {
      "inputs": [
        {
          "internalType": "uint256",
          "name": "",
          "type": "uint256"
        }
      ],
      "name": "redPacketTiers",
      "outputs": [
        {
          "internalType": "uint256",
          "name": "progressBps",
          "type": "uint256"
        },
        {
          "internalType": "uint256",
          "name": "maxRateBps",
          "type": "uint256"
        }
      ],
      "stateMutability": "view",
      "type": "function"
    },
    {
      "inputs": [],
      "name": "renounceOwnership",
      "outputs": [],
      "stateMutability": "nonpayable",
      "type": "function"
    },
    {
      "inputs": [
        {
          "internalType": "uint256",
          "name": "",
          "type": "uint256"
        }
      ],
      "name": "sealedRates",
      "outputs": [
        {
          "internalType": "uint256",
          "name": "",
          "type": "uint256"
        }
      ],
      "stateMutability": "view",
      "type": "function"
    },
    {
      "inputs": [
        {
          "internalType": "uint256",
          "name": "",
          "type": "uint256"
        }
      ],
      "name": "stakes",
      "outputs": [
        {
          "internalType": "address",
          "name": "user",
          "type": "address"
        },
        {
          "internalType": "enum TravelCheckStaking.StakeType",
          "name": "stakeType",
          "type": "uint8"
        },
        {
          "internalType": "uint256",
          "name": "amount",
          "type": "uint256"
        },
        {
          "internalType": "uint256",
          "name": "milestone",
          "type": "uint256"
        },
        {
          "internalType": "enum TravelCheckStaking.StakeMode",
          "name": "mode",
          "type": "uint8"
        },
        {
          "internalType": "uint256",
          "name": "checkedDays",
          "type": "uint256"
        },
        {
          "internalType": "bool",
          "name": "isPerfect",
          "type": "bool"
        },
        {
          "internalType": "uint256",
          "name": "accumulatedInterest",
          "type": "uint256"
        },
        {
          "internalType": "enum TravelCheckStaking.StakeStatus",
          "name": "status",
          "type": "uint8"
        },
        {
          "internalType": "uint256",
          "name": "startTime",
          "type": "uint256"
        },
        {
          "internalType": "uint256",
          "name": "endTime",
          "type": "uint256"
        },
        {
          "internalType": "uint256",
          "name": "completedAt",
          "type": "uint256"
        },
        {
          "internalType": "uint256",
          "name": "withdrawnAt",
          "type": "uint256"
        }
      ],
      "stateMutability": "view",
      "type": "function"
    },
    {
      "inputs": [
        {
          "internalType": "address",
          "name": "newOwner",
          "type": "address"
        }
      ],
      "name": "transferOwnership",
      "outputs": [],
      "stateMutability": "nonpayable",
      "type": "function"
    },
    {
      "inputs": [
        {
          "internalType": "uint256",
          "name": "index",
          "type": "uint256"
        },
        {
          "internalType": "uint256",
          "name": "progressBps",
          "type": "uint256"
        },
        {
          "internalType": "uint256",
          "name": "maxRateBps",
          "type": "uint256"
        }
      ],
      "name": "updateRedPacketTier",
      "outputs": [],
      "stateMutability": "nonpayable",
      "type": "function"
    },
    {
      "inputs": [
        {
          "internalType": "address",
          "name": "",
          "type": "address"
        },
        {
          "internalType": "uint256",
          "name": "",
          "type": "uint256"
        }
      ],
      "name": "userStakes",
      "outputs": [
        {
          "internalType": "uint256",
          "name": "",
          "type": "uint256"
        }
      ],
      "stateMutability": "view",
      "type": "function"
    },
    {
      "inputs": [
        {
          "internalType": "uint256",
          "name": "stakeId",
          "type": "uint256"
        }
      ],
      "name": "withdraw",
      "outputs": [],
      "stateMutability": "nonpayable",
      "type": "function"
    },
    {
      "stateMutability": "payable",
      "type": "receive"
    }
  ],
  "bytecode": "0x60806040523480156200001157600080fd5b506040516200288338038062002883833981016040819052620000349162000336565b806001600160a01b0381166200006457604051631e4fbdf760e01b81526000600482015260240160405180910390fd5b6200006f81620002e6565b505060018080556101f47f6ea47ca2f9e3a67b0e336c514aa9f125109f49309b7162caec32e7d27e5c838c8190556103207f7673bcbb3401a7cbae68f81d40eea2cf35afdaf7ecd016ebf3f02857fcc1260a556105787fec56eb74d500f9b1bf8f0c5cc42ff5ed51e8d9e3a2ebb6e83a26383f297e0f1e556107d07f271ebad1ef1c4cc3c6a7c2377a94bdf43830569b7dce0b46bebe56ceda76c0d48190556003602090815260fa7f6117fee2f1274e1b392d2c3fe842478040a980d896757f38cbfe2ceebfa9f55f556101907f6b16ef514f22b74729cbea5cc7babfecbdc2309e530ca716643d11fe929eed2e556102bc7f4ee5ee9bffee16640c2540fd7f6965fdc66a7e5f780f34dcd70130941a3eae07556103e87fd884e5b0e4d84f92cdd6484ba3abb6370e267f2b09aa13614f6a41f90e2690f98190556040805180820182529384526064848401908152600a805480890182556000828152965160029182027fc65a7bb8d6351c1cf70c95a316cc6a92839c986682d98bc35f958f4883f9d2a88181019290925593517fc65a7bb8d6351c1cf70c95a316cc6a92839c986682d98bc35f958f4883f9d2a99485015584518086018652611388815260c88189019081528454808d018655858b52915191840280840192909255519085015584518086018652611f40815261012c8189019081528454808d018655858b529151918402808401929092555190850155845180860186526126ac8152808801998a528354808c018555848a529051908302808301919091559851988401989098558351808501909452612710845294830193845280549788018155909452519490910292830193909355915191015562000368565b600080546001600160a01b038381166001600160a01b0319831681178455604051919092169283917f8be0079c531659141344cd1fd0a4f28419497f9722a3daafe3b4186f6b6457e09190a35050565b6000602082840312156200034957600080fd5b81516001600160a01b03811681146200036157600080fd5b9392505050565b61250b80620003786000396000f3fe6080604052600436106102085760003560e01c806398282d3411610118578063d5a44f86116100a0578063e70137011161006f578063e70137011461070f578063f2fde38b1461072f578063f5f1fc341461074f578063f6003de51461077c578063f84e91791461079c57600080fd5b8063d5a44f86146105fa578063d867bbd7146106a4578063db01134d146106b9578063e1f1c4a7146106f957600080fd5b8063bb6d4e99116100e7578063bb6d4e9914610525578063cbe4e2ae14610552578063ce325bf81461057f578063d04f7ee5146105ac578063d1fdacc7146105bf57600080fd5b806398282d34146104b0578063a57475e0146104d0578063b2ed2e9c146104f0578063b5d5b5fa1461050557600080fd5b8063584b94b61161019b578063842e29811161016a578063842e2981146103b55780638692a5fe146103e25780638da5cb5b1461041d57806391789b651461044557806394e09b521461046557600080fd5b8063584b94b6146103285780635fdfa36e14610355578063715018a61461038a57806375506c961461039f57600080fd5b80632e1a7d4d116101d75780632e1a7d4d146102ab5780632f92f1f2146102cb5780635312ea8e146102e857806356b190961461030857600080fd5b806311048c531461021457806327363c691461023657806327ed71881461026c5780632c7f07cf1461029457600080fd5b3661020f57005b600080fd5b34801561022057600080fd5b5061023461022f366004611fc3565b6107c9565b005b34801561024257600080fd5b50610256610251366004611fc3565b61091e565b6040516102639190611fe5565b60405180910390f35b34801561027857600080fd5b50610286655af3107a400081565b604051908152602001610263565b3480156102a057600080fd5b506102866201518081565b3480156102b757600080fd5b506102346102c6366004612010565b6109e3565b3480156102d757600080fd5b50610286683635c9adc5dea0000081565b3480156102f457600080fd5b50610234610303366004612010565b610c3b565b34801561031457600080fd5b50610234610323366004611fc3565b610d01565b34801561033457600080fd5b50610286610343366004612010565b60036020526000908152604090205481565b34801561036157600080fd5b50610375610370366004612010565b61105d565b60408051928352602083019190915201610263565b34801561039657600080fd5b5061023461108b565b3480156103ab57600080fd5b5061028660065481565b3480156103c157600080fd5b506103d56103d0366004612045565b61109f565b6040516102639190612060565b3480156103ee57600080fd5b506104026103fd366004612010565b61110b565b60408051825181526020928301519281019290925201610263565b34801561042957600080fd5b506000546040516001600160a01b039091168152602001610263565b34801561045157600080fd5b506102346104603660046120a4565b611187565b34801561047157600080fd5b506104a0610480366004611fc3565b600091825260096020908152604080842092845291905290205460ff1690565b6040519015158152602001610263565b3480156104bc57600080fd5b506102866104cb366004612010565b6112cb565b3480156104dc57600080fd5b506102866104eb366004612010565b6113b1565b3480156104fc57600080fd5b50610286600a81565b34801561051157600080fd5b506102866105203660046120d0565b6115bd565b34801561053157600080fd5b50610286610540366004612010565b60026020526000908152604090205481565b34801561055e57600080fd5b5061028661056d366004612010565b60086020526000908152604090205481565b34801561058b57600080fd5b5061059f61059a366004612010565b6115ee565b604051610263919061213d565b6102866105ba366004612206565b611782565b3480156105cb57600080fd5b506104a06105da366004611fc3565b600960209081526000928352604080842090915290825290205460ff1681565b34801561060657600080fd5b5061068b610615366004612010565b600460208190526000918252604090912080546001820154600283015460038401549484015460058501546006860154600787015460088801546009890154600a8a0154600b909a01546001600160a01b038a169b600160a01b909a0460ff9081169b999a98999881169896811696941693908d565b6040516102639d9c9b9a99989796959493929190612248565b3480156106b057600080fd5b50600a54610286565b3480156106c557600080fd5b506106d96106d4366004611fc3565b611ad1565b604080519485526020850193909352918301526060820152608001610263565b34801561070557600080fd5b5061028661271081565b34801561071b57600080fd5b5061023461072a366004612010565b611b17565b34801561073b57600080fd5b5061023461074a366004612045565b611b3a565b34801561075b57600080fd5b5061028661076a366004612010565b60009081526007602052604090205490565b34801561078857600080fd5b506102346107973660046122d3565b611b75565b3480156107a857600080fd5b506107bc6107b7366004612010565b611d8e565b6040516102639190612305565b6107d1611e28565b61271082111561081b5760405162461bcd60e51b815260206004820152601060248201526f496e76616c69642070726f677265737360801b60448201526064015b60405180910390fd5b61271081111561085c5760405162461bcd60e51b815260206004820152600c60248201526b496e76616c6964207261746560a01b6044820152606401610812565b6040805180820190915282815260208101828152600a805460018082018355600083905293517fc65a7bb8d6351c1cf70c95a316cc6a92839c986682d98bc35f958f4883f9d2a860029092029182015591517fc65a7bb8d6351c1cf70c95a316cc6a92839c986682d98bc35f958f4883f9d2a990920191909155546108e1919061237e565b60408051848152602081018490527fc8b38e5a91e0eae669f65341a0d90b4f3f64741c5f1e8b2b29cf1034cd6276c7910160405180910390a25050565b61094c6040518060800160405280600081526020016000801916815260200160008152602001600081525090565b60008381526007602052604090205482106109795760405162461bcd60e51b815260040161081290612391565b6000838152600760205260409020805483908110610999576109996123b8565b906000526020600020906004020160405180608001604052908160008201548152602001600182015481526020016002820154815260200160038201548152505090505b92915050565b6109eb611e55565b600081815260046020526040902080546001600160a01b03163314610a225760405162461bcd60e51b8152600401610812906123ce565b6002600782015460ff166002811115610a3d57610a3d6120fa565b03610a7e5760405162461bcd60e51b815260206004820152601160248201527020b63932b0b23c903bb4ba34323930bbb760791b6044820152606401610812565b6000600382015460ff166001811115610a9957610a996120fa565b03610afc576001600782015460ff166002811115610ab957610ab96120fa565b14610afc5760405162461bcd60e51b815260206004820152601360248201527214dd185ad9481b9bdd0818dbdb5c1b195d1959606a1b6044820152606401610812565b6000610b07836113b1565b90506000818360010154610b1b91906123f7565b60078401805460ff1916600217905542600b85015560068401839055905047811115610b895760405162461bcd60e51b815260206004820152601c60248201527f496e737566666963656e7420636f6e74726163742062616c616e6365000000006044820152606401610812565b604051600090339083908381818185875af1925050503d8060008114610bcb576040519150601f19603f3d011682016040523d82523d6000602084013e610bd0565b606091505b5050905080610bf15760405162461bcd60e51b81526004016108129061240a565b847f3db0ca701d7c1106534c6003e5d65dae65a9cb891ad5bbb9be39c091df79d87e83604051610c2391815260200190565b60405180910390a250505050610c3860018055565b50565b610c43611e28565b80471015610c8a5760405162461bcd60e51b8152602060048201526014602482015273496e73756666696369656e742062616c616e636560601b6044820152606401610812565b600080546040516001600160a01b039091169083908381818185875af1925050503d8060008114610cd7576040519150601f19603f3d011682016040523d82523d6000602084013e610cdc565b606091505b5050905080610cfd5760405162461bcd60e51b81526004016108129061240a565b5050565b610d09611e55565b600082815260046020526040902080546001600160a01b03163314610d405760405162461bcd60e51b8152600401610812906123ce565b6000838152600760205260409020548210610d955760405162461bcd60e51b8152602060048201526015602482015274092dcecc2d8d2c840c6d0cac6d6d2dc40d2dcc8caf605b1b6044820152606401610812565b600083815260096020908152604080832085845290915290205460ff1615610dff5760405162461bcd60e51b815260206004820181905260248201527f416c726561647920636c61696d656420666f72207468697320636865636b696e6044820152606401610812565b60008381526009602090815260408083208584529091528120805460ff19166001179055610e2d8484611e7f565b90506000612710600a8460010154610e459190612433565b610e4f9190612460565b60008681526007602052604081208054929350909186908110610e7457610e746123b8565b6000918252602082206004909102019150610e9060014361237e565b82546001840154604080519340602085015283018a905260608084018a9052608084019290925260a083015233901b6bffffffffffffffffffffffff191660c082015260d4016040516020818303038152906040528051906020012060001c90506000838511610f01575082610f2d565b610f0b848661237e565b610f169060016123f7565b610f209083612474565b610f2a90856123f7565b90505b60008881526008602052604081208054839290610f4b9084906123f7565b909155505047811115610fa05760405162461bcd60e51b815260206004820152601d60248201527f496e73756666696369656e7420636f6e74726163742062616c616e63650000006044820152606401610812565b604051600090339083908381818185875af1925050503d8060008114610fe2576040519150601f19603f3d011682016040523d82523d6000602084013e610fe7565b606091505b50509050806110085760405162461bcd60e51b81526004016108129061240a565b336001600160a01b0316888a7f68a00648cc81f867c48aa3c3819695d082ad256be23ac6b9e23dcbddc21d9b3a8560405161104591815260200190565b60405180910390a450505050505050610cfd60018055565b600a818154811061106d57600080fd5b60009182526020909120600290910201805460019091015490915082565b611093611e28565b61109d6000611f73565b565b6001600160a01b0381166000908152600560209081526040918290208054835181840281018401909452808452606093928301828280156110ff57602002820191906000526020600020905b8154815260200190600101908083116110eb575b50505050509050919050565b6040805180820190915260008082526020820152600a5482106111405760405162461bcd60e51b815260040161081290612391565b600a8281548110611153576111536123b8565b9060005260206000209060020201604051806040016040529081600082015481526020016001820154815250509050919050565b61118f611e28565b600a5483106111b05760405162461bcd60e51b815260040161081290612391565b6127108211156111f55760405162461bcd60e51b815260206004820152601060248201526f496e76616c69642070726f677265737360801b6044820152606401610812565b6127108111156112365760405162461bcd60e51b815260206004820152600c60248201526b496e76616c6964207261746560a01b6044820152606401610812565b604051806040016040528083815260200182815250600a848154811061125e5761125e6123b8565b90600052602060002090600202016000820151816000015560208201518160010155905050827fc8b38e5a91e0eae669f65341a0d90b4f3f64741c5f1e8b2b29cf1034cd6276c783836040516112be929190918252602082015260400190565b60405180910390a2505050565b6000818152600460205260408120600181015482036112ed5750600092915050565b6000816002015461271083600401546113069190612433565b6113109190612460565b9050600a60005b600a5481101561138a57600a8181548110611334576113346123b8565b906000526020600020906002020160000154831161137857600a818154811061135f5761135f6123b8565b906000526020600020906002020160010154915061138a565b8061138281612488565b915050611317565b5061271081846001015461139e9190612433565b6113a89190612460565b95945050505050565b600081815260046020908152604080832081516101a0810190925280546001600160a01b03811683528493830190600160a01b900460ff1660018111156113fa576113fa6120fa565b600181111561140b5761140b6120fa565b8152600182810154602083015260028301546040830152600383015460609092019160ff1690811115611440576114406120fa565b6001811115611451576114516120fa565b815260048201546020820152600582015460ff90811615156040830152600683015460608301526007830154608090920191166002811115611495576114956120fa565b60028111156114a6576114a66120fa565b81526008820154602082015260098201546040820152600a8201546060820152600b909101546080909101529050600080826080015160018111156114ed576114ed6120fa565b1461150b576060820151600090815260036020526040902054611520565b60608201516000908152600260205260409020545b9050600082606001516127108460a0015161153b9190612433565b6115459190612460565b9050600061155561271080612433565b828486604001516115669190612433565b6115709190612433565b61157a9190612460565b90508360c001511580156115a357506000846080015160018111156115a1576115a16120fa565b145b156113a8576115b3600282612460565b9695505050505050565b600560205281600052604060002081815481106115d957600080fd5b90600052602060002001600091509150505481565b61165a604080516101a081018252600080825260208201819052918101829052606081018290526080810182905260a0810182905260c0810182905260e08101829052906101008201908152602001600081526020016000815260200160008152602001600081525090565b60008281526004602090815260409182902082516101a0810190935280546001600160a01b03811684529091830190600160a01b900460ff1660018111156116a4576116a46120fa565b60018111156116b5576116b56120fa565b8152600182810154602083015260028301546040830152600383015460609092019160ff16908111156116ea576116ea6120fa565b60018111156116fb576116fb6120fa565b815260048201546020820152600582015460ff9081161515604083015260068301546060830152600783015460809092019116600281111561173f5761173f6120fa565b6002811115611750576117506120fa565b81526008820154602082015260098201546040820152600a8201546060820152600b9091015460809091015292915050565b600061178c611e55565b34655af3107a40008110156117d45760405162461bcd60e51b815260206004820152600e60248201526d416d6f756e7420746f6f206c6f7760901b6044820152606401610812565b683635c9adc5dea0000081111561181f5760405162461bcd60e51b815260206004820152600f60248201526e082dadeeadce840e8dede40d0d2ced608b1b6044820152606401610812565b83601e148061182e5750836064145b8061183957508360c8145b8061184557508361016d145b6118855760405162461bcd60e51b8152602060048201526011602482015270496e76616c6964206d696c6573746f6e6560781b6044820152606401610812565b600680546000918261189683612488565b919050559050604051806101a00160405280336001600160a01b031681526020018760018111156118c9576118c96120fa565b81526020018381526020018681526020018560018111156118ec576118ec6120fa565b8152600060208201819052600160408301526060820181905260808201524260a082015260c0016119208762015180612433565b61192a90426123f7565b815260006020808301829052604092830182905284825260048152919020825181546001600160a01b039091166001600160a01b031982168117835592840151919283916001600160a81b03191617600160a01b836001811115611990576119906120fa565b0217905550604082015181600101556060820151816002015560808201518160030160006101000a81548160ff021916908360018111156119d3576119d36120fa565b021790555060a0820151600482015560c082015160058201805491151560ff1992831617905560e0830151600683015561010083015160078301805491929091166001836002811115611a2857611a286120fa565b021790555061012082015160088201556101408201516009820155610160820151600a82015561018090910151600b90910155336000818152600560209081526040808320805460018101825590845291909220018390555182907f5c37d87e2c15979bf7deed864258000565917a14d1f7f534bf4b646317f6678690611ab6908a9087908b908b906124a1565b60405180910390a3915050611aca60018055565b9392505050565b60076020528160005260406000208181548110611aed57600080fd5b60009182526020909120600490910201805460018201546002830154600390930154919450925084565b611b1f611e28565b6000908152600460205260409020600501805460ff19169055565b611b42611e28565b6001600160a01b038116611b6c57604051631e4fbdf760e01b815260006004820152602401610812565b610c3881611f73565b600084815260046020526040902080546001600160a01b03163314611bac5760405162461bcd60e51b8152600401610812906123ce565b6000600782015460ff166002811115611bc757611bc76120fa565b14611c075760405162461bcd60e51b815260206004820152601060248201526f5374616b65206e6f742061637469766560801b6044820152606401610812565b8060020154816004015410611c525760405162461bcd60e51b8152602060048201526011602482015270105b1c9958591e4818dbdb5c1b195d1959607a1b6044820152606401610812565b600481018054906000611c6483612488565b90915550506000858152600760209081526040808320815160808101835242815280840189815292810188815260608201888152835460018181018655948852958720925160049096029092019485559251918401919091559051600283015551600390910155611cd4866113b1565b6006830181905560405181815290915086907ffdae3b63504b472b74888d630fc4c667939a8a5652498ee9a83dc115f01a71b39060200160405180910390a28160020154826004015410611d385760078201805460ff1916600117905542600a8301555b6004820154604080519182526020820187905281018590526060810184905286907f9e051fc45d753de63fed3ffb74ee238db827aa97557eb333c721eb5d50ac9ef99060800160405180910390a2505050505050565b606060076000838152602001908152602001600020805480602002602001604051908101604052809291908181526020016000905b82821015611e1d578382906000526020600020906004020160405180608001604052908160008201548152602001600182015481526020016002820154815260200160038201548152505081526020019060010190611dc3565b505050509050919050565b6000546001600160a01b0316331461109d5760405163118cdaa760e01b8152336004820152602401610812565b600260015403611e7857604051633ee5aeb560e01b815260040160405180910390fd5b6002600155565b600082815260046020526040812060018101548203611ea25760009150506109dd565b6000611eaf8460016123f7565b90506000826002015461271083611ec69190612433565b611ed09190612460565b9050600a60005b600a54811015611f4a57600a8181548110611ef457611ef46123b8565b9060005260206000209060020201600001548311611f3857600a8181548110611f1f57611f1f6123b8565b9060005260206000209060020201600101549150611f4a565b80611f4281612488565b915050611ed7565b50612710818560010154611f5e9190612433565b611f689190612460565b979650505050505050565b600080546001600160a01b038381166001600160a01b0319831681178455604051919092169283917f8be0079c531659141344cd1fd0a4f28419497f9722a3daafe3b4186f6b6457e09190a35050565b60008060408385031215611fd657600080fd5b50508035926020909101359150565b81518152602080830151908201526040808301519082015260608083015190820152608081016109dd565b60006020828403121561202257600080fd5b5035919050565b80356001600160a01b038116811461204057600080fd5b919050565b60006020828403121561205757600080fd5b611aca82612029565b6020808252825182820181905260009190848201906040850190845b818110156120985783518352928401929184019160010161207c565b50909695505050505050565b6000806000606084860312156120b957600080fd5b505081359360208301359350604090920135919050565b600080604083850312156120e357600080fd5b6120ec83612029565b946020939093013593505050565b634e487b7160e01b600052602160045260246000fd5b60028110610c3857610c386120fa565b61212981612110565b9052565b60038110612129576121296120fa565b81516001600160a01b031681526101a0810160208301516121616020840182612120565b50604083015160408301526060830151606083015260808301516121886080840182612120565b5060a083015160a083015260c08301516121a660c084018215159052565b5060e083015160e0830152610100808401516121c48285018261212d565b505061012083810151908301526101408084015190830152610160808401519083015261018092830151929091019190915290565b60028110610c3857600080fd5b60008060006060848603121561221b57600080fd5b8335612226816121f9565b925060208401359150604084013561223d816121f9565b809150509250925092565b6001600160a01b038e1681526101a081016122628e612110565b8d60208301528c60408301528b606083015261227d8b612110565b8a60808301528960a083015288151560c08301528760e08301526122a561010083018861212d565b856101208301528461014083015283610160830152826101808301529e9d5050505050505050505050505050565b600080600080608085870312156122e957600080fd5b5050823594602084013594506040840135936060013592509050565b6020808252825182820181905260009190848201906040850190845b8181101561209857612355838551805182526020810151602083015260408101516040830152606081015160608301525050565b9284019260809290920191600101612321565b634e487b7160e01b600052601160045260246000fd5b818103818111156109dd576109dd612368565b6020808252600d908201526c092dcecc2d8d2c840d2dcc8caf609b1b604082015260600190565b634e487b7160e01b600052603260045260246000fd5b6020808252600f908201526e2737ba1039ba30b5b29037bbb732b960891b604082015260600190565b808201808211156109dd576109dd612368565b6020808252600f908201526e151c985b9cd9995c8819985a5b1959608a1b604082015260600190565b80820281158282048414176109dd576109dd612368565b634e487b7160e01b600052601260045260246000fd5b60008261246f5761246f61244a565b500490565b6000826124835761248361244a565b500690565b60006001820161249a5761249a612368565b5060010190565b608081016124ae86612110565b8582528460208301528360408301526124c683612110565b8260608301529594505050505056fea264697066735822122046ba7aae6b817bde15fc6f97e972f376cb65beb7eb8b83ac328d6ac87510c62264736f6c63430008140033",
  "linkReferences": {},
  "deployedLinkReferences": {}
}