{
  "_format": "hh-sol-artifact-1",
  "contractName": "TravelCheckAttraction",
  "sourceName": "contracts/TravelCheckAttraction.sol",
  "abi": [
    {
      "inputs": [
        {
          "internalType": "address",
          "name": "initialOwner",
          "type": "address"
        },
        {
          "internalType": "address",
          "name": "_signer",
          "type": "address"
        }
      ],
      "stateMutability": "nonpayable",
      "type": "constructor"
    },
    {
      "inputs": [
        {
          "internalType": "address",
          "name": "owner",
          "type": "address"
        }
      ],
      "name": "OwnableInvalidOwner",
      "type": "error"
    },
    {
      "inputs": [
        {
          "internalType": "address",
          "name": "account",
          "type": "address"
        }
      ],
      "name": "OwnableUnauthorizedAccount",
      "type": "error"
    },
    {
      "inputs": [],
      "name": "ReentrancyGuardReentrantCall",
      "type": "error"
    },
    {
      "anonymous": false,
      "inputs": [
        {
          "indexed": true,
          "internalType": "address",
          "name": "previousOwner",
          "type": "address"
        },
        {
          "indexed": true,
          "internalType": "address",
          "name": "newOwner",
          "type": "address"
        }
      ],
      "name": "OwnershipTransferred",
      "type": "event"
    },
    {
      "anonymous": false,
      "inputs": [
        {
          "indexed": true,
          "internalType": "uint256",
          "name": "taskId",
          "type": "uint256"
        },
        {
          "indexed": false,
          "internalType": "uint256",
          "name": "amount",
          "type": "uint256"
        },
        {
          "indexed": false,
          "internalType": "uint256",
          "name": "additionalSlots",
          "type": "uint256"
        }
      ],
      "name": "RewardAdded",
      "type": "event"
    },
    {
      "anonymous": false,
      "inputs": [
        {
          "indexed": true,
          "internalType": "address",
          "name": "newSigner",
          "type": "address"
        }
      ],
      "name": "SignerUpdated",
      "type": "event"
    },
    {
      "anonymous": false,
      "inputs": [
        {
          "indexed": true,
          "internalType": "uint256",
          "name": "taskId",
          "type": "uint256"
        },
        {
          "indexed": true,
          "internalType": "address",
          "name": "user",
          "type": "address"
        }
      ],
      "name": "TaskAccepted",
      "type": "event"
    },
    {
      "anonymous": false,
      "inputs": [
        {
          "indexed": true,
          "internalType": "uint256",
          "name": "taskId",
          "type": "uint256"
        },
        {
          "indexed": false,
          "internalType": "uint256",
          "name": "refundAmount",
          "type": "uint256"
        }
      ],
      "name": "TaskCancelled",
      "type": "event"
    },
    {
      "anonymous": false,
      "inputs": [
        {
          "indexed": true,
          "internalType": "uint256",
          "name": "taskId",
          "type": "uint256"
        },
        {
          "indexed": true,
          "internalType": "address",
          "name": "user",
          "type": "address"
        },
        {
          "indexed": false,
          "internalType": "uint256",
          "name": "reward",
          "type": "uint256"
        },
        {
          "indexed": false,
          "internalType": "bytes32",
          "name": "contentHash",
          "type": "bytes32"
        }
      ],
      "name": "TaskCompleted",
      "type": "event"
    },
    {
      "anonymous": false,
      "inputs": [
        {
          "indexed": true,
          "internalType": "uint256",
          "name": "taskId",
          "type": "uint256"
        },
        {
          "indexed": false,
          "internalType": "string",
          "name": "name",
          "type": "string"
        },
        {
          "indexed": false,
          "internalType": "uint256",
          "name": "rewardPerUser",
          "type": "uint256"
        },
        {
          "indexed": false,
          "internalType": "uint256",
          "name": "totalSlots",
          "type": "uint256"
        },
        {
          "indexed": false,
          "internalType": "int256",
          "name": "latitude",
          "type": "int256"
        },
        {
          "indexed": false,
          "internalType": "int256",
          "name": "longitude",
          "type": "int256"
        }
      ],
      "name": "TaskCreated",
      "type": "event"
    },
    {
      "anonymous": false,
      "inputs": [
        {
          "indexed": true,
          "internalType": "uint256",
          "name": "taskId",
          "type": "uint256"
        },
        {
          "indexed": false,
          "internalType": "enum TravelCheckAttraction.TaskStatus",
          "name": "status",
          "type": "uint8"
        }
      ],
      "name": "TaskStatusChanged",
      "type": "event"
    },
    {
      "inputs": [
        {
          "internalType": "uint256",
          "name": "taskId",
          "type": "uint256"
        }
      ],
      "name": "acceptTask",
      "outputs": [],
      "stateMutability": "nonpayable",
      "type": "function"
    },
    {
      "inputs": [
        {
          "internalType": "uint256",
          "name": "taskId",
          "type": "uint256"
        }
      ],
      "name": "addReward",
      "outputs": [],
      "stateMutability": "payable",
      "type": "function"
    },
    {
      "inputs": [
        {
          "internalType": "uint256",
          "name": "taskId",
          "type": "uint256"
        }
      ],
      "name": "cancelTask",
      "outputs": [],
      "stateMutability": "nonpayable",
      "type": "function"
    },
    {
      "inputs": [
        {
          "internalType": "uint256",
          "name": "taskId",
          "type": "uint256"
        },
        {
          "internalType": "bytes32",
          "name": "contentHash",
          "type": "bytes32"
        },
        {
          "internalType": "int256",
          "name": "latitude",
          "type": "int256"
        },
        {
          "internalType": "int256",
          "name": "longitude",
          "type": "int256"
        },
        {
          "internalType": "uint256",
          "name": "expiry",
          "type": "uint256"
        },
        {
          "internalType": "bytes",
          "name": "signature",
          "type": "bytes"
        }
      ],
      "name": "completeTask",
      "outputs": [],
      "stateMutability": "nonpayable",
      "type": "function"
    },
    {
      "inputs": [
        {
          "internalType": "string",
          "name": "name",
          "type": "string"
        },
        {
          "internalType": "string",
          "name": "description",
          "type": "string"
        },
        {
          "internalType": "int256",
          "name": "latitude",
          "type": "int256"
        },
        {
          "internalType": "int256",
          "name": "longitude",
          "type": "int256"
        },
        {
          "internalType": "uint256",
          "name": "radius",
          "type": "uint256"
        },
        {
          "internalType": "uint256",
          "name": "rewardPerUser",
          "type": "uint256"
        },
        {
          "internalType": "uint256",
          "name": "totalSlots",
          "type": "uint256"
        },
        {
          "internalType": "uint256",
          "name": "startTime",
          "type": "uint256"
        },
        {
          "internalType": "uint256",
          "name": "endTime",
          "type": "uint256"
        }
      ],
      "name": "createTask",
      "outputs": [],
      "stateMutability": "payable",
      "type": "function"
    },
    {
      "inputs": [
        {
          "internalType": "uint256",
          "name": "amount",
          "type": "uint256"
        }
      ],
      "name": "emergencyWithdraw",
      "outputs": [],
      "stateMutability": "nonpayable",
      "type": "function"
    },
    {
      "inputs": [
        {
          "internalType": "uint256",
          "name": "taskId",
          "type": "uint256"
        }
      ],
      "name": "getRemainingSlots",
      "outputs": [
        {
          "internalType": "uint256",
          "name": "",
          "type": "uint256"
        }
      ],
      "stateMutability": "view",
      "type": "function"
    },
    {
      "inputs": [
        {
          "internalType": "uint256",
          "name": "taskId",
          "type": "uint256"
        }
      ],
      "name": "getTask",
      "outputs": [
        {
          "components": [
            {
              "internalType": "uint256",
              "name": "id",
              "type": "uint256"
            },
            {
              "internalType": "string",
              "name": "name",
              "type": "string"
            },
            {
              "internalType": "string",
              "name": "description",
              "type": "string"
            },
            {
              "internalType": "int256",
              "name": "latitude",
              "type": "int256"
            },
            {
              "internalType": "int256",
              "name": "longitude",
              "type": "int256"
            },
            {
              "internalType": "uint256",
              "name": "radius",
              "type": "uint256"
            },
            {
              "internalType": "uint256",
              "name": "rewardPerUser",
              "type": "uint256"
            },
            {
              "internalType": "uint256",
              "name": "totalSlots",
              "type": "uint256"
            },
            {
              "internalType": "uint256",
              "name": "claimedSlots",
              "type": "uint256"
            },
            {
              "internalType": "uint256",
              "name": "startTime",
              "type": "uint256"
            },
            {
              "internalType": "uint256",
              "name": "endTime",
              "type": "uint256"
            },
            {
              "internalType": "enum TravelCheckAttraction.TaskStatus",
              "name": "status",
              "type": "uint8"
            },
            {
              "internalType": "uint256",
              "name": "remainingReward",
              "type": "uint256"
            }
          ],
          "internalType": "struct TravelCheckAttraction.Task",
          "name": "",
          "type": "tuple"
        }
      ],
      "stateMutability": "view",
      "type": "function"
    },
    {
      "inputs": [],
      "name": "getTaskCount",
      "outputs": [
        {
          "internalType": "uint256",
          "name": "",
          "type": "uint256"
        }
      ],
      "stateMutability": "view",
      "type": "function"
    },
    {
      "inputs": [
        {
          "internalType": "address",
          "name": "user",
          "type": "address"
        }
      ],
      "name": "getUserAcceptedTasks",
      "outputs": [
        {
          "internalType": "uint256[]",
          "name": "",
          "type": "uint256[]"
        }
      ],
      "stateMutability": "view",
      "type": "function"
    },
    {
      "inputs": [
        {
          "internalType": "uint256",
          "name": "taskId",
          "type": "uint256"
        },
        {
          "internalType": "address",
          "name": "user",
          "type": "address"
        }
      ],
      "name": "getUserTaskInfo",
      "outputs": [
        {
          "components": [
            {
              "internalType": "bool",
              "name": "accepted",
              "type": "bool"
            },
            {
              "internalType": "bool",
              "name": "completed",
              "type": "bool"
            },
            {
              "internalType": "uint256",
              "name": "acceptedAt",
              "type": "uint256"
            },
            {
              "internalType": "uint256",
              "name": "completedAt",
              "type": "uint256"
            },
            {
              "internalType": "bytes32",
              "name": "contentHash",
              "type": "bytes32"
            }
          ],
          "internalType": "struct TravelCheckAttraction.UserTaskInfo",
          "name": "",
          "type": "tuple"
        }
      ],
      "stateMutability": "view",
      "type": "function"
    },
    {
      "inputs": [
        {
          "internalType": "uint256",
          "name": "taskId",
          "type": "uint256"
        }
      ],
      "name": "isTaskAcceptable",
      "outputs": [
        {
          "internalType": "bool",
          "name": "",
          "type": "bool"
        }
      ],
      "stateMutability": "view",
      "type": "function"
    },
    {
      "inputs": [],
      "name": "nextTaskId",
      "outputs": [
        {
          "internalType": "uint256",
          "name": "",
          "type": "uint256"
        }
      ],
      "stateMutability": "view",
      "type": "function"
    },
    {
      "inputs": [],
      "name": "owner",
      "outputs": [
        {
          "internalType": "address",
          "name": "",
          "type": "address"
        }
      ],
      "stateMutability": "view",
      "type": "function"
    },
    {
      "inputs": [
        {
          "internalType": "uint256",
          "name": "taskId",
          "type": "uint256"
        }
      ],
      "name": "pauseTask",
      "outputs": [],
      "stateMutability": "nonpayable",
      "type": "function"
    },
    {
      "inputs": [],
      "name": "renounceOwnership",
      "outputs": [],
      "stateMutability": "nonpayable",
      "type": "function"
    },
    {
      "inputs": [
        {
          "internalType": "uint256",
          "name": "taskId",
          "type": "uint256"
        }
      ],
      "name": "resumeTask",
      "outputs": [],
      "stateMutability": "nonpayable",
      "type": "function"
    },
    {
      "inputs": [
        {
          "internalType": "address",
          "name": "_signer",
          "type": "address"
        }
      ],
      "name": "setSigner",
      "outputs": [],
      "stateMutability": "nonpayable",
      "type": "function"
    },
    {
      "inputs": [],
      "name": "signer",
      "outputs": [
        {
          "internalType": "address",
          "name": "",
          "type": "address"
        }
      ],
      "stateMutability": "view",
      "type": "function"
    },
    {
      "inputs": [
        {
          "internalType": "uint256",
          "name": "",
          "type": "uint256"
        }
      ],
      "name": "tasks",
      "outputs": [
        {
          "internalType": "uint256",
          "name": "id",
          "type": "uint256"
        },
        {
          "internalType": "string",
          "name": "name",
          "type": "string"
        },
        {
          "internalType": "string",
          "name": "description",
          "type": "string"
        },
        {
          "internalType": "int256",
          "name": "latitude",
          "type": "int256"
        },
        {
          "internalType": "int256",
          "name": "longitude",
          "type": "int256"
        },
        {
          "internalType": "uint256",
          "name": "radius",
          "type": "uint256"
        },
        {
          "internalType": "uint256",
          "name": "rewardPerUser",
          "type": "uint256"
        },
        {
          "internalType": "uint256",
          "name": "totalSlots",
          "type": "uint256"
        },
        {
          "internalType": "uint256",
          "name": "claimedSlots",
          "type": "uint256"
        },
        {
          "internalType": "uint256",
          "name": "startTime",
          "type": "uint256"
        },
        {
          "internalType": "uint256",
          "name": "endTime",
          "type": "uint256"
        },
        {
          "internalType": "enum TravelCheckAttraction.TaskStatus",
          "name": "status",
          "type": "uint8"
        },
        {
          "internalType": "uint256",
          "name": "remainingReward",
          "type": "uint256"
        }
      ],
      "stateMutability": "view",
      "type": "function"
    },
    {
      "inputs": [
        {
          "internalType": "address",
          "name": "newOwner",
          "type": "address"
        }
      ],
      "name": "transferOwnership",
      "outputs": [],
      "stateMutability": "nonpayable",
      "type": "function"
    },
    {
      "inputs": [
        {
          "internalType": "bytes32",
          "name": "",
          "type": "bytes32"
        }
      ],
      "name": "usedSignatures",
      "outputs": [
        {
          "internalType": "bool",
          "name": "",
          "type": "bool"
        }
      ],
      "stateMutability": "view",
      "type": "function"
    },
    {
      "inputs": [
        {
          "internalType": "address",
          "name": "",
          "type": "address"
        },
        {
          "internalType": "uint256",
          "name": "",
          "type": "uint256"
        }
      ],
      "name": "userAcceptedTasks",
      "outputs": [
        {
          "internalType": "uint256",
          "name": "",
          "type": "uint256"
        }
      ],
      "stateMutability": "view",
      "type": "function"
    },
    {
      "inputs": [
        {
          "internalType": "uint256",
          "name": "",
          "type": "uint256"
        },
        {
          "internalType": "address",
          "name": "",
          "type": "address"
        }
      ],
      "name": "userTasks",
      "outputs": [
        {
          "internalType": "bool",
          "name": "accepted",
          "type": "bool"
        },
        {
          "internalType": "bool",
          "name": "completed",
          "type": "bool"
        },
        {
          "internalType": "uint256",
          "name": "acceptedAt",
          "type": "uint256"
        },
        {
          "internalType": "uint256",
          "name": "completedAt",
          "type": "uint256"
        },
        {
          "internalType": "bytes32",
          "name": "contentHash",
          "type": "bytes32"
        }
      ],
      "stateMutability": "view",
      "type": "function"
    },
    {
      "stateMutability": "payable",
      "type": "receive"
    }
  ],
  "bytecode": "0x60806040523480156200001157600080fd5b50604051620026b1380380620026b1833981016040819052620000349162000152565b816001600160a01b0381166200006557604051631e4fbdf760e01b8152600060048201526024015b60405180910390fd5b6200007081620000e5565b50600180556001600160a01b038116620000be5760405162461bcd60e51b815260206004820152600e60248201526d24b73b30b634b21039b4b3b732b960911b60448201526064016200005c565b600680546001600160a01b0319166001600160a01b0392909216919091179055506200018a565b600080546001600160a01b038381166001600160a01b0319831681178455604051919092169283917f8be0079c531659141344cd1fd0a4f28419497f9722a3daafe3b4186f6b6457e09190a35050565b80516001600160a01b03811681146200014d57600080fd5b919050565b600080604083850312156200016657600080fd5b620001718362000135565b9150620001816020840162000135565b90509250929050565b612517806200019a6000396000f3fe60806040526004361061014f5760003560e01c806374de4ec4116100b6578063cc188ded1161006f578063cc188ded14610474578063f1cbda0e14610487578063f2fde38b146104b7578063f8563d59146104d7578063f978fd6114610504578063fdc3d8d71461053457600080fd5b806374de4ec4146103b55780637eec20a8146103c85780638d977672146103e85780638da5cb5b14610421578063917468081461043f578063c17a340e1461045f57600080fd5b80633bae2b42116101085780633bae2b42146102ac5780635312ea8e1461031257806364f5c8be146103325780636c19e783146103605780636eec221214610380578063715018a6146103a057600080fd5b80631bf6912d1461015b5780631d65e77e1461017d5780632011e1d4146101b3578063238ac933146101d357806326ec851c1461020b578063337761d11461028c57600080fd5b3661015657005b600080fd5b34801561016757600080fd5b5061017b610176366004611e2a565b61054a565b005b34801561018957600080fd5b5061019d610198366004611e2a565b610729565b6040516101aa9190611ec1565b60405180910390f35b3480156101bf57600080fd5b5061017b6101ce366004611e2a565b610914565b3480156101df57600080fd5b506006546101f3906001600160a01b031681565b6040516001600160a01b0390911681526020016101aa565b34801561021757600080fd5b50610262610226366004611faf565b60036020818152600093845260408085209091529183529120805460018201546002830154929093015460ff8083169461010090930416929085565b6040805195151586529315156020860152928401919091526060830152608082015260a0016101aa565b34801561029857600080fd5b5061017b6102a7366004611e2a565b6109cf565b3480156102b857600080fd5b506102cc6102c7366004611faf565b610a5f565b6040516101aa9190600060a08201905082511515825260208301511515602083015260408301516040830152606083015160608301526080830151608083015292915050565b34801561031e57600080fd5b5061017b61032d366004611e2a565b610af6565b34801561033e57600080fd5b5061035261034d366004611fdb565b610bd3565b6040519081526020016101aa565b34801561036c57600080fd5b5061017b61037b366004612005565b610c04565b34801561038c57600080fd5b5061035261039b366004611e2a565b610c9d565b3480156103ac57600080fd5b5061017b610cde565b61017b6103c3366004611e2a565b610cf2565b3480156103d457600080fd5b5061017b6103e3366004611e2a565b610e27565b3480156103f457600080fd5b50610408610403366004611e2a565b610fb1565b6040516101aa9d9c9b9a99989796959493929190612020565b34801561042d57600080fd5b506000546001600160a01b03166101f3565b34801561044b57600080fd5b5061017b61045a3660046120f3565b611128565b34801561046b57600080fd5b50600554610352565b61017b610482366004612167565b611628565b34801561049357600080fd5b506104a76104a2366004611e2a565b611abc565b60405190151581526020016101aa565b3480156104c357600080fd5b5061017b6104d2366004612005565b611b1e565b3480156104e357600080fd5b506104f76104f2366004612005565b611b59565b6040516101aa9190612212565b34801561051057600080fd5b506104a761051f366004611e2a565b60076020526000908152604090205460ff1681565b34801561054057600080fd5b5061035260055481565b60008181526002602090815260408083206003835281842033855290925282209091600b83015460ff16600381111561058557610585611e89565b146105ab5760405162461bcd60e51b81526004016105a290612256565b60405180910390fd5b81600901544210156105f25760405162461bcd60e51b815260206004820152601060248201526f15185cdac81b9bdd081cdd185c9d195960821b60448201526064016105a2565b81600a01544211156106335760405162461bcd60e51b815260206004820152600a60248201526915185cdac8195b99195960b21b60448201526064016105a2565b805460ff16156106785760405162461bcd60e51b815260206004820152601060248201526f105b1c9958591e481858d8d95c1d195960821b60448201526064016105a2565b81600701548260080154106106c45760405162461bcd60e51b81526020600482015260126024820152714e6f20736c6f747320617661696c61626c6560701b60448201526064016105a2565b805460ff19166001908117825542828201553360008181526004602090815260408083208054958601815583529082209093018690559151909185917fc8717b61398fb9d7cacf49fe1e296b2f10e9711226b532842b6ffd642cb6a2c69190a3505050565b610731611db1565b60026000838152602001908152602001600020604051806101a00160405290816000820154815260200160018201805461076a9061227f565b80601f01602080910402602001604051908101604052809291908181526020018280546107969061227f565b80156107e35780601f106107b8576101008083540402835291602001916107e3565b820191906000526020600020905b8154815290600101906020018083116107c657829003601f168201915b505050505081526020016002820180546107fc9061227f565b80601f01602080910402602001604051908101604052809291908181526020018280546108289061227f565b80156108755780601f1061084a57610100808354040283529160200191610875565b820191906000526020600020905b81548152906001019060200180831161085857829003601f168201915b50505091835250506003828101546020830152600483015460408301526005830154606083015260068301546080830152600783015460a0830152600883015460c0830152600983015460e0830152600a830154610100830152600b8301546101209092019160ff16908111156108ee576108ee611e89565b60038111156108ff576108ff611e89565b8152602001600c820154815250509050919050565b61091c611bc5565b60008181526002602052604090206001600b82015460ff16600381111561094557610945611e89565b146109845760405162461bcd60e51b815260206004820152600f60248201526e15185cdac81b9bdd081c185d5cd959608a1b60448201526064016105a2565b600b8101805460ff1916905560405182907fd76ef80cfb1ce0c70d0cbc0ab1b9f2f298a78f9fca5c841be963ae9a5d721bb4906109c3906000906122b9565b60405180910390a25050565b6109d7611bc5565b600081815260026020526040812090600b82015460ff1660038111156109ff576109ff611e89565b14610a1c5760405162461bcd60e51b81526004016105a290612256565b600b8101805460ff1916600190811790915560405183917fd76ef80cfb1ce0c70d0cbc0ab1b9f2f298a78f9fca5c841be963ae9a5d721bb4916109c391906122b9565b6040805160a0810182526000808252602082018190529181018290526060810182905260808101919091525060008281526003602081815260408084206001600160a01b0386168552825292839020835160a081018552815460ff80821615158352610100909104161515928101929092526001810154938201939093526002830154606082015291015460808201525b92915050565b610afe611bc5565b47811115610b455760405162461bcd60e51b8152602060048201526014602482015273496e73756666696369656e742062616c616e636560601b60448201526064016105a2565b604051600090339083908381818185875af1925050503d8060008114610b87576040519150601f19603f3d011682016040523d82523d6000602084013e610b8c565b606091505b5050905080610bcf5760405162461bcd60e51b815260206004820152600f60248201526e151c985b9cd9995c8819985a5b1959608a1b60448201526064016105a2565b5050565b60046020528160005260406000208181548110610bef57600080fd5b90600052602060002001600091509150505481565b610c0c611bc5565b6001600160a01b038116610c535760405162461bcd60e51b815260206004820152600e60248201526d24b73b30b634b21039b4b3b732b960911b60448201526064016105a2565b600680546001600160a01b0319166001600160a01b0383169081179091556040517f5553331329228fbd4123164423717a4a7539f6dfa1c3279a923b98fd681a6c7390600090a250565b60008181526002602052604081206008810154600782015411610cc35750600092915050565b80600801548160070154610cd791906122dd565b9392505050565b610ce6611bc5565b610cf06000611bf2565b565b610cfa611bc5565b60008181526002602052604090206003600b82015460ff166003811115610d2357610d23611e89565b03610d615760405162461bcd60e51b815260206004820152600e60248201526d15185cdac818d85b98d95b1b195960921b60448201526064016105a2565b60003411610da15760405162461bcd60e51b815260206004820152600d60248201526c139bc81d985b1d59481cd95b9d609a1b60448201526064016105a2565b3481600c016000828254610db591906122f0565b90915550506006810154600090610dcc9034612303565b905080826007016000828254610de291906122f0565b9091555050604080513481526020810183905284917f9795f222c951ae3e749f872dbe287f78d21fa52353e9175cb20ed3aa2b29b82b910160405180910390a2505050565b610e2f611bc5565b610e37611c42565b600081815260026020526040812090600b82015460ff166003811115610e5f57610e5f611e89565b1480610e8357506001600b82015460ff166003811115610e8157610e81611e89565b145b610ebf5760405162461bcd60e51b815260206004820152600d60248201526c10d85b9b9bdd0818d85b98d95b609a1b60448201526064016105a2565b600c81018054600b8301805460ff1916600317905560009091558015610f6957604051600090339083908381818185875af1925050503d8060008114610f21576040519150601f19603f3d011682016040523d82523d6000602084013e610f26565b606091505b5050905080610f675760405162461bcd60e51b815260206004820152600d60248201526c1499599d5b990819985a5b1959609a1b60448201526064016105a2565b505b827f58716386e17644e69ff7358e3317a395f4523fcd0fb9cc227ee68d117ebbfbfc82604051610f9b91815260200190565b60405180910390a25050610fae60018055565b50565b60026020526000908152604090208054600182018054919291610fd39061227f565b80601f0160208091040260200160405190810160405280929190818152602001828054610fff9061227f565b801561104c5780601f106110215761010080835404028352916020019161104c565b820191906000526020600020905b81548152906001019060200180831161102f57829003601f168201915b5050505050908060020180546110619061227f565b80601f016020809104026020016040519081016040528092919081815260200182805461108d9061227f565b80156110da5780601f106110af576101008083540402835291602001916110da565b820191906000526020600020905b8154815290600101906020018083116110bd57829003601f168201915b50505060038401546004850154600586015460068701546007880154600889015460098a0154600a8b0154600b8c0154600c909c01549a9b979a9699509497509295919490939160ff16908d565b611130611c42565b60008781526002602090815260408083206003835281842033855290925282209091600b83015460ff16600381111561116b5761116b611e89565b146111885760405162461bcd60e51b81526004016105a290612256565b805460ff166111c85760405162461bcd60e51b815260206004820152600c60248201526b139bdd081858d8d95c1d195960a21b60448201526064016105a2565b8054610100900460ff16156112135760405162461bcd60e51b8152602060048201526011602482015270105b1c9958591e4818dbdb5c1b195d1959607a1b60448201526064016105a2565b81600a01544211156112545760405162461bcd60e51b815260206004820152600a60248201526915185cdac8195b99195960b21b60448201526064016105a2565b844211156112985760405162461bcd60e51b815260206004820152601160248201527014da59db985d1d5c9948195e1c1a5c9959607a1b60448201526064016105a2565b816006015482600c015410156112e65760405162461bcd60e51b8152602060048201526013602482015272125b9cdd59999a58da595b9d081c995dd85c99606a1b60448201526064016105a2565b6040805160208082018c90523360601b6bffffffffffffffffffffffff191682840152605482018b9052607482018a90526094820189905260b48083018990528351808403909101815260d49092018352815191810191909120600081815260079092529190205460ff16156113975760405162461bcd60e51b815260206004820152601660248201527514da59db985d1d5c9948185b1c9958591e481d5cd95960521b60448201526064016105a2565b6000818152600760209081526040808320805460ff19166001179055516113ec918491017f19457468657265756d205369676e6564204d6573736167653a0a3332000000008152601c810191909152603c0190565b60408051601f198184030181528282528051602091820120600654601f8a0183900483028501830190935288845293506001600160a01b039091169161144f918491908a908a9081908401838280828437600092019190915250611c6c92505050565b6001600160a01b0316146114995760405162461bcd60e51b8152602060048201526011602482015270496e76616c6964207369676e617475726560781b60448201526064016105a2565b825461ff001916610100178355426002840155600383018a90556008840180549060006114c583612325565b9190505550836006015484600c0160008282546114e291906122dd565b9091555050600784015460088501541061154257600b8401805460ff191660029081179091556040518c917fd76ef80cfb1ce0c70d0cbc0ab1b9f2f298a78f9fca5c841be963ae9a5d721bb49161153991906122b9565b60405180910390a25b600684015460405160009133918381818185875af1925050503d8060008114611587576040519150601f19603f3d011682016040523d82523d6000602084013e61158c565b606091505b50509050806115cf5760405162461bcd60e51b815260206004820152600f60248201526e151c985b9cd9995c8819985a5b1959608a1b60448201526064016105a2565b600685015460408051918252602082018d905233918e917f97a0824b8506cfb139577d310829a271db466501d3611753d09a6d3dd043da92910160405180910390a3505050505061161f60018055565b50505050505050565b611630611bc5565b8961166a5760405162461bcd60e51b815260206004820152600a602482015269456d707479206e616d6560b01b60448201526064016105a2565b600084116116ab5760405162461bcd60e51b815260206004820152600e60248201526d125b9d985b1a59081c995dd85c9960921b60448201526064016105a2565b600083116116eb5760405162461bcd60e51b815260206004820152600d60248201526c496e76616c696420736c6f747360981b60448201526064016105a2565b81811161172f5760405162461bcd60e51b8152602060048201526012602482015271496e76616c69642074696d652072616e676560701b60448201526064016105a2565b428210156117745760405162461bcd60e51b815260206004820152601260248201527114dd185c9d081d1a5b59481a5b881c185cdd60721b60448201526064016105a2565b60008511801561178657506127108511155b6117c35760405162461bcd60e51b815260206004820152600e60248201526d496e76616c69642072616469757360901b60448201526064016105a2565b60006117cf848661233e565b9050803410156118215760405162461bcd60e51b815260206004820152601b60248201527f496e73756666696369656e7420726577617264206465706f736974000000000060448201526064016105a2565b600580546000918261183283612325565b919050559050604051806101a001604052808281526020018e8e8080601f016020809104026020016040519081016040528093929190818152602001838380828437600092019190915250505090825250604080516020601f8f018190048102820181019092528d815291810191908e908e90819084018382808284376000920182905250938552505050602082018c9052604082018b9052606082018a90526080820189905260a0820188905260c0820181905260e0820187905261010082018690526101209091019081526020908101849052600083815260028252604090208251815590820151600182019061192b90826123ba565b506040820151600282019061194090826123ba565b50606082015181600301556080820151816004015560a0820151816005015560c0820151816006015560e082015181600701556101008201518160080155610120820151816009015561014082015181600a015561016082015181600b0160006101000a81548160ff021916908360038111156119bf576119bf611e89565b021790555061018082015181600c015590505081341115611a6b576000336119e784346122dd565b604051600081818185875af1925050503d8060008114611a23576040519150601f19603f3d011682016040523d82523d6000602084013e611a28565b606091505b5050905080611a695760405162461bcd60e51b815260206004820152600d60248201526c1499599d5b990819985a5b1959609a1b60448201526064016105a2565b505b807f66758ef8640c4aa17a6ec061bbaca9a57e42a5994d33cddef882d4a15738af388e8e89898e8e604051611aa59695949392919061247a565b60405180910390a250505050505050505050505050565b600081815260026020526040812081600b82015460ff166003811115611ae457611ae4611e89565b148015611af5575080600901544210155b8015611b05575080600a01544211155b8015610cd7575080600701548160080154109392505050565b611b26611bc5565b6001600160a01b038116611b5057604051631e4fbdf760e01b8152600060048201526024016105a2565b610fae81611bf2565b6001600160a01b038116600090815260046020908152604091829020805483518184028101840190945280845260609392830182828015611bb957602002820191906000526020600020905b815481526020019060010190808311611ba5575b50505050509050919050565b6000546001600160a01b03163314610cf05760405163118cdaa760e01b81523360048201526024016105a2565b600080546001600160a01b038381166001600160a01b0319831681178455604051919092169283917f8be0079c531659141344cd1fd0a4f28419497f9722a3daafe3b4186f6b6457e09190a35050565b600260015403611c6557604051633ee5aeb560e01b815260040160405180910390fd5b6002600155565b60008151604114611cbf5760405162461bcd60e51b815260206004820152601860248201527f496e76616c6964207369676e6174757265206c656e677468000000000000000060448201526064016105a2565b60208201516040830151606084015160001a601b811015611ce857611ce5601b826124c8565b90505b8060ff16601b1480611cfd57508060ff16601c145b611d495760405162461bcd60e51b815260206004820152601960248201527f496e76616c6964207369676e617475726520762076616c75650000000000000060448201526064016105a2565b60408051600081526020810180835288905260ff831691810191909152606081018490526080810183905260019060a0016020604051602081039080840390855afa158015611d9c573d6000803e3d6000fd5b5050604051601f190151979650505050505050565b604051806101a00160405280600081526020016060815260200160608152602001600081526020016000815260200160008152602001600081526020016000815260200160008152602001600081526020016000815260200160006003811115611e1d57611e1d611e89565b8152602001600081525090565b600060208284031215611e3c57600080fd5b5035919050565b6000815180845260005b81811015611e6957602081850181015186830182015201611e4d565b506000602082860101526020601f19601f83011685010191505092915050565b634e487b7160e01b600052602160045260246000fd5b60048110611ebd57634e487b7160e01b600052602160045260246000fd5b9052565b6020815281516020820152600060208301516101a0806040850152611eea6101c0850183611e43565b91506040850151601f19858403016060860152611f078382611e43565b92505060608501516080850152608085015160a085015260a085015160c085015260c085015160e085015260e0850151610100818187015280870151915050610120818187015280870151915050610140818187015280870151915050610160818187015280870151915050610180611f8281870183611e9f565b959095015193019290925250919050565b80356001600160a01b0381168114611faa57600080fd5b919050565b60008060408385031215611fc257600080fd5b82359150611fd260208401611f93565b90509250929050565b60008060408385031215611fee57600080fd5b611ff783611f93565b946020939093013593505050565b60006020828403121561201757600080fd5b610cd782611f93565b8d81526101a06020820152600061203b6101a083018f611e43565b828103604084015261204d818f611e43565b9150508b60608301528a60808301528960a08301528860c08301528760e0830152866101008301528561012083015284610140830152612091610160830185611e9f565b826101808301529e9d5050505050505050505050505050565b60008083601f8401126120bc57600080fd5b50813567ffffffffffffffff8111156120d457600080fd5b6020830191508360208285010111156120ec57600080fd5b9250929050565b600080600080600080600060c0888a03121561210e57600080fd5b873596506020880135955060408801359450606088013593506080880135925060a088013567ffffffffffffffff81111561214857600080fd5b6121548a828b016120aa565b989b979a50959850939692959293505050565b60008060008060008060008060008060006101208c8e03121561218957600080fd5b67ffffffffffffffff808d3511156121a057600080fd5b6121ad8e8e358f016120aa565b909c509a5060208d01358110156121c357600080fd5b506121d48d60208e01358e016120aa565b9b9e9a9d509b60408101359a60608201359a506080820135995060a0820135985060c0820135975060e0820135965061010090910135945092505050565b6020808252825182820181905260009190848201906040850190845b8181101561224a5783518352928401929184019160010161222e565b50909695505050505050565b6020808252600f908201526e5461736b206e6f742061637469766560881b604082015260600190565b600181811c9082168061229357607f821691505b6020821081036122b357634e487b7160e01b600052602260045260246000fd5b50919050565b60208101610af08284611e9f565b634e487b7160e01b600052601160045260246000fd5b81810381811115610af057610af06122c7565b80820180821115610af057610af06122c7565b60008261232057634e487b7160e01b600052601260045260246000fd5b500490565b600060018201612337576123376122c7565b5060010190565b8082028115828204841417610af057610af06122c7565b634e487b7160e01b600052604160045260246000fd5b601f8211156123b557600081815260208120601f850160051c810160208610156123925750805b601f850160051c820191505b818110156123b15782815560010161239e565b5050505b505050565b815167ffffffffffffffff8111156123d4576123d4612355565b6123e8816123e2845461227f565b8461236b565b602080601f83116001811461241d57600084156124055750858301515b600019600386901b1c1916600185901b1785556123b1565b600085815260208120601f198616915b8281101561244c5788860151825594840194600190910190840161242d565b508582101561246a5787850151600019600388901b60f8161c191681555b5050505050600190811b01905550565b60a081528560a0820152858760c0830137600060c08783010152600060c0601f19601f8901168301019050856020830152846040830152836060830152826080830152979650505050505050565b60ff8181168382160190811115610af057610af06122c756fea26469706673582212205311f78876ecff379e735bba68aa63ca3e2eac33133b7406eba7c32aa9e7792364736f6c63430008140033",
  "linkReferences": {},
  "deployedLinkReferences": {}
}