{
  "_format": "hh-sol-artifact-1",
  "contractName": "TravelCheckBadge",
  "sourceName": "contracts/TravelCheckBadge.sol",
  "abi": [
    {
      "inputs": [
        {
          "internalType": "address",
          "name": "initialOwner",
          "type": "address"
        }
      ],
      "stateMutability": "nonpayable",
      "type": "constructor"
    },
    {
      "inputs": [
        {
          "internalType": "address",
          "name": "sender",
          "type": "address"
        },
        {
          "internalType": "uint256",
          "name": "tokenId",
          "type": "uint256"
        },
        {
          "internalType": "address",
          "name": "owner",
          "type": "address"
        }
      ],
      "name": "ERC721IncorrectOwner",
      "type": "error"
    },
    {
      "inputs": [
        {
          "internalType": "address",
          "name": "operator",
          "type": "address"
        },
        {
          "internalType": "uint256",
          "name": "tokenId",
          "type": "uint256"
        }
      ],
      "name": "ERC721InsufficientApproval",
      "type": "error"
    },
    {
      "inputs": [
        {
          "internalType": "address",
          "name": "approver",
          "type": "address"
        }
      ],
      "name": "ERC721InvalidApprover",
      "type": "error"
    },
    {
      "inputs": [
        {
          "internalType": "address",
          "name": "operator",
          "type": "address"
        }
      ],
      "name": "ERC721InvalidOperator",
      "type": "error"
    },
    {
      "inputs": [
        {
          "internalType": "address",
          "name": "owner",
          "type": "address"
        }
      ],
      "name": "ERC721InvalidOwner",
      "type": "error"
    },
    {
      "inputs": [
        {
          "internalType": "address",
          "name": "receiver",
          "type": "address"
        }
      ],
      "name": "ERC721InvalidReceiver",
      "type": "error"
    },
    {
      "inputs": [
        {
          "internalType": "address",
          "name": "sender",
          "type": "address"
        }
      ],
      "name": "ERC721InvalidSender",
      "type": "error"
    },
    {
      "inputs": [
        {
          "internalType": "uint256",
          "name": "tokenId",
          "type": "uint256"
        }
      ],
      "name": "ERC721NonexistentToken",
      "type": "error"
    },
    {
      "inputs": [
        {
          "internalType": "address",
          "name": "owner",
          "type": "address"
        }
      ],
      "name": "OwnableInvalidOwner",
      "type": "error"
    },
    {
      "inputs": [
        {
          "internalType": "address",
          "name": "account",
          "type": "address"
        }
      ],
      "name": "OwnableUnauthorizedAccount",
      "type": "error"
    },
    {
      "anonymous": false,
      "inputs": [
        {
          "indexed": true,
          "internalType": "address",
          "name": "owner",
          "type": "address"
        },
        {
          "indexed": true,
          "internalType": "address",
          "name": "approved",
          "type": "address"
        },
        {
          "indexed": true,
          "internalType": "uint256",
          "name": "tokenId",
          "type": "uint256"
        }
      ],
      "name": "Approval",
      "type": "event"
    },
    {
      "anonymous": false,
      "inputs": [
        {
          "indexed": true,
          "internalType": "address",
          "name": "owner",
          "type": "address"
        },
        {
          "indexed": true,
          "internalType": "address",
          "name": "operator",
          "type": "address"
        },
        {
          "indexed": false,
          "internalType": "bool",
          "name": "approved",
          "type": "bool"
        }
      ],
      "name": "ApprovalForAll",
      "type": "event"
    },
    {
      "anonymous": false,
      "inputs": [
        {
          "indexed": true,
          "internalType": "address",
          "name": "user",
          "type": "address"
        },
        {
          "indexed": true,
          "internalType": "uint256",
          "name": "tokenId",
          "type": "uint256"
        },
        {
          "indexed": false,
          "internalType": "string",
          "name": "badgeType",
          "type": "string"
        }
      ],
      "name": "BadgeMinted",
      "type": "event"
    },
    {
      "anonymous": false,
      "inputs": [
        {
          "indexed": false,
          "internalType": "uint256",
          "name": "_fromTokenId",
          "type": "uint256"
        },
        {
          "indexed": false,
          "internalType": "uint256",
          "name": "_toTokenId",
          "type": "uint256"
        }
      ],
      "name": "BatchMetadataUpdate",
      "type": "event"
    },
    {
      "anonymous": false,
      "inputs": [
        {
          "indexed": false,
          "internalType": "uint256",
          "name": "_tokenId",
          "type": "uint256"
        }
      ],
      "name": "MetadataUpdate",
      "type": "event"
    },
    {
      "anonymous": false,
      "inputs": [
        {
          "indexed": true,
          "internalType": "address",
          "name": "previousOwner",
          "type": "address"
        },
        {
          "indexed": true,
          "internalType": "address",
          "name": "newOwner",
          "type": "address"
        }
      ],
      "name": "OwnershipTransferred",
      "type": "event"
    },
    {
      "anonymous": false,
      "inputs": [
        {
          "indexed": true,
          "internalType": "address",
          "name": "from",
          "type": "address"
        },
        {
          "indexed": true,
          "internalType": "address",
          "name": "to",
          "type": "address"
        },
        {
          "indexed": true,
          "internalType": "uint256",
          "name": "tokenId",
          "type": "uint256"
        }
      ],
      "name": "Transfer",
      "type": "event"
    },
    {
      "inputs": [
        {
          "internalType": "address",
          "name": "",
          "type": "address"
        },
        {
          "internalType": "uint256",
          "name": "",
          "type": "uint256"
        }
      ],
      "name": "approve",
      "outputs": [],
      "stateMutability": "nonpayable",
      "type": "function"
    },
    {
      "inputs": [
        {
          "internalType": "uint256",
          "name": "",
          "type": "uint256"
        }
      ],
      "name": "badgeTypes",
      "outputs": [
        {
          "internalType": "string",
          "name": "",
          "type": "string"
        }
      ],
      "stateMutability": "view",
      "type": "function"
    },
    {
      "inputs": [
        {
          "internalType": "address",
          "name": "owner",
          "type": "address"
        }
      ],
      "name": "balanceOf",
      "outputs": [
        {
          "internalType": "uint256",
          "name": "",
          "type": "uint256"
        }
      ],
      "stateMutability": "view",
      "type": "function"
    },
    {
      "inputs": [
        {
          "internalType": "uint256",
          "name": "tokenId",
          "type": "uint256"
        }
      ],
      "name": "getApproved",
      "outputs": [
        {
          "internalType": "address",
          "name": "",
          "type": "address"
        }
      ],
      "stateMutability": "view",
      "type": "function"
    },
    {
      "inputs": [
        {
          "internalType": "address",
          "name": "user",
          "type": "address"
        },
        {
          "internalType": "string",
          "name": "badgeType",
          "type": "string"
        }
      ],
      "name": "hasBadge",
      "outputs": [
        {
          "internalType": "bool",
          "name": "",
          "type": "bool"
        }
      ],
      "stateMutability": "view",
      "type": "function"
    },
    {
      "inputs": [
        {
          "internalType": "address",
          "name": "owner",
          "type": "address"
        },
        {
          "internalType": "address",
          "name": "operator",
          "type": "address"
        }
      ],
      "name": "isApprovedForAll",
      "outputs": [
        {
          "internalType": "bool",
          "name": "",
          "type": "bool"
        }
      ],
      "stateMutability": "view",
      "type": "function"
    },
    {
      "inputs": [
        {
          "internalType": "address",
          "name": "to",
          "type": "address"
        },
        {
          "internalType": "string",
          "name": "badgeType",
          "type": "string"
        },
        {
          "internalType": "string",
          "name": "uri",
          "type": "string"
        }
      ],
      "name": "mintBadge",
      "outputs": [
        {
          "internalType": "uint256",
          "name": "",
          "type": "uint256"
        }
      ],
      "stateMutability": "nonpayable",
      "type": "function"
    },
    {
      "inputs": [],
      "name": "name",
      "outputs": [
        {
          "internalType": "string",
          "name": "",
          "type": "string"
        }
      ],
      "stateMutability": "view",
      "type": "function"
    },
    {
      "inputs": [],
      "name": "owner",
      "outputs": [
        {
          "internalType": "address",
          "name": "",
          "type": "address"
        }
      ],
      "stateMutability": "view",
      "type": "function"
    },
    {
      "inputs": [
        {
          "internalType": "uint256",
          "name": "tokenId",
          "type": "uint256"
        }
      ],
      "name": "ownerOf",
      "outputs": [
        {
          "internalType": "address",
          "name": "",
          "type": "address"
        }
      ],
      "stateMutability": "view",
      "type": "function"
    },
    {
      "inputs": [],
      "name": "renounceOwnership",
      "outputs": [],
      "stateMutability": "nonpayable",
      "type": "function"
    },
    {
      "inputs": [
        {
          "internalType": "address",
          "name": "from",
          "type": "address"
        },
        {
          "internalType": "address",
          "name": "to",
          "type": "address"
        },
        {
          "internalType": "uint256",
          "name": "tokenId",
          "type": "uint256"
        }
      ],
      "name": "safeTransferFrom",
      "outputs": [],
      "stateMutability": "nonpayable",
      "type": "function"
    },
    {
      "inputs": [
        {
          "internalType": "address",
          "name": "from",
          "type": "address"
        },
        {
          "internalType": "address",
          "name": "to",
          "type": "address"
        },
        {
          "internalType": "uint256",
          "name": "tokenId",
          "type": "uint256"
        },
        {
          "internalType": "bytes",
          "name": "data",
          "type": "bytes"
        }
      ],
      "name": "safeTransferFrom",
      "outputs": [],
      "stateMutability": "nonpayable",
      "type": "function"
    },
    {
      "inputs": [
        {
          "internalType": "address",
          "name": "",
          "type": "address"
        },
        {
          "internalType": "bool",
          "name": "",
          "type": "bool"
        }
      ],
      "name": "setApprovalForAll",
      "outputs": [],
      "stateMutability": "nonpayable",
      "type": "function"
    },
    {
      "inputs": [
        {
          "internalType": "bytes4",
          "name": "interfaceId",
          "type": "bytes4"
        }
      ],
      "name": "supportsInterface",
      "outputs": [
        {
          "internalType": "bool",
          "name": "",
          "type": "bool"
        }
      ],
      "stateMutability": "view",
      "type": "function"
    },
    {
      "inputs": [],
      "name": "symbol",
      "outputs": [
        {
          "internalType": "string",
          "name": "",
          "type": "string"
        }
      ],
      "stateMutability": "view",
      "type": "function"
    },
    {
      "inputs": [
        {
          "internalType": "uint256",
          "name": "tokenId",
          "type": "uint256"
        }
      ],
      "name": "tokenURI",
      "outputs": [
        {
          "internalType": "string",
          "name": "",
          "type": "string"
        }
      ],
      "stateMutability": "view",
      "type": "function"
    },
    {
      "inputs": [
        {
          "internalType": "address",
          "name": "from",
          "type": "address"
        },
        {
          "internalType": "address",
          "name": "to",
          "type": "address"
        },
        {
          "internalType": "uint256",
          "name": "tokenId",
          "type": "uint256"
        }
      ],
      "name": "transferFrom",
      "outputs": [],
      "stateMutability": "nonpayable",
      "type": "function"
    },
    {
      "inputs": [
        {
          "internalType": "address",
          "name": "newOwner",
          "type": "address"
        }
      ],
      "name": "transferOwnership",
      "outputs": [],
      "stateMutability": "nonpayable",
      "type": "function"
    },
    {
      "inputs": [
        {
          "internalType": "address",
          "name": "",
          "type": "address"
        },
        {
          "internalType": "string",
          "name": "",
          "type": "string"
        }
      ],
      "name": "userBadges",
      "outputs": [
        {
          "internalType": "bool",
          "name": "",
          "type": "bool"
        }
      ],
      "stateMutability": "view",
      "type": "function"
    }
  ],
  "bytecode": "0x60806040523480156200001157600080fd5b5060405162001c9f38038062001c9f83398101604081905262000034916200036a565b806040518060400160405280601181526020017054726176656c436865636b20426164676560781b8152506040518060400160405280600881526020016754434b424144474560c01b815250816000908162000091919062000441565b506001620000a0828262000441565b5050506001600160a01b038116620000d257604051631e4fbdf760e01b81526000600482015260240160405180910390fd5b620000dd8162000318565b5060408051808201909152600d81526c2324a929aa2fa1a422a1a5a4a760991b6020808301919091526001600052600990527f92e85d02570a8092d09a6e3a57665bc3815a2699a4074001bf1ccabf660f5a36906200013d908262000441565b5060408051808201909152600881526753545245414b5f3760c01b6020808301919091526002600052600990527f6cde3cea4b3a3fb2488b2808bae7556f4a405e50f65e1794383bc026131b13c39062000198908262000441565b5060408051808201909152600980825268053545245414b5f33360bc1b6020808401919091526003600052527fc575c31fea594a6eb97c8e9d3f9caee4c16218c6ef37e923234c0fe9014a61e790620001f2908262000441565b5060408051808201909152600a815269053545245414b5f3130360b41b6020808301919091526004600052600990527f8dc18c4ccfd75f5c815b63770fa542fd953e8fef7e0e44bbdd4913470ce7e9cb906200024f908262000441565b5060408051808201909152600d81526c0a08aa48c8a86a8be9a9e9ca89609b1b6020808301919091526005600052600990527f74b05292d1d4b2b48b65261b07099d24244bcb069f138d9a6bfdcf776becac4c90620002af908262000441565b5060408051808201909152600e81526d2ba7a926222fa2ac282627a922a960911b6020808301919091526006600052600990527fbb6daa0c283751197dfdc76590680f9005e97d6f23870deb1164ab60b28b9f5f9062000310908262000441565b50506200050d565b600780546001600160a01b038381166001600160a01b0319831681179093556040519116919082907f8be0079c531659141344cd1fd0a4f28419497f9722a3daafe3b4186f6b6457e090600090a35050565b6000602082840312156200037d57600080fd5b81516001600160a01b03811681146200039557600080fd5b9392505050565b634e487b7160e01b600052604160045260246000fd5b600181811c90821680620003c757607f821691505b602082108103620003e857634e487b7160e01b600052602260045260246000fd5b50919050565b601f8211156200043c57600081815260208120601f850160051c81016020861015620004175750805b601f850160051c820191505b81811015620004385782815560010162000423565b5050505b505050565b81516001600160401b038111156200045d576200045d6200039c565b62000475816200046e8454620003b2565b84620003ee565b602080601f831160018114620004ad5760008415620004945750858301515b600019600386901b1c1916600185901b17855562000438565b600085815260208120601f198616915b82811015620004de57888601518255948401946001909101908401620004bd565b5085821015620004fd5787850151600019600388901b60f8161c191681555b5050505050600190811b01905550565b611782806200051d6000396000f3fe608060405234801561001057600080fd5b506004361061012c5760003560e01c8063715018a6116100ad578063ae9abb7b11610071578063ae9abb7b1461029c578063b88d4fde146102af578063c87b56dd146102c2578063e985e9c5146102d5578063f2fde38b146102e857600080fd5b8063715018a61461022e5780638da5cb5b1461023657806395d89b4114610247578063a22cb4651461024f578063ae3e3a551461025d57600080fd5b806323b872dd116100f457806323b872dd146101c157806342842e0e146101d4578063587c753d146101e75780636352211e1461020857806370a082311461021b57600080fd5b806301ffc9a71461013157806306fdde0314610159578063081812fc1461016e578063095ea7b314610199578063107b70fa146101ae575b600080fd5b61014461013f3660046111b1565b6102fb565b60405190151581526020015b60405180910390f35b61016161030c565b604051610150919061121e565b61018161017c366004611231565b61039e565b6040516001600160a01b039091168152602001610150565b6101ac6101a7366004611266565b6103c7565b005b6101446101bc36600461133c565b610420565b6101ac6101cf36600461138a565b610461565b6101ac6101e236600461138a565b6104ec565b6101fa6101f53660046113c6565b61050c565b604051908152602001610150565b610181610216366004611231565b61066c565b6101fa61022936600461143a565b610677565b6101ac6106bf565b6007546001600160a01b0316610181565b6101616106d3565b6101ac6101a7366004611455565b61014461026b36600461133c565b600a602090815260009283526040909220815180830184018051928152908401929093019190912091525460ff1681565b6101616102aa366004611231565b6106e2565b6101ac6102bd366004611491565b61077c565b6101616102d0366004611231565b610794565b6101446102e336600461150d565b61079f565b6101ac6102f636600461143a565b6107cd565b60006103068261080b565b92915050565b60606000805461031b90611540565b80601f016020809104026020016040519081016040528092919081815260200182805461034790611540565b80156103945780601f1061036957610100808354040283529160200191610394565b820191906000526020600020905b81548152906001019060200180831161037757829003601f168201915b5050505050905090565b60006103a982610830565b506000828152600460205260409020546001600160a01b0316610306565b60405162461bcd60e51b815260206004820152602360248201527f536f756c626f756e643a2062616467652063616e6e6f7420626520617070726f6044820152621d995960ea1b60648201526084015b60405180910390fd5b6001600160a01b0382166000908152600a6020526040808220905161044690849061157a565b9081526040519081900360200190205460ff16905092915050565b6001600160a01b03821661048b57604051633250574960e11b815260006004820152602401610417565b6000610498838333610869565b9050836001600160a01b0316816001600160a01b0316146104e6576040516364283d7b60e01b81526001600160a01b0380861660048301526024820184905282166044820152606401610417565b50505050565b6105078383836040518060200160405280600081525061077c565b505050565b60006105166108ff565b6001600160a01b0384166000908152600a602052604090819020905161053d90859061157a565b9081526040519081900360200190205460ff16156105945760405162461bcd60e51b815260206004820152601460248201527310985919d948185b1c9958591e4819585c9b995960621b6044820152606401610417565b600b805460ff1916600117905560088054600091826105b283611596565b9190505590506105c2858261092c565b6105cc818461094a565b600b805460ff191690556001600160a01b0385166000908152600a60205260409081902090516001919061060190879061157a565b908152604051908190036020018120805492151560ff199093169290921790915581906001600160a01b038716907f6854c057dc92416510857b3daad5434a4202a4d192cf0f85d496d91974efaea39061065c90889061121e565b60405180910390a3949350505050565b600061030682610830565b60006001600160a01b0382166106a3576040516322718ad960e21b815260006004820152602401610417565b506001600160a01b031660009081526003602052604090205490565b6106c76108ff565b6106d1600061099a565b565b60606001805461031b90611540565b600960205260009081526040902080546106fb90611540565b80601f016020809104026020016040519081016040528092919081815260200182805461072790611540565b80156107745780601f1061074957610100808354040283529160200191610774565b820191906000526020600020905b81548152906001019060200180831161075757829003601f168201915b505050505081565b610787848484610461565b6104e633858585856109ec565b606061030682610b17565b6001600160a01b03918216600090815260056020908152604080832093909416825291909152205460ff1690565b6107d56108ff565b6001600160a01b0381166107ff57604051631e4fbdf760e01b815260006004820152602401610417565b6108088161099a565b50565b60006001600160e01b03198216632483248360e11b1480610306575061030682610c28565b6000818152600260205260408120546001600160a01b03168061030657604051637e27328960e01b815260048101849052602401610417565b6000828152600260205260408120546001600160a01b03168015806108905750600b5460ff165b6108eb5760405162461bcd60e51b815260206004820152602660248201527f536f756c626f756e643a2062616467652063616e6e6f74206265207472616e7360448201526519995c9c995960d21b6064820152608401610417565b6108f6858585610c78565b95945050505050565b6007546001600160a01b031633146106d15760405163118cdaa760e01b8152336004820152602401610417565b610946828260405180602001604052806000815250610d71565b5050565b60008281526006602052604090206109628282611603565b506040518281527ff8e1a15aba9398e019f0b49df1a4fde98ee17ae345cb5f6b5e2c27f5033e8ce79060200160405180910390a15050565b600780546001600160a01b038381166001600160a01b0319831681179093556040519116919082907f8be0079c531659141344cd1fd0a4f28419497f9722a3daafe3b4186f6b6457e090600090a35050565b6001600160a01b0383163b15610b1057604051630a85bd0160e11b81526001600160a01b0384169063150b7a0290610a2e9088908890879087906004016116c3565b6020604051808303816000875af1925050508015610a69575060408051601f3d908101601f19168201909252610a6691810190611700565b60015b610ad2573d808015610a97576040519150601f19603f3d011682016040523d82523d6000602084013e610a9c565b606091505b508051600003610aca57604051633250574960e11b81526001600160a01b0385166004820152602401610417565b805160208201fd5b6001600160e01b03198116630a85bd0160e11b14610b0e57604051633250574960e11b81526001600160a01b0385166004820152602401610417565b505b5050505050565b6060610b2282610830565b5060008281526006602052604081208054610b3c90611540565b80601f0160208091040260200160405190810160405280929190818152602001828054610b6890611540565b8015610bb55780601f10610b8a57610100808354040283529160200191610bb5565b820191906000526020600020905b815481529060010190602001808311610b9857829003601f168201915b505050505090506000610bd360408051602081019091526000815290565b90508051600003610be5575092915050565b815115610c17578082604051602001610bff92919061171d565b60405160208183030381529060405292505050919050565b610c2084610d89565b949350505050565b60006001600160e01b031982166380ac58cd60e01b1480610c5957506001600160e01b03198216635b5e139f60e01b145b8061030657506301ffc9a760e01b6001600160e01b0319831614610306565b6000828152600260205260408120546001600160a01b0390811690831615610ca557610ca5818486610dfe565b6001600160a01b03811615610ce357610cc2600085600080610e62565b6001600160a01b038116600090815260036020526040902080546000190190555b6001600160a01b03851615610d12576001600160a01b0385166000908152600360205260409020805460010190555b60008481526002602052604080822080546001600160a01b0319166001600160a01b0389811691821790925591518793918516917fddf252ad1be2c89b69c2b068fc378daa952ba7f163c4a11628f55a4df523b3ef91a4949350505050565b610d7b8383610f68565b6105073360008585856109ec565b6060610d9482610830565b506000610dac60408051602081019091526000815290565b90506000815111610dcc5760405180602001604052806000815250610df7565b80610dd684610fcd565b604051602001610de792919061171d565b6040516020818303038152906040525b9392505050565b610e09838383611060565b610507576001600160a01b038316610e3757604051637e27328960e01b815260048101829052602401610417565b60405163177e802f60e01b81526001600160a01b038316600482015260248101829052604401610417565b8080610e7657506001600160a01b03821615155b15610f38576000610e8684610830565b90506001600160a01b03831615801590610eb25750826001600160a01b0316816001600160a01b031614155b8015610ec55750610ec3818461079f565b155b15610eee5760405163a9fbf51f60e01b81526001600160a01b0384166004820152602401610417565b8115610f365783856001600160a01b0316826001600160a01b03167f8c5be1e5ebec7d5bd14f71427d1e84f3dd0314c0f7b2291e5b200ac8c7c3b92560405160405180910390a45b505b5050600090815260046020526040902080546001600160a01b0319166001600160a01b0392909216919091179055565b6001600160a01b038216610f9257604051633250574960e11b815260006004820152602401610417565b6000610fa083836000610869565b90506001600160a01b03811615610507576040516339e3563760e11b815260006004820152602401610417565b60606000610fda836110c3565b600101905060008167ffffffffffffffff811115610ffa57610ffa611290565b6040519080825280601f01601f191660200182016040528015611024576020820181803683370190505b5090508181016020015b600019016f181899199a1a9b1b9c1cb0b131b232b360811b600a86061a8153600a850494508461102e57509392505050565b60006001600160a01b03831615801590610c205750826001600160a01b0316846001600160a01b0316148061109a575061109a848461079f565b80610c205750506000908152600460205260409020546001600160a01b03908116911614919050565b60008072184f03e93ff9f4daa797ed6e38ed64bf6a1f0160401b83106111025772184f03e93ff9f4daa797ed6e38ed64bf6a1f0160401b830492506040015b6d04ee2d6d415b85acef8100000000831061112e576d04ee2d6d415b85acef8100000000830492506020015b662386f26fc10000831061114c57662386f26fc10000830492506010015b6305f5e1008310611164576305f5e100830492506008015b612710831061117857612710830492506004015b6064831061118a576064830492506002015b600a83106103065760010192915050565b6001600160e01b03198116811461080857600080fd5b6000602082840312156111c357600080fd5b8135610df78161119b565b60005b838110156111e95781810151838201526020016111d1565b50506000910152565b6000815180845261120a8160208601602086016111ce565b601f01601f19169290920160200192915050565b602081526000610df760208301846111f2565b60006020828403121561124357600080fd5b5035919050565b80356001600160a01b038116811461126157600080fd5b919050565b6000806040838503121561127957600080fd5b6112828361124a565b946020939093013593505050565b634e487b7160e01b600052604160045260246000fd5b600067ffffffffffffffff808411156112c1576112c1611290565b604051601f8501601f19908116603f011681019082821181831017156112e9576112e9611290565b8160405280935085815286868601111561130257600080fd5b858560208301376000602087830101525050509392505050565b600082601f83011261132d57600080fd5b610df7838335602085016112a6565b6000806040838503121561134f57600080fd5b6113588361124a565b9150602083013567ffffffffffffffff81111561137457600080fd5b6113808582860161131c565b9150509250929050565b60008060006060848603121561139f57600080fd5b6113a88461124a565b92506113b66020850161124a565b9150604084013590509250925092565b6000806000606084860312156113db57600080fd5b6113e48461124a565b9250602084013567ffffffffffffffff8082111561140157600080fd5b61140d8783880161131c565b9350604086013591508082111561142357600080fd5b506114308682870161131c565b9150509250925092565b60006020828403121561144c57600080fd5b610df78261124a565b6000806040838503121561146857600080fd5b6114718361124a565b91506020830135801515811461148657600080fd5b809150509250929050565b600080600080608085870312156114a757600080fd5b6114b08561124a565b93506114be6020860161124a565b925060408501359150606085013567ffffffffffffffff8111156114e157600080fd5b8501601f810187136114f257600080fd5b611501878235602084016112a6565b91505092959194509250565b6000806040838503121561152057600080fd5b6115298361124a565b91506115376020840161124a565b90509250929050565b600181811c9082168061155457607f821691505b60208210810361157457634e487b7160e01b600052602260045260246000fd5b50919050565b6000825161158c8184602087016111ce565b9190910192915050565b6000600182016115b657634e487b7160e01b600052601160045260246000fd5b5060010190565b601f82111561050757600081815260208120601f850160051c810160208610156115e45750805b601f850160051c820191505b81811015610b0e578281556001016115f0565b815167ffffffffffffffff81111561161d5761161d611290565b6116318161162b8454611540565b846115bd565b602080601f831160018114611666576000841561164e5750858301515b600019600386901b1c1916600185901b178555610b0e565b600085815260208120601f198616915b8281101561169557888601518255948401946001909101908401611676565b50858210156116b35787850151600019600388901b60f8161c191681555b5050505050600190811b01905550565b6001600160a01b03858116825284166020820152604081018390526080606082018190526000906116f6908301846111f2565b9695505050505050565b60006020828403121561171257600080fd5b8151610df78161119b565b6000835161172f8184602088016111ce565b8351908301906117438183602088016111ce565b0194935050505056fea26469706673582212201f73902bdd190da1d4d3aa16783ffb06d2af629d3a310cf6c8eebc037704ae8c64736f6c63430008140033",
  "linkReferences": {},
  "deployedLinkReferences": {}
}